{
  "contractName": "PleaseFundMe",
  "abi": [
    {
      "inputs": [],
      "stateMutability": "nonpayable",
      "type": "constructor"
    },
    {
      "anonymous": false,
      "inputs": [
        {
          "indexed": false,
          "internalType": "address",
          "name": "sender",
          "type": "address"
        },
        {
          "indexed": false,
          "internalType": "string",
          "name": "message",
          "type": "string"
        }
      ],
      "name": "InteractionSuccess",
      "type": "event"
    },
    {
      "anonymous": false,
      "inputs": [
        {
          "indexed": false,
          "internalType": "address",
          "name": "sender",
          "type": "address"
        },
        {
          "indexed": false,
          "internalType": "string",
          "name": "transaction",
          "type": "string"
        },
        {
          "indexed": false,
          "internalType": "uint256",
          "name": "amount",
          "type": "uint256"
        }
      ],
      "name": "TransferSuccess",
      "type": "event"
    },
    {
      "inputs": [
        {
          "internalType": "address",
          "name": "",
          "type": "address"
        }
      ],
      "name": "ownerToUserId",
      "outputs": [
        {
          "internalType": "bytes32",
          "name": "",
          "type": "bytes32"
        }
      ],
      "stateMutability": "view",
      "type": "function",
      "constant": true
    },
    {
      "inputs": [],
      "name": "getAccounts",
      "outputs": [
        {
          "components": [
            {
              "internalType": "address",
              "name": "owner",
              "type": "address"
            },
            {
              "internalType": "bytes32",
              "name": "id",
              "type": "bytes32"
            },
            {
              "internalType": "string",
              "name": "username",
              "type": "string"
            },
            {
              "internalType": "string",
              "name": "aboutMe",
              "type": "string"
            },
            {
              "internalType": "string",
              "name": "backgroundGradient",
              "type": "string"
            }
          ],
          "internalType": "struct PleaseFundMe.User[]",
          "name": "",
          "type": "tuple[]"
        }
      ],
      "stateMutability": "view",
      "type": "function",
      "constant": true
    },
    {
      "inputs": [
        {
          "internalType": "bytes32",
          "name": "_friend",
          "type": "bytes32"
        }
      ],
      "name": "addFriend",
      "outputs": [],
      "stateMutability": "nonpayable",
      "type": "function"
    },
    {
      "inputs": [
        {
          "internalType": "bytes32",
          "name": "_userId",
          "type": "bytes32"
        },
        {
          "internalType": "bytes32[]",
          "name": "_updatedFriends",
          "type": "bytes32[]"
        }
      ],
      "name": "updateUserFriends",
      "outputs": [],
      "stateMutability": "nonpayable",
      "type": "function"
    },
    {
      "inputs": [
        {
          "internalType": "bytes32",
          "name": "_user",
          "type": "bytes32"
        }
      ],
      "name": "getUserFriends",
      "outputs": [
        {
          "components": [
            {
              "internalType": "address",
              "name": "owner",
              "type": "address"
            },
            {
              "internalType": "bytes32",
              "name": "id",
              "type": "bytes32"
            },
            {
              "internalType": "string",
              "name": "username",
              "type": "string"
            },
            {
              "internalType": "string",
              "name": "aboutMe",
              "type": "string"
            },
            {
              "internalType": "string",
              "name": "backgroundGradient",
              "type": "string"
            }
          ],
          "internalType": "struct PleaseFundMe.User[]",
          "name": "",
          "type": "tuple[]"
        }
      ],
      "stateMutability": "view",
      "type": "function",
      "constant": true
    },
    {
      "inputs": [
        {
          "internalType": "bytes32",
          "name": "_id",
          "type": "bytes32"
        }
      ],
      "name": "getAccountById",
      "outputs": [
        {
          "components": [
            {
              "internalType": "address",
              "name": "owner",
              "type": "address"
            },
            {
              "internalType": "bytes32",
              "name": "id",
              "type": "bytes32"
            },
            {
              "internalType": "string",
              "name": "username",
              "type": "string"
            },
            {
              "internalType": "string",
              "name": "aboutMe",
              "type": "string"
            },
            {
              "internalType": "string",
              "name": "backgroundGradient",
              "type": "string"
            }
          ],
          "internalType": "struct PleaseFundMe.User",
          "name": "",
          "type": "tuple"
        }
      ],
      "stateMutability": "view",
      "type": "function",
      "constant": true
    },
    {
      "inputs": [],
      "name": "getUserIndex",
      "outputs": [
        {
          "internalType": "bytes32[]",
          "name": "",
          "type": "bytes32[]"
        }
      ],
      "stateMutability": "view",
      "type": "function",
      "constant": true
    },
    {
      "inputs": [],
      "name": "getUserCount",
      "outputs": [
        {
          "internalType": "uint256",
          "name": "",
          "type": "uint256"
        }
      ],
      "stateMutability": "view",
      "type": "function",
      "constant": true
    },
    {
      "inputs": [],
      "name": "getUserId",
      "outputs": [
        {
          "internalType": "bytes32",
          "name": "",
          "type": "bytes32"
        }
      ],
      "stateMutability": "view",
      "type": "function",
      "constant": true
    },
    {
      "inputs": [
        {
          "internalType": "string",
          "name": "_username",
          "type": "string"
        },
        {
          "internalType": "string",
          "name": "_aboutMe",
          "type": "string"
        },
        {
          "internalType": "string",
          "name": "_backgroundGradient",
          "type": "string"
        }
      ],
      "name": "createHomePage",
      "outputs": [],
      "stateMutability": "nonpayable",
      "type": "function"
    },
    {
      "inputs": [
        {
          "internalType": "string",
          "name": "_username",
          "type": "string"
        },
        {
          "internalType": "string",
          "name": "_aboutMe",
          "type": "string"
        },
        {
          "internalType": "string",
          "name": "_backgroundGradient",
          "type": "string"
        }
      ],
      "name": "updateHomePage",
      "outputs": [],
      "stateMutability": "nonpayable",
      "type": "function"
    },
    {
      "inputs": [
        {
          "internalType": "string",
          "name": "_title",
          "type": "string"
        },
        {
          "internalType": "uint256",
          "name": "_fundTarget",
          "type": "uint256"
        },
        {
          "internalType": "string",
          "name": "_description",
          "type": "string"
        },
        {
          "internalType": "uint256",
          "name": "_endDate",
          "type": "uint256"
        }
      ],
      "name": "createFunder",
      "outputs": [],
      "stateMutability": "nonpayable",
      "type": "function"
    },
    {
      "inputs": [
        {
          "internalType": "bytes32",
          "name": "_funderId",
          "type": "bytes32"
        },
        {
          "internalType": "string",
          "name": "_title",
          "type": "string"
        },
        {
          "internalType": "uint256",
          "name": "_fundTarget",
          "type": "uint256"
        },
        {
          "internalType": "string",
          "name": "_description",
          "type": "string"
        },
        {
          "internalType": "uint256",
          "name": "_endDate",
          "type": "uint256"
        }
      ],
      "name": "updateFunder",
      "outputs": [],
      "stateMutability": "nonpayable",
      "type": "function"
    },
    {
      "inputs": [
        {
          "internalType": "bytes32",
          "name": "_userId",
          "type": "bytes32"
        }
      ],
      "name": "getUserFunders",
      "outputs": [
        {
          "components": [
            {
              "internalType": "address",
              "name": "owner",
              "type": "address"
            },
            {
              "internalType": "bytes32",
              "name": "id",
              "type": "bytes32"
            },
            {
              "internalType": "uint256",
              "name": "startDate",
              "type": "uint256"
            },
            {
              "internalType": "uint256",
              "name": "endDate",
              "type": "uint256"
            },
            {
              "internalType": "uint256",
              "name": "updatedAt",
              "type": "uint256"
            },
            {
              "internalType": "string",
              "name": "title",
              "type": "string"
            },
            {
              "internalType": "string",
              "name": "description",
              "type": "string"
            },
            {
              "internalType": "uint256",
              "name": "fundTarget",
              "type": "uint256"
            },
            {
              "internalType": "uint256",
              "name": "fundBalance",
              "type": "uint256"
            },
            {
              "internalType": "uint256",
              "name": "amountRaised",
              "type": "uint256"
            }
          ],
          "internalType": "struct PleaseFundMe.Funder[]",
          "name": "",
          "type": "tuple[]"
        }
      ],
      "stateMutability": "view",
      "type": "function",
      "constant": true
    },
    {
      "inputs": [],
      "name": "getAllFunders",
      "outputs": [
        {
          "components": [
            {
              "internalType": "address",
              "name": "owner",
              "type": "address"
            },
            {
              "internalType": "bytes32",
              "name": "id",
              "type": "bytes32"
            },
            {
              "internalType": "uint256",
              "name": "startDate",
              "type": "uint256"
            },
            {
              "internalType": "uint256",
              "name": "endDate",
              "type": "uint256"
            },
            {
              "internalType": "uint256",
              "name": "updatedAt",
              "type": "uint256"
            },
            {
              "internalType": "string",
              "name": "title",
              "type": "string"
            },
            {
              "internalType": "string",
              "name": "description",
              "type": "string"
            },
            {
              "internalType": "uint256",
              "name": "fundTarget",
              "type": "uint256"
            },
            {
              "internalType": "uint256",
              "name": "fundBalance",
              "type": "uint256"
            },
            {
              "internalType": "uint256",
              "name": "amountRaised",
              "type": "uint256"
            }
          ],
          "internalType": "struct PleaseFundMe.Funder[]",
          "name": "",
          "type": "tuple[]"
        }
      ],
      "stateMutability": "view",
      "type": "function",
      "constant": true
    },
    {
      "inputs": [
        {
          "internalType": "bytes32",
          "name": "_funderId",
          "type": "bytes32"
        }
      ],
      "name": "getFunderById",
      "outputs": [
        {
          "components": [
            {
              "internalType": "address",
              "name": "owner",
              "type": "address"
            },
            {
              "internalType": "bytes32",
              "name": "id",
              "type": "bytes32"
            },
            {
              "internalType": "uint256",
              "name": "startDate",
              "type": "uint256"
            },
            {
              "internalType": "uint256",
              "name": "endDate",
              "type": "uint256"
            },
            {
              "internalType": "uint256",
              "name": "updatedAt",
              "type": "uint256"
            },
            {
              "internalType": "string",
              "name": "title",
              "type": "string"
            },
            {
              "internalType": "string",
              "name": "description",
              "type": "string"
            },
            {
              "internalType": "uint256",
              "name": "fundTarget",
              "type": "uint256"
            },
            {
              "internalType": "uint256",
              "name": "fundBalance",
              "type": "uint256"
            },
            {
              "internalType": "uint256",
              "name": "amountRaised",
              "type": "uint256"
            }
          ],
          "internalType": "struct PleaseFundMe.Funder",
          "name": "",
          "type": "tuple"
        }
      ],
      "stateMutability": "view",
      "type": "function",
      "constant": true
    },
    {
      "inputs": [
        {
          "internalType": "bytes32",
          "name": "_funderId",
          "type": "bytes32"
        },
        {
          "internalType": "string",
          "name": "_message",
          "type": "string"
        }
      ],
      "name": "contribute",
      "outputs": [],
      "stateMutability": "payable",
      "type": "function",
      "payable": true
    },
    {
      "inputs": [
        {
          "internalType": "bytes32",
          "name": "_funderId",
          "type": "bytes32"
        }
      ],
      "name": "getFunderContributions",
      "outputs": [
        {
          "components": [
            {
              "internalType": "bytes32",
              "name": "id",
              "type": "bytes32"
            },
            {
              "internalType": "uint256",
              "name": "timeCreated",
              "type": "uint256"
            },
            {
              "internalType": "address",
              "name": "contributer",
              "type": "address"
            },
            {
              "internalType": "uint256",
              "name": "amount",
              "type": "uint256"
            },
            {
              "internalType": "string",
              "name": "message",
              "type": "string"
            }
          ],
          "internalType": "struct PleaseFundMe.Contribution[]",
          "name": "",
          "type": "tuple[]"
        }
      ],
      "stateMutability": "view",
      "type": "function",
      "constant": true
    },
    {
      "inputs": [],
      "name": "getAllContributions",
      "outputs": [
        {
          "components": [
            {
              "internalType": "bytes32",
              "name": "id",
              "type": "bytes32"
            },
            {
              "internalType": "uint256",
              "name": "timeCreated",
              "type": "uint256"
            },
            {
              "internalType": "address",
              "name": "contributer",
              "type": "address"
            },
            {
              "internalType": "uint256",
              "name": "amount",
              "type": "uint256"
            },
            {
              "internalType": "string",
              "name": "message",
              "type": "string"
            }
          ],
          "internalType": "struct PleaseFundMe.Contribution[]",
          "name": "",
          "type": "tuple[]"
        }
      ],
      "stateMutability": "view",
      "type": "function",
      "constant": true
    },
    {
      "inputs": [
        {
          "internalType": "bytes32",
          "name": "_funderId",
          "type": "bytes32"
        }
      ],
      "name": "withdraw",
      "outputs": [],
      "stateMutability": "payable",
      "type": "function",
      "payable": true
    }
  ],
  "bytecode": "0x60806040523480156200001157600080fd5b50620000c5336040518060400160405280600381526020017f64657600000000000000000000000000000000000000000000000000000000008152506040518060400160405280600e81526020017f646576656c6f70657220706167650000000000000000000000000000000000008152506040518060400160405280600481526020017f626c7565000000000000000000000000000000000000000000000000000000008152506200010c60201b60201c565b33600a60006101000a81548173ffffffffffffffffffffffffffffffffffffffff021916908373ffffffffffffffffffffffffffffffffffffffff16021790555062000614565b6000428585858560405160200162000129959493929190620004ab565b6040516020818303038152906040528051906020012090506200014b620002fd565b6040518060a001604052808773ffffffffffffffffffffffffffffffffffffffff168152602001838152602001868152602001858152602001848152509050806003600084815260200190815260200160002060008201518160000160006101000a81548173ffffffffffffffffffffffffffffffffffffffff021916908373ffffffffffffffffffffffffffffffffffffffff1602179055506020820151816001015560408201518160020190805190602001906200020d92919062000345565b5060608201518160030190805190602001906200022c92919062000345565b5060808201518160040190805190602001906200024b92919062000345565b5090505081600660008873ffffffffffffffffffffffffffffffffffffffff1673ffffffffffffffffffffffffffffffffffffffff1681526020019081526020016000208190555060048290806001815401808255809150506001900390600052602060002001600090919091909150557f0e11c19254e459389b3807518c61779a0f27b49f561ef1b03caac6f648ff58bf86604051620002ed919062000508565b60405180910390a1505050505050565b6040518060a00160405280600073ffffffffffffffffffffffffffffffffffffffff168152602001600080191681526020016060815260200160608152602001606081525090565b828054600181600116156101000203166002900490600052602060002090601f016020900481019282601f106200038857805160ff1916838001178555620003b9565b82800160010185558215620003b9579182015b82811115620003b85782518255916020019190600101906200039b565b5b509050620003c89190620003cc565b5090565b5b80821115620003e7576000816000905550600101620003cd565b5090565b620003f68162000561565b82525050565b620004116200040b8262000561565b620005d5565b82525050565b600062000424826200053a565b62000430818562000556565b9350620004428185602086016200059f565b80840191505092915050565b60006200045d600f8362000545565b91507f6163636f756e74206372656174656400000000000000000000000000000000006000830152602082019050919050565b620004a56200049f8262000595565b620005fd565b82525050565b6000620004b9828862000490565b602082019150620004cb8287620003fc565b601482019150620004dd828662000417565b9150620004eb828562000417565b9150620004f9828462000417565b91508190509695505050505050565b60006040820190506200051f6000830184620003eb565b818103602083015262000532816200044e565b905092915050565b600081519050919050565b600082825260208201905092915050565b600081905092915050565b60006200056e8262000575565b9050919050565b600073ffffffffffffffffffffffffffffffffffffffff82169050919050565b6000819050919050565b60005b83811015620005bf578082015181840152602081019050620005a2565b83811115620005cf576000848401525b50505050565b6000620005e282620005e9565b9050919050565b6000620005f68262000607565b9050919050565b6000819050919050565b60008160601b9050919050565b61418480620006246000396000f3fe60806040526004361061011f5760003560e01c80638a48ac03116100a0578063b732e43911610064578063b732e439146103da578063b9b41f1b14610403578063cd6a4ad114610440578063e7ac8c4514610469578063eefa499d146104a65761011f565b80638a48ac03146102ee5780638e19899e14610319578063a7bac69f14610335578063b5cb15f714610372578063b6b762b41461039d5761011f565b806337f3061d116100e757806337f3061d146102075780634c36b99f146102325780635c7561be1461025b5780636ec0c8aa146102985780636fbbb55d146102c35761011f565b806304712d91146101245780630bbda5e51461014d5780631918c1a8146101765780632836b3c3146101b35780632ebcb653146101dc575b600080fd5b34801561013057600080fd5b5061014b60048036038101906101469190612ef0565b6104c2565b005b34801561015957600080fd5b50610174600480360381019061016f9190612db2565b6105b6565b005b34801561018257600080fd5b5061019d60048036038101906101989190612cb8565b610745565b6040516101aa9190613ca4565b60405180910390f35b3480156101bf57600080fd5b506101da60048036038101906101d59190612ce1565b61075d565b005b3480156101e857600080fd5b506101f1610941565b6040516101fe9190613ca4565b60405180910390f35b34801561021357600080fd5b5061021c610988565b6040516102299190613c3e565b60405180910390f35b34801561023e57600080fd5b5061025960048036038101906102549190612e59565b610b6c565b005b34801561026757600080fd5b50610282600480360381019061027d9190612ce1565b610cdc565b60405161028f9190613c82565b60405180910390f35b3480156102a457600080fd5b506102ad611015565b6040516102ba9190613c1c565b60405180910390f35b3480156102cf57600080fd5b506102d861106d565b6040516102e59190613c60565b60405180910390f35b3480156102fa57600080fd5b5061030361131d565b6040516103109190613c82565b60405180910390f35b610333600480360381019061032e9190612ce1565b611632565b005b34801561034157600080fd5b5061035c60048036038101906103579190612ce1565b611838565b6040516103699190613c60565b60405180910390f35b34801561037e57600080fd5b50610387611b0c565b6040516103949190613e23565b60405180910390f35b3480156103a957600080fd5b506103c460048036038101906103bf9190612ce1565b611b19565b6040516103d19190613ddf565b60405180910390f35b3480156103e657600080fd5b5061040160048036038101906103fc9190612e59565b611d27565b005b34801561040f57600080fd5b5061042a60048036038101906104259190612ce1565b611e53565b6040516104379190613e01565b60405180910390f35b34801561044c57600080fd5b5061046760048036038101906104629190612d0a565b6120c6565b005b34801561047557600080fd5b50610490600480360381019061048b9190612ce1565b612173565b60405161049d9190613c3e565b60405180910390f35b6104c060048036038101906104bb9190612d5e565b61237b565b005b6000600660003373ffffffffffffffffffffffffffffffffffffffff1673ffffffffffffffffffffffffffffffffffffffff1681526020019081526020016000205490506000801b8114156105a257600a60009054906101000a900473ffffffffffffffffffffffffffffffffffffffff1673ffffffffffffffffffffffffffffffffffffffff163373ffffffffffffffffffffffffffffffffffffffff16146105a1576040517f08c379a000000000000000000000000000000000000000000000000000000000815260040161059890613d1f565b60405180910390fd5b5b6105af3386868686612563565b5050505050565b60003390508073ffffffffffffffffffffffffffffffffffffffff166007600088815260200190815260200160002060000160009054906101000a900473ffffffffffffffffffffffffffffffffffffffff1673ffffffffffffffffffffffffffffffffffffffff161461065f576040517f08c379a000000000000000000000000000000000000000000000000000000000815260040161065690613cdf565b60405180910390fd5b8460076000888152602001908152602001600020600501908051906020019061068992919061299f565b50826007600088815260200190815260200160002060060190805190602001906106b492919061299f565b508360076000888152602001908152602001600020600701819055508160076000888152602001908152602001600020600301819055504260076000888152602001908152602001600020600401819055507f0e11c19254e459389b3807518c61779a0f27b49f561ef1b03caac6f648ff58bf816040516107359190613b92565b60405180910390a1505050505050565b60066020528060005260406000206000915090505481565b6000600660003373ffffffffffffffffffffffffffffffffffffffff1673ffffffffffffffffffffffffffffffffffffffff1681526020019081526020016000205490506000801b600660003373ffffffffffffffffffffffffffffffffffffffff1673ffffffffffffffffffffffffffffffffffffffff168152602001908152602001600020541415610826576040517f08c379a000000000000000000000000000000000000000000000000000000000815260040161081d90613d9f565b60405180910390fd5b81811415610869576040517f08c379a000000000000000000000000000000000000000000000000000000000815260040161086090613cbf565b60405180910390fd5b60005b600560008381526020019081526020016000208054905081101561090257826005600084815260200190815260200160002082815481106108a957fe5b906000526020600020015414156108f5576040517f08c379a00000000000000000000000000000000000000000000000000000000081526004016108ec90613cff565b60405180910390fd5b808060010191505061086c565b50600560008281526020019081526020016000208290806001815401808255809150506001900390600052602060002001600090919091909150555050565b6000600660003373ffffffffffffffffffffffffffffffffffffffff1673ffffffffffffffffffffffffffffffffffffffff16815260200190815260200160002054905090565b60606000600280549050905060608167ffffffffffffffff811180156109ad57600080fd5b506040519080825280602002602001820160405280156109e757816020015b6109d4612a1f565b8152602001906001900390816109cc5790505b50905060005b82811015610b635760008060028381548110610a0557fe5b906000526020600020015481526020019081526020016000206040518060a001604052908160008201548152602001600182015481526020016002820160009054906101000a900473ffffffffffffffffffffffffffffffffffffffff1673ffffffffffffffffffffffffffffffffffffffff1673ffffffffffffffffffffffffffffffffffffffff16815260200160038201548152602001600482018054600181600116156101000203166002900480601f016020809104026020016040519081016040528092919081815260200182805460018160011615610100020316600290048015610b365780601f10610b0b57610100808354040283529160200191610b36565b820191906000526020600020905b815481529060010190602001808311610b1957829003601f168201915b505050505081525050828281518110610b4b57fe5b602002602001018190525080806001019150506109ed565b50809250505090565b6000600660003373ffffffffffffffffffffffffffffffffffffffff1673ffffffffffffffffffffffffffffffffffffffff1681526020019081526020016000205490503373ffffffffffffffffffffffffffffffffffffffff166003600083815260200190815260200160002060000160009054906101000a900473ffffffffffffffffffffffffffffffffffffffff1673ffffffffffffffffffffffffffffffffffffffff1614610c1e57600080fd5b83600360008381526020019081526020016000206002019080519060200190610c4892919061299f565b5082600360008381526020019081526020016000206003019080519060200190610c7392919061299f565b5081600360008381526020019081526020016000206004019080519060200190610c9e92919061299f565b507f0e11c19254e459389b3807518c61779a0f27b49f561ef1b03caac6f648ff58bf33604051610cce9190613b64565b60405180910390a150505050565b606060006005600084815260200190815260200160002080549050905060608167ffffffffffffffff81118015610d1257600080fd5b50604051908082528060200260200182016040528015610d4c57816020015b610d39612a67565b815260200190600190039081610d315790505b50905060005b8281101561100a5760036000600560008881526020019081526020016000208381548110610d7c57fe5b906000526020600020015481526020019081526020016000206040518060a00160405290816000820160009054906101000a900473ffffffffffffffffffffffffffffffffffffffff1673ffffffffffffffffffffffffffffffffffffffff1673ffffffffffffffffffffffffffffffffffffffff16815260200160018201548152602001600282018054600181600116156101000203166002900480601f016020809104026020016040519081016040528092919081815260200182805460018160011615610100020316600290048015610e995780601f10610e6e57610100808354040283529160200191610e99565b820191906000526020600020905b815481529060010190602001808311610e7c57829003601f168201915b50505050508152602001600382018054600181600116156101000203166002900480601f016020809104026020016040519081016040528092919081815260200182805460018160011615610100020316600290048015610f3b5780601f10610f1057610100808354040283529160200191610f3b565b820191906000526020600020905b815481529060010190602001808311610f1e57829003601f168201915b50505050508152602001600482018054600181600116156101000203166002900480601f016020809104026020016040519081016040528092919081815260200182805460018160011615610100020316600290048015610fdd5780601f10610fb257610100808354040283529160200191610fdd565b820191906000526020600020905b815481529060010190602001808311610fc057829003601f168201915b505050505081525050828281518110610ff257fe5b60200260200101819052508080600101915050610d52565b508092505050919050565b6060600480548060200260200160405190810160405280929190818152602001828054801561106357602002820191906000526020600020905b81548152602001906001019080831161104f575b5050505050905090565b60606000600880549050905060608167ffffffffffffffff8111801561109257600080fd5b506040519080825280602002602001820160405280156110cc57816020015b6110b9612aaf565b8152602001906001900390816110b15790505b50905060005b828110156113145760076000600883815481106110eb57fe5b90600052602060002001548152602001908152602001600020604051806101400160405290816000820160009054906101000a900473ffffffffffffffffffffffffffffffffffffffff1673ffffffffffffffffffffffffffffffffffffffff1673ffffffffffffffffffffffffffffffffffffffff16815260200160018201548152602001600282015481526020016003820154815260200160048201548152602001600582018054600181600116156101000203166002900480601f0160208091040260200160405190810160405280929190818152602001828054600181600116156101000203166002900480156112275780601f106111fc57610100808354040283529160200191611227565b820191906000526020600020905b81548152906001019060200180831161120a57829003601f168201915b50505050508152602001600682018054600181600116156101000203166002900480601f0160208091040260200160405190810160405280929190818152602001828054600181600116156101000203166002900480156112c95780601f1061129e576101008083540402835291602001916112c9565b820191906000526020600020905b8154815290600101906020018083116112ac57829003601f168201915b5050505050815260200160078201548152602001600882015481526020016009820154815250508282815181106112fc57fe5b602002602001018190525080806001019150506110d2565b50809250505090565b60606000600480549050905060608167ffffffffffffffff8111801561134257600080fd5b5060405190808252806020026020018201604052801561137c57816020015b611369612a67565b8152602001906001900390816113615790505b50905060005b8281101561162957600360006004838154811061139b57fe5b906000526020600020015481526020019081526020016000206040518060a00160405290816000820160009054906101000a900473ffffffffffffffffffffffffffffffffffffffff1673ffffffffffffffffffffffffffffffffffffffff1673ffffffffffffffffffffffffffffffffffffffff16815260200160018201548152602001600282018054600181600116156101000203166002900480601f0160208091040260200160405190810160405280929190818152602001828054600181600116156101000203166002900480156114b85780601f1061148d576101008083540402835291602001916114b8565b820191906000526020600020905b81548152906001019060200180831161149b57829003601f168201915b50505050508152602001600382018054600181600116156101000203166002900480601f01602080910402602001604051908101604052809291908181526020018280546001816001161561010002031660029004801561155a5780601f1061152f5761010080835404028352916020019161155a565b820191906000526020600020905b81548152906001019060200180831161153d57829003601f168201915b50505050508152602001600482018054600181600116156101000203166002900480601f0160208091040260200160405190810160405280929190818152602001828054600181600116156101000203166002900480156115fc5780601f106115d1576101008083540402835291602001916115fc565b820191906000526020600020905b8154815290600101906020018083116115df57829003601f168201915b50505050508152505082828151811061161157fe5b60200260200101819052508080600101915050611382565b50809250505090565b600060076000838152602001908152602001600020905060008160080154905060006103e8828161165f57fe5b04905060008183039050600083116116ac576040517f08c379a00000000000000000000000000000000000000000000000000000000081526004016116a390613d7f565b60405180910390fd5b3373ffffffffffffffffffffffffffffffffffffffff168460000160009054906101000a900473ffffffffffffffffffffffffffffffffffffffff1673ffffffffffffffffffffffffffffffffffffffff161461173e576040517f08c379a000000000000000000000000000000000000000000000000000000000815260040161173590613d5f565b60405180910390fd5b60008460080181905550600a60009054906101000a900473ffffffffffffffffffffffffffffffffffffffff1673ffffffffffffffffffffffffffffffffffffffff166108fc839081150290604051600060405180830381858888f193505050501580156117b0573d6000803e3d6000fd5b503373ffffffffffffffffffffffffffffffffffffffff166108fc829081150290604051600060405180830381858888f193505050501580156117f7573d6000803e3d6000fd5b507fd93c084e37bf10c65c239ce1ece74b50538195ba956376f7308ba91179bd17af3382604051611829929190613b28565b60405180910390a15050505050565b606060006009600084815260200190815260200160002080549050905060608167ffffffffffffffff8111801561186e57600080fd5b506040519080825280602002602001820160405280156118a857816020015b611895612aaf565b81526020019060019003908161188d5790505b50905060005b82811015611b0157600760006009600088815260200190815260200160002083815481106118d857fe5b90600052602060002001548152602001908152602001600020604051806101400160405290816000820160009054906101000a900473ffffffffffffffffffffffffffffffffffffffff1673ffffffffffffffffffffffffffffffffffffffff1673ffffffffffffffffffffffffffffffffffffffff16815260200160018201548152602001600282015481526020016003820154815260200160048201548152602001600582018054600181600116156101000203166002900480601f016020809104026020016040519081016040528092919081815260200182805460018160011615610100020316600290048015611a145780601f106119e957610100808354040283529160200191611a14565b820191906000526020600020905b8154815290600101906020018083116119f757829003601f168201915b50505050508152602001600682018054600181600116156101000203166002900480601f016020809104026020016040519081016040528092919081815260200182805460018160011615610100020316600290048015611ab65780601f10611a8b57610100808354040283529160200191611ab6565b820191906000526020600020905b815481529060010190602001808311611a9957829003601f168201915b505050505081526020016007820154815260200160088201548152602001600982015481525050828281518110611ae957fe5b602002602001018190525080806001019150506118ae565b508092505050919050565b6000600480549050905090565b611b21612aaf565b60076000838152602001908152602001600020604051806101400160405290816000820160009054906101000a900473ffffffffffffffffffffffffffffffffffffffff1673ffffffffffffffffffffffffffffffffffffffff1673ffffffffffffffffffffffffffffffffffffffff16815260200160018201548152602001600282015481526020016003820154815260200160048201548152602001600582018054600181600116156101000203166002900480601f016020809104026020016040519081016040528092919081815260200182805460018160011615610100020316600290048015611c575780601f10611c2c57610100808354040283529160200191611c57565b820191906000526020600020905b815481529060010190602001808311611c3a57829003601f168201915b50505050508152602001600682018054600181600116156101000203166002900480601f016020809104026020016040519081016040528092919081815260200182805460018160011615610100020316600290048015611cf95780601f10611cce57610100808354040283529160200191611cf9565b820191906000526020600020905b815481529060010190602001808311611cdc57829003601f168201915b5050505050815260200160078201548152602001600882015481526020016009820154815250509050919050565b6000600660003373ffffffffffffffffffffffffffffffffffffffff1673ffffffffffffffffffffffffffffffffffffffff168152602001908152602001600020549050600a60009054906101000a900473ffffffffffffffffffffffffffffffffffffffff1673ffffffffffffffffffffffffffffffffffffffff163373ffffffffffffffffffffffffffffffffffffffff161415611dfc576040517f08c379a0000000000000000000000000000000000000000000000000000000008152600401611df390613d3f565b60405180910390fd5b6000801b8114611e41576040517f08c379a0000000000000000000000000000000000000000000000000000000008152600401611e3890613dbf565b60405180910390fd5b611e4d338585856127ba565b50505050565b611e5b612a67565b600360008381526020019081526020016000206040518060a00160405290816000820160009054906101000a900473ffffffffffffffffffffffffffffffffffffffff1673ffffffffffffffffffffffffffffffffffffffff1673ffffffffffffffffffffffffffffffffffffffff16815260200160018201548152602001600282018054600181600116156101000203166002900480601f016020809104026020016040519081016040528092919081815260200182805460018160011615610100020316600290048015611f725780601f10611f4757610100808354040283529160200191611f72565b820191906000526020600020905b815481529060010190602001808311611f5557829003601f168201915b50505050508152602001600382018054600181600116156101000203166002900480601f0160208091040260200160405190810160405280929190818152602001828054600181600116156101000203166002900480156120145780601f10611fe957610100808354040283529160200191612014565b820191906000526020600020905b815481529060010190602001808311611ff757829003601f168201915b50505050508152602001600482018054600181600116156101000203166002900480601f0160208091040260200160405190810160405280929190818152602001828054600181600116156101000203166002900480156120b65780601f1061208b576101008083540402835291602001916120b6565b820191906000526020600020905b81548152906001019060200180831161209957829003601f168201915b5050505050815250509050919050565b81600660003373ffffffffffffffffffffffffffffffffffffffff1673ffffffffffffffffffffffffffffffffffffffff1681526020019081526020016000205414612147576040517f08c379a000000000000000000000000000000000000000000000000000000000815260040161213e90613d5f565b60405180910390fd5b8060056000848152602001908152602001600020908051906020019061216e929190612b1b565b505050565b606060006001600084815260200190815260200160002080549050905060608167ffffffffffffffff811180156121a957600080fd5b506040519080825280602002602001820160405280156121e357816020015b6121d0612a1f565b8152602001906001900390816121c85790505b50905060005b828110156123705760008060016000888152602001908152602001600020838154811061221257fe5b906000526020600020015481526020019081526020016000206040518060a001604052908160008201548152602001600182015481526020016002820160009054906101000a900473ffffffffffffffffffffffffffffffffffffffff1673ffffffffffffffffffffffffffffffffffffffff1673ffffffffffffffffffffffffffffffffffffffff16815260200160038201548152602001600482018054600181600116156101000203166002900480601f0160208091040260200160405190810160405280929190818152602001828054600181600116156101000203166002900480156123435780601f1061231857610100808354040283529160200191612343565b820191906000526020600020905b81548152906001019060200180831161232657829003601f168201915b50505050508152505082828151811061235857fe5b602002602001018190525080806001019150506121e9565b508092505050919050565b600034905060006007600085815260200190815260200160002090508181600801600082825401925050819055508181600901600082825401925050819055506000423334866040516020016123d494939291906139f8565b6040516020818303038152906040528051906020012090506040518060a001604052808281526020014281526020013373ffffffffffffffffffffffffffffffffffffffff16815260200134815260200185815250600080838152602001908152602001600020600082015181600001556020820151816001015560408201518160020160006101000a81548173ffffffffffffffffffffffffffffffffffffffff021916908373ffffffffffffffffffffffffffffffffffffffff1602179055506060820151816003015560808201518160040190805190602001906124bc92919061299f565b509050506001600086815260200190815260200160002081908060018154018082558091505060019003906000526020600020016000909190919091505560028190806001815401808255809150506001900390600052602060002001600090919091909150557fd93c084e37bf10c65c239ce1ece74b50538195ba956376f7308ba91179bd17af3334604051612554929190613aec565b60405180910390a15050505050565b6000600660008773ffffffffffffffffffffffffffffffffffffffff1673ffffffffffffffffffffffffffffffffffffffff168152602001908152602001600020549050600042878786886040516020016125c2959493929190613a95565b6040516020818303038152906040528051906020012090506040518061014001604052808873ffffffffffffffffffffffffffffffffffffffff1681526020018281526020014281526020018481526020014281526020018781526020018581526020018681526020016000815260200160008152506007600083815260200190815260200160002060008201518160000160006101000a81548173ffffffffffffffffffffffffffffffffffffffff021916908373ffffffffffffffffffffffffffffffffffffffff1602179055506020820151816001015560408201518160020155606082015181600301556080820151816004015560a08201518160050190805190602001906126d692919061299f565b5060c08201518160060190805190602001906126f392919061299f565b5060e08201518160070155610100820151816008015561012082015181600901559050506009600083815260200190815260200160002081908060018154018082558091505060019003906000526020600020016000909190919091505560088190806001815401808255809150506001900390600052602060002001600090919091909150557f0e11c19254e459389b3807518c61779a0f27b49f561ef1b03caac6f648ff58bf876040516127a99190613bc0565b60405180910390a150505050505050565b600042858585856040516020016127d5959493929190613a42565b6040516020818303038152906040528051906020012090506127f5612a67565b6040518060a001604052808773ffffffffffffffffffffffffffffffffffffffff168152602001838152602001868152602001858152602001848152509050806003600084815260200190815260200160002060008201518160000160006101000a81548173ffffffffffffffffffffffffffffffffffffffff021916908373ffffffffffffffffffffffffffffffffffffffff1602179055506020820151816001015560408201518160020190805190602001906128b592919061299f565b5060608201518160030190805190602001906128d292919061299f565b5060808201518160040190805190602001906128ef92919061299f565b5090505081600660008873ffffffffffffffffffffffffffffffffffffffff1673ffffffffffffffffffffffffffffffffffffffff1681526020019081526020016000208190555060048290806001815401808255809150506001900390600052602060002001600090919091909150557f0e11c19254e459389b3807518c61779a0f27b49f561ef1b03caac6f648ff58bf8660405161298f9190613bee565b60405180910390a1505050505050565b828054600181600116156101000203166002900490600052602060002090601f016020900481019282601f106129e057805160ff1916838001178555612a0e565b82800160010185558215612a0e579182015b82811115612a0d5782518255916020019190600101906129f2565b5b509050612a1b9190612b68565b5090565b6040518060a001604052806000801916815260200160008152602001600073ffffffffffffffffffffffffffffffffffffffff16815260200160008152602001606081525090565b6040518060a00160405280600073ffffffffffffffffffffffffffffffffffffffff168152602001600080191681526020016060815260200160608152602001606081525090565b604051806101400160405280600073ffffffffffffffffffffffffffffffffffffffff1681526020016000801916815260200160008152602001600081526020016000815260200160608152602001606081526020016000815260200160008152602001600081525090565b828054828255906000526020600020908101928215612b57579160200282015b82811115612b56578251825591602001919060010190612b3b565b5b509050612b649190612b85565b5090565b5b80821115612b81576000816000905550600101612b69565b5090565b5b80821115612b9e576000816000905550600101612b86565b5090565b600081359050612bb181614109565b92915050565b600082601f830112612bc857600080fd5b8135612bdb612bd682613e6b565b613e3e565b91508181835260208401935060208101905083856020840282011115612c0057600080fd5b60005b83811015612c305781612c168882612c3a565b845260208401935060208301925050600181019050612c03565b5050505092915050565b600081359050612c4981614120565b92915050565b600082601f830112612c6057600080fd5b8135612c73612c6e82613e93565b613e3e565b91508082526020830160208301858383011115612c8f57600080fd5b612c9a838284614069565b50505092915050565b600081359050612cb281614137565b92915050565b600060208284031215612cca57600080fd5b6000612cd884828501612ba2565b91505092915050565b600060208284031215612cf357600080fd5b6000612d0184828501612c3a565b91505092915050565b60008060408385031215612d1d57600080fd5b6000612d2b85828601612c3a565b925050602083013567ffffffffffffffff811115612d4857600080fd5b612d5485828601612bb7565b9150509250929050565b60008060408385031215612d7157600080fd5b6000612d7f85828601612c3a565b925050602083013567ffffffffffffffff811115612d9c57600080fd5b612da885828601612c4f565b9150509250929050565b600080600080600060a08688031215612dca57600080fd5b6000612dd888828901612c3a565b955050602086013567ffffffffffffffff811115612df557600080fd5b612e0188828901612c4f565b9450506040612e1288828901612ca3565b935050606086013567ffffffffffffffff811115612e2f57600080fd5b612e3b88828901612c4f565b9250506080612e4c88828901612ca3565b9150509295509295909350565b600080600060608486031215612e6e57600080fd5b600084013567ffffffffffffffff811115612e8857600080fd5b612e9486828701612c4f565b935050602084013567ffffffffffffffff811115612eb157600080fd5b612ebd86828701612c4f565b925050604084013567ffffffffffffffff811115612eda57600080fd5b612ee686828701612c4f565b9150509250925092565b60008060008060808587031215612f0657600080fd5b600085013567ffffffffffffffff811115612f2057600080fd5b612f2c87828801612c4f565b9450506020612f3d87828801612ca3565b935050604085013567ffffffffffffffff811115612f5a57600080fd5b612f6687828801612c4f565b9250506060612f7787828801612ca3565b91505092959194509250565b6000612f8f83836131ef565b60208301905092915050565b6000612fa78383613683565b905092915050565b6000612fbb83836136f9565b905092915050565b6000612fcf83836138bb565b905092915050565b612fe081614033565b82525050565b612ff7612ff282613fed565b6140bd565b82525050565b61300681613fdb565b82525050565b61301581613fdb565b82525050565b61302c61302782613fdb565b6140ab565b82525050565b600061303d82613eff565b6130478185613f6a565b935061305283613ebf565b8060005b8381101561308357815161306a8882612f83565b975061307583613f36565b925050600181019050613056565b5085935050505092915050565b600061309b82613f0a565b6130a58185613f7b565b9350836020820285016130b785613ecf565b8060005b858110156130f357848403895281516130d48582612f9b565b94506130df83613f43565b925060208a019950506001810190506130bb565b50829750879550505050505092915050565b600061311082613f15565b61311a8185613f8c565b93508360208202850161312c85613edf565b8060005b8581101561316857848403895281516131498582612faf565b945061315483613f50565b925060208a01995050600181019050613130565b50829750879550505050505092915050565b600061318582613f20565b61318f8185613f9d565b9350836020820285016131a185613eef565b8060005b858110156131dd57848403895281516131be8582612fc3565b94506131c983613f5d565b925060208a019950506001810190506131a5565b50829750879550505050505092915050565b6131f881613fff565b82525050565b61320781613fff565b82525050565b600061321882613f2b565b6132228185613fae565b9350613232818560208601614078565b61323b816140eb565b840191505092915050565b600061325182613f2b565b61325b8185613fd0565b935061326b818560208601614078565b80840191505092915050565b6000613284602383613fbf565b91507f796f752063616e6e6f742061646420796f757273656c6620617320612066726960008301527f656e6400000000000000000000000000000000000000000000000000000000006020830152604082019050919050565b60006132ea601783613fbf565b91507f636f6e747269627574696f6e207375636365737366756c0000000000000000006000830152602082019050919050565b600061332a600e83613fbf565b91507f66756e64657220757064617465640000000000000000000000000000000000006000830152602082019050919050565b600061336a601583613fbf565b91507f7769746864726177616c207375636365737366756c00000000000000000000006000830152602082019050919050565b60006133aa601783613fbf565b91507f6d757374206265206f776e657220746f207570646174650000000000000000006000830152602082019050919050565b60006133ea601483613fbf565b91507f667269656e6420616c72656164792061646465640000000000000000000000006000830152602082019050919050565b600061342a602c83613fbf565b91507f6d7573742063726561746520686f6d652070616765206265666f72652063726560008301527f6174696e672066756e64657200000000000000000000000000000000000000006020830152604082019050919050565b6000613490601b83613fbf565b91507f64657620616c726561647920686173206120686f6d65207061676500000000006000830152602082019050919050565b60006134d0600c83613fbf565b91507f756e617574686f72697a656400000000000000000000000000000000000000006000830152602082019050919050565b6000613510600f83613fbf565b91507f6163636f756e74207570646174656400000000000000000000000000000000006000830152602082019050919050565b6000613550600e83613fbf565b91507f66756e64657220637265617465640000000000000000000000000000000000006000830152602082019050919050565b6000613590600f83613fbf565b91507f6163636f756e74206372656174656400000000000000000000000000000000006000830152602082019050919050565b60006135d0601483613fbf565b91507f6e6f2066756e647320746f2077697468647261770000000000000000000000006000830152602082019050919050565b6000613610601b83613fbf565b91507f75736572206163636f756e7420646f6573206e6f7420657869737400000000006000830152602082019050919050565b6000613650601c83613fbf565b91507f7573657220616c726561647920686173206120686f6d652070616765000000006000830152602082019050919050565b600060a08301600083015161369b60008601826131ef565b5060208301516136ae60208601826139c3565b5060408301516136c16040860182612ffd565b5060608301516136d460608601826139c3565b50608083015184820360808601526136ec828261320d565b9150508091505092915050565b6000610140830160008301516137126000860182612ffd565b50602083015161372560208601826131ef565b50604083015161373860408601826139c3565b50606083015161374b60608601826139c3565b50608083015161375e60808601826139c3565b5060a083015184820360a0860152613776828261320d565b91505060c083015184820360c0860152613790828261320d565b91505060e08301516137a560e08601826139c3565b506101008301516137ba6101008601826139c3565b506101208301516137cf6101208601826139c3565b508091505092915050565b6000610140830160008301516137f36000860182612ffd565b50602083015161380660208601826131ef565b50604083015161381960408601826139c3565b50606083015161382c60608601826139c3565b50608083015161383f60808601826139c3565b5060a083015184820360a0860152613857828261320d565b91505060c083015184820360c0860152613871828261320d565b91505060e083015161388660e08601826139c3565b5061010083015161389b6101008601826139c3565b506101208301516138b06101208601826139c3565b508091505092915050565b600060a0830160008301516138d36000860182612ffd565b5060208301516138e660208601826131ef565b50604083015184820360408601526138fe828261320d565b91505060608301518482036060860152613918828261320d565b91505060808301518482036080860152613932828261320d565b9150508091505092915050565b600060a0830160008301516139576000860182612ffd565b50602083015161396a60208601826131ef565b5060408301518482036040860152613982828261320d565b9150506060830151848203606086015261399c828261320d565b915050608083015184820360808601526139b6828261320d565b9150508091505092915050565b6139cc81614029565b82525050565b6139db81614029565b82525050565b6139f26139ed82614029565b6140e1565b82525050565b6000613a0482876139e1565b602082019150613a148286612fe6565b601482019150613a2482856139e1565b602082019150613a348284613246565b915081905095945050505050565b6000613a4e82886139e1565b602082019150613a5e828761301b565b601482019150613a6e8286613246565b9150613a7a8285613246565b9150613a868284613246565b91508190509695505050505050565b6000613aa182886139e1565b602082019150613ab1828761301b565b601482019150613ac18286613246565b9150613acd8285613246565b9150613ad982846139e1565b6020820191508190509695505050505050565b6000606082019050613b016000830185612fd7565b8181036020830152613b12816132dd565b9050613b2160408301846139d2565b9392505050565b6000606082019050613b3d6000830185612fd7565b8181036020830152613b4e8161335d565b9050613b5d60408301846139d2565b9392505050565b6000604082019050613b796000830184612fd7565b8181036020830152613b8a81613503565b905092915050565b6000604082019050613ba7600083018461300c565b8181036020830152613bb88161331d565b905092915050565b6000604082019050613bd5600083018461300c565b8181036020830152613be681613543565b905092915050565b6000604082019050613c03600083018461300c565b8181036020830152613c1481613583565b905092915050565b60006020820190508181036000830152613c368184613032565b905092915050565b60006020820190508181036000830152613c588184613090565b905092915050565b60006020820190508181036000830152613c7a8184613105565b905092915050565b60006020820190508181036000830152613c9c818461317a565b905092915050565b6000602082019050613cb960008301846131fe565b92915050565b60006020820190508181036000830152613cd881613277565b9050919050565b60006020820190508181036000830152613cf88161339d565b9050919050565b60006020820190508181036000830152613d18816133dd565b9050919050565b60006020820190508181036000830152613d388161341d565b9050919050565b60006020820190508181036000830152613d5881613483565b9050919050565b60006020820190508181036000830152613d78816134c3565b9050919050565b60006020820190508181036000830152613d98816135c3565b9050919050565b60006020820190508181036000830152613db881613603565b9050919050565b60006020820190508181036000830152613dd881613643565b9050919050565b60006020820190508181036000830152613df981846137da565b905092915050565b60006020820190508181036000830152613e1b818461393f565b905092915050565b6000602082019050613e3860008301846139d2565b92915050565b6000604051905081810181811067ffffffffffffffff82111715613e6157600080fd5b8060405250919050565b600067ffffffffffffffff821115613e8257600080fd5b602082029050602081019050919050565b600067ffffffffffffffff821115613eaa57600080fd5b601f19601f8301169050602081019050919050565b6000819050602082019050919050565b6000819050602082019050919050565b6000819050602082019050919050565b6000819050602082019050919050565b600081519050919050565b600081519050919050565b600081519050919050565b600081519050919050565b600081519050919050565b6000602082019050919050565b6000602082019050919050565b6000602082019050919050565b6000602082019050919050565b600082825260208201905092915050565b600082825260208201905092915050565b600082825260208201905092915050565b600082825260208201905092915050565b600082825260208201905092915050565b600082825260208201905092915050565b600081905092915050565b6000613fe682614009565b9050919050565b6000613ff882614009565b9050919050565b6000819050919050565b600073ffffffffffffffffffffffffffffffffffffffff82169050919050565b6000819050919050565b600061403e82614045565b9050919050565b600061405082614057565b9050919050565b600061406282614009565b9050919050565b82818337600083830152505050565b60005b8381101561409657808201518184015260208101905061407b565b838111156140a5576000848401525b50505050565b60006140b6826140cf565b9050919050565b60006140c8826140cf565b9050919050565b60006140da826140fc565b9050919050565b6000819050919050565b6000601f19601f8301169050919050565b60008160601b9050919050565b61411281613fdb565b811461411d57600080fd5b50565b61412981613fff565b811461413457600080fd5b50565b61414081614029565b811461414b57600080fd5b5056fea264697066735822122010315a58655e6ae1d018afdb7320fa18a510bfcc23f14bed418d912806e6080a64736f6c63430007000033",
  "immutableReferences": {},
  "source": "pragma solidity >=0.7.0 <0.8.0;\npragma experimental ABIEncoderV2;\n\ncontract PleaseFundMe {\n    event InteractionSuccess(address sender, string message);\n    event TransferSuccess(address sender, string transaction, uint amount);\n    \n    struct Funder {\n        address owner;\n        bytes32 id;\n        uint startDate;\n        uint endDate;\n        uint updatedAt;\n        string title;\n        string description;\n        uint fundTarget;\n        uint fundBalance;\n        uint amountRaised;\n    }\n    \n    struct User {\n        address owner;\n        bytes32 id;\n        string username;\n        string aboutMe;\n        string backgroundGradient;\n    }\n    \n    struct Contribution {\n        bytes32 id;\n        uint timeCreated;\n        address contributer;\n        uint amount;\n        string message;\n    }\n    \n    mapping (bytes32 => Contribution) contributions;\n    mapping (bytes32 => bytes32[]) funderContributions;\n    bytes32[] private contributionIndex;\n    \n    mapping (bytes32 => User) users;\n    bytes32[] private userIndex;\n    mapping (bytes32 => bytes32[]) userFriends;\n    \n    mapping (address => bytes32) public ownerToUserId;\n    \n    mapping (bytes32 => Funder) funders;\n    bytes32[] private funderIndex;\n    mapping (bytes32 => bytes32[]) ownerFunders;\n    \n    address payable _developerAddress;\n    \n    constructor() {\n        _createHomePage(msg.sender, 'dev', 'developer page', 'blue');\n        _developerAddress = msg.sender;\n    }\n    \n    function getAccounts() public view returns(User[] memory) {\n        uint userCount = userIndex.length;\n        User[] memory _users = new User[](userCount);\n        for(uint i = 0; i < userCount; i++) {\n            _users[i] = users[userIndex[i]];\n        }\n        return _users;\n    }\n\n    function addFriend(bytes32 _friend) public {\n        bytes32 _user = ownerToUserId[msg.sender];\n        require(ownerToUserId[msg.sender] != 0, 'user account does not exist'); // require user has an account\n        require(_user != _friend, 'you cannot add yourself as a friend');\n        for (uint i = 0; i < userFriends[_user].length; i++) {\n          require(userFriends[_user][i] != _friend, 'friend already added'); // require not existing friend\n        }\n        userFriends[_user].push(_friend);\n    }\n\n    function updateUserFriends(bytes32 _userId, bytes32[] memory _updatedFriends) public {\n      require(ownerToUserId[msg.sender] == _userId, 'unauthorized');\n      userFriends[_userId] = _updatedFriends; \n    }\n    \n    function getUserFriends(bytes32 _user) public view returns (User[] memory) {\n        uint friendsCount = userFriends[_user].length;\n        User[] memory _userFriends = new User[](friendsCount);\n        for (uint i = 0; i < friendsCount; i++) {\n            _userFriends[i] = users[userFriends[_user][i]];\n        }\n        return _userFriends;\n    }\n    \n    function getAccountById (bytes32 _id) public view returns(User memory) {\n        return users[_id];\n    }\n    \n    function getUserIndex() public view returns(bytes32[] memory) {\n        return userIndex;\n    }\n    \n    function getUserCount() public view returns(uint) {\n        return userIndex.length;\n    }\n    \n    function getUserId() public view returns(bytes32) {\n        return ownerToUserId[msg.sender];\n    }\n    \n    \n    function createHomePage(string memory _username, string memory _aboutMe, string memory _backgroundGradient) public {\n        bytes32 _id = ownerToUserId[msg.sender];\n        require(msg.sender != _developerAddress, 'dev already has a home page');\n        require(_id == 0, 'user already has a home page'); // enforce only one User per address\n        _createHomePage(msg.sender, _username, _aboutMe, _backgroundGradient);\n    }\n    \n    function _createHomePage(address _sender, string memory _username, string memory _aboutMe, string memory _backgroundGradient) internal {\n        bytes32 _id = keccak256(abi.encodePacked(block.timestamp, _sender, _username, _aboutMe, _backgroundGradient));\n        User memory newUser = User(_sender, _id, _username, _aboutMe, _backgroundGradient);\n        users[_id] = newUser; // add the new user\n        ownerToUserId[_sender] = _id;\n        userIndex.push(_id);\n        emit InteractionSuccess(_sender, 'account created');\n    }\n    \n    function updateHomePage(string memory _username, string memory _aboutMe, string memory _backgroundGradient) public {\n        bytes32 _id = ownerToUserId[msg.sender];\n        require(users[_id].owner == msg.sender);\n        users[_id].username = _username;\n        users[_id].aboutMe = _aboutMe;\n        users[_id].backgroundGradient = _backgroundGradient;\n        emit InteractionSuccess(msg.sender, 'account updated');\n    }\n    \n    function createFunder(string memory _title, uint _fundTarget, string memory _description, uint _endDate) public {\n        bytes32 _id = ownerToUserId[msg.sender];\n        if (_id == 0) {\n            require(msg.sender == _developerAddress, 'must create home page before creating funder');\n        }\n        _createFunder(msg.sender, _title, _fundTarget, _description, _endDate);\n    }\n    \n    \n    function _createFunder(address _sender, string memory _title, uint _fundTarget, string memory _description, uint _endDate) internal {\n        bytes32 _userId = ownerToUserId[_sender];\n        bytes32 _funderId = keccak256(abi.encodePacked(block.timestamp, _sender, _title, _description, _fundTarget));\n        funders[_funderId] = Funder(_sender, _funderId, block.timestamp, _endDate, block.timestamp, _title, _description, _fundTarget, 0, 0);\n        ownerFunders[_userId].push(_funderId);\n        funderIndex.push(_funderId);\n        emit InteractionSuccess(_sender, 'funder created');\n    }\n    \n    function updateFunder(bytes32 _funderId, string memory _title, uint _fundTarget, string memory _description, uint _endDate) public {\n        address _sender = msg.sender;\n        require(funders[_funderId].owner == _sender, 'must be owner to update');\n        funders[_funderId].title = _title;\n        funders[_funderId].description = _description;\n        funders[_funderId].fundTarget = _fundTarget;\n        funders[_funderId].endDate = _endDate;\n        funders[_funderId].updatedAt = block.timestamp;\n        emit InteractionSuccess(_sender, 'funder updated');\n    }\n    \n    function getUserFunders(bytes32 _userId) public view returns(Funder[] memory) {\n        uint _fundersCount = ownerFunders[_userId].length;\n        Funder[] memory _userFunders = new Funder[](_fundersCount);\n        for (uint i = 0; i < _fundersCount; i++) {\n            _userFunders[i] = funders[ownerFunders[_userId][i]];\n        }\n        return _userFunders;\n    }\n    \n    function getAllFunders() public view returns (Funder[] memory) {\n        uint _fundersCount = funderIndex.length;\n        Funder[] memory _funders = new Funder[](_fundersCount);\n        for (uint i = 0; i < _fundersCount; i++) {\n            _funders[i] = funders[funderIndex[i]];\n        }\n        return _funders;\n    }\n    \n    function getFunderById(bytes32 _funderId) public view returns(Funder memory) {\n        return funders[_funderId];\n    }\n    \n    function contribute(bytes32 _funderId, string memory _message) payable public {\n        uint contribution = msg.value;\n        Funder storage funder = funders[_funderId];\n        funder.fundBalance += contribution;\n        funder.amountRaised += contribution;\n        \n        bytes32 _contributionId = keccak256(abi.encodePacked(block.timestamp, msg.sender, msg.value, _message));\n        contributions[_contributionId] = Contribution(_contributionId, block.timestamp, msg.sender, msg.value, _message);\n        funderContributions[_funderId].push(_contributionId);\n        contributionIndex.push(_contributionId);\n        emit TransferSuccess(msg.sender, 'contribution successful', msg.value);\n    }\n    \n    function getFunderContributions(bytes32 _funderId) public view returns(Contribution[] memory) {\n        uint funderCount = funderContributions[_funderId].length;\n        Contribution[] memory _funderContributions = new Contribution[](funderCount);\n        for (uint i = 0; i < funderCount; i++) {\n            _funderContributions[i] = contributions[funderContributions[_funderId][i]];\n        }\n        return _funderContributions;\n    }\n    \n    function getAllContributions() public view returns(Contribution[] memory) {\n        uint funderCount = contributionIndex.length;\n        Contribution[] memory _contributions = new Contribution[](funderCount);\n        for (uint i = 0; i < funderCount; i++) {\n            _contributions[i] = contributions[contributionIndex[i]];\n        }\n        return _contributions;\n    }\n    \n    function withdraw(bytes32 _funderId) public payable {\n        Funder storage funder = funders[_funderId];\n        uint totalFunds = funder.fundBalance;\n        uint devFunds = totalFunds / 1000;\n        uint withdrawalFunds = totalFunds - devFunds;\n        require(totalFunds > 0, 'no funds to withdraw');\n        require(funder.owner == msg.sender, \"unauthorized\");\n        funder.fundBalance = 0;\n        _developerAddress.transfer(devFunds);\n        msg.sender.transfer(withdrawalFunds);\n        emit TransferSuccess(msg.sender, 'withdrawal successful', withdrawalFunds);\n    }\n}",
  "sourcePath": "/Users/tsuji/Dev/PleaseFundMe/contracts/PleaseFundMe.sol",
  "compiler": {
    "name": "solc",
    "version": "0.7.0+commit.9e61f92b.Emscripten.clang"
  },
  "schemaVersion": "3.2.5",
  "updatedAt": "2021-05-30T20:09:34.051Z",
  "networkType": "ethereum",
  "devdoc": {
    "kind": "dev",
    "methods": {},
    "version": 1
  },
  "userdoc": {
    "kind": "user",
    "methods": {},
    "version": 1
  }
}