{
  "contractName": "PleaseFundMe",
  "abi": [
    {
      "inputs": [],
      "stateMutability": "nonpayable",
      "type": "constructor"
    },
    {
      "anonymous": false,
      "inputs": [
        {
          "indexed": false,
          "internalType": "address",
          "name": "_sender",
          "type": "address"
        }
      ],
      "name": "LogSender",
      "type": "event"
    },
    {
      "anonymous": false,
      "inputs": [
        {
          "indexed": false,
          "internalType": "string",
          "name": "_message",
          "type": "string"
        }
      ],
      "name": "StorageSet",
      "type": "event"
    },
    {
      "inputs": [],
      "name": "storedData",
      "outputs": [
        {
          "internalType": "uint256",
          "name": "",
          "type": "uint256"
        }
      ],
      "stateMutability": "view",
      "type": "function",
      "constant": true
    },
    {
      "inputs": [],
      "name": "userCount",
      "outputs": [
        {
          "internalType": "uint256",
          "name": "",
          "type": "uint256"
        }
      ],
      "stateMutability": "view",
      "type": "function",
      "constant": true
    },
    {
      "inputs": [
        {
          "internalType": "uint256",
          "name": "",
          "type": "uint256"
        }
      ],
      "name": "users",
      "outputs": [
        {
          "internalType": "address",
          "name": "owner",
          "type": "address"
        },
        {
          "internalType": "uint256",
          "name": "id",
          "type": "uint256"
        },
        {
          "internalType": "string",
          "name": "username",
          "type": "string"
        },
        {
          "internalType": "string",
          "name": "aboutMe",
          "type": "string"
        },
        {
          "internalType": "string",
          "name": "backgroundGradient",
          "type": "string"
        },
        {
          "internalType": "uint256",
          "name": "fundersCount",
          "type": "uint256"
        }
      ],
      "stateMutability": "view",
      "type": "function",
      "constant": true
    },
    {
      "inputs": [
        {
          "internalType": "uint256",
          "name": "x",
          "type": "uint256"
        }
      ],
      "name": "set",
      "outputs": [],
      "stateMutability": "nonpayable",
      "type": "function"
    },
    {
      "inputs": [
        {
          "internalType": "string",
          "name": "_username",
          "type": "string"
        },
        {
          "internalType": "string",
          "name": "_aboutMe",
          "type": "string"
        },
        {
          "internalType": "string",
          "name": "_backgroundGradient",
          "type": "string"
        }
      ],
      "name": "createHomePage",
      "outputs": [],
      "stateMutability": "nonpayable",
      "type": "function"
    },
    {
      "inputs": [
        {
          "internalType": "string",
          "name": "_username",
          "type": "string"
        },
        {
          "internalType": "string",
          "name": "_aboutMe",
          "type": "string"
        },
        {
          "internalType": "string",
          "name": "_backgroundGradient",
          "type": "string"
        }
      ],
      "name": "updateHomePage",
      "outputs": [],
      "stateMutability": "nonpayable",
      "type": "function"
    },
    {
      "inputs": [
        {
          "internalType": "string",
          "name": "_title",
          "type": "string"
        },
        {
          "internalType": "uint256",
          "name": "_fundTarget",
          "type": "uint256"
        }
      ],
      "name": "createFunder",
      "outputs": [],
      "stateMutability": "nonpayable",
      "type": "function"
    },
    {
      "inputs": [
        {
          "internalType": "uint256",
          "name": "_index",
          "type": "uint256"
        },
        {
          "internalType": "string",
          "name": "_title",
          "type": "string"
        },
        {
          "internalType": "uint256",
          "name": "_fundTarget",
          "type": "uint256"
        }
      ],
      "name": "updateFunder",
      "outputs": [],
      "stateMutability": "nonpayable",
      "type": "function"
    },
    {
      "inputs": [
        {
          "internalType": "address",
          "name": "_address",
          "type": "address"
        }
      ],
      "name": "getUserFundersCount",
      "outputs": [
        {
          "internalType": "uint256",
          "name": "",
          "type": "uint256"
        }
      ],
      "stateMutability": "view",
      "type": "function",
      "constant": true
    },
    {
      "inputs": [
        {
          "internalType": "address",
          "name": "_owner",
          "type": "address"
        },
        {
          "internalType": "uint256",
          "name": "_index",
          "type": "uint256"
        }
      ],
      "name": "getUserFunderAtIndex",
      "outputs": [
        {
          "components": [
            {
              "internalType": "address",
              "name": "owner",
              "type": "address"
            },
            {
              "internalType": "uint256",
              "name": "id",
              "type": "uint256"
            },
            {
              "internalType": "string",
              "name": "title",
              "type": "string"
            },
            {
              "internalType": "uint256",
              "name": "fundTarget",
              "type": "uint256"
            },
            {
              "internalType": "uint256",
              "name": "fundBalance",
              "type": "uint256"
            },
            {
              "internalType": "uint256",
              "name": "amountRaised",
              "type": "uint256"
            }
          ],
          "internalType": "struct PleaseFundMe.Funder",
          "name": "",
          "type": "tuple"
        }
      ],
      "stateMutability": "view",
      "type": "function",
      "constant": true
    },
    {
      "inputs": [
        {
          "internalType": "address",
          "name": "_owner",
          "type": "address"
        }
      ],
      "name": "getUserFunders",
      "outputs": [
        {
          "components": [
            {
              "internalType": "address",
              "name": "owner",
              "type": "address"
            },
            {
              "internalType": "uint256",
              "name": "id",
              "type": "uint256"
            },
            {
              "internalType": "string",
              "name": "title",
              "type": "string"
            },
            {
              "internalType": "uint256",
              "name": "fundTarget",
              "type": "uint256"
            },
            {
              "internalType": "uint256",
              "name": "fundBalance",
              "type": "uint256"
            },
            {
              "internalType": "uint256",
              "name": "amountRaised",
              "type": "uint256"
            }
          ],
          "internalType": "struct PleaseFundMe.Funder[]",
          "name": "",
          "type": "tuple[]"
        }
      ],
      "stateMutability": "view",
      "type": "function",
      "constant": true
    },
    {
      "inputs": [],
      "name": "getUsers",
      "outputs": [
        {
          "components": [
            {
              "internalType": "address",
              "name": "owner",
              "type": "address"
            },
            {
              "internalType": "uint256",
              "name": "id",
              "type": "uint256"
            },
            {
              "internalType": "string",
              "name": "username",
              "type": "string"
            },
            {
              "internalType": "string",
              "name": "aboutMe",
              "type": "string"
            },
            {
              "internalType": "string",
              "name": "backgroundGradient",
              "type": "string"
            },
            {
              "internalType": "uint256",
              "name": "fundersCount",
              "type": "uint256"
            }
          ],
          "internalType": "struct PleaseFundMe.User[]",
          "name": "",
          "type": "tuple[]"
        }
      ],
      "stateMutability": "view",
      "type": "function",
      "constant": true
    },
    {
      "inputs": [
        {
          "internalType": "uint256",
          "name": "_index",
          "type": "uint256"
        }
      ],
      "name": "getMyBalance",
      "outputs": [
        {
          "internalType": "uint256",
          "name": "",
          "type": "uint256"
        }
      ],
      "stateMutability": "view",
      "type": "function",
      "constant": true
    },
    {
      "inputs": [
        {
          "internalType": "address",
          "name": "_owner",
          "type": "address"
        },
        {
          "internalType": "uint256",
          "name": "_index",
          "type": "uint256"
        }
      ],
      "name": "contribute",
      "outputs": [],
      "stateMutability": "payable",
      "type": "function",
      "payable": true
    },
    {
      "inputs": [
        {
          "internalType": "uint256",
          "name": "_index",
          "type": "uint256"
        }
      ],
      "name": "withdraw",
      "outputs": [],
      "stateMutability": "payable",
      "type": "function",
      "payable": true
    }
  ],
  "bytecode": "0x608060405260006002553480156200001657600080fd5b50620000ca336040518060400160405280600381526020017f64657600000000000000000000000000000000000000000000000000000000008152506040518060400160405280600e81526020017f646576656c6f70657220706167650000000000000000000000000000000000008152506040518060400160405280600481526020017f626c7565000000000000000000000000000000000000000000000000000000008152506200011160201b60201c565b33600560006101000a81548173ffffffffffffffffffffffffffffffffffffffff021916908373ffffffffffffffffffffffffffffffffffffffff16021790555062000394565b6200011b620002a2565b6040518060c001604052803373ffffffffffffffffffffffffffffffffffffffff168152602001600254815260200185815260200184815260200183815260200160008152509050600254600360008773ffffffffffffffffffffffffffffffffffffffff1673ffffffffffffffffffffffffffffffffffffffff16815260200190815260200160002081905550600181908060018154018082558091505060019003906000526020600020906006020160009091909190915060008201518160000160006101000a81548173ffffffffffffffffffffffffffffffffffffffff021916908373ffffffffffffffffffffffffffffffffffffffff16021790555060208201518160010155604082015181600201908051906020019062000244929190620002ee565b50606082015181600301908051906020019062000263929190620002ee565b50608082015181600401908051906020019062000282929190620002ee565b5060a0820151816005015550506001805490506002819055505050505050565b6040518060c00160405280600073ffffffffffffffffffffffffffffffffffffffff16815260200160008152602001606081526020016060815260200160608152602001600081525090565b828054600181600116156101000203166002900490600052602060002090601f016020900481019282601f106200033157805160ff191683800117855562000362565b8280016001018555821562000362579182015b828111156200036157825182559160200191906001019062000344565b5b50905062000371919062000375565b5090565b5b808211156200039057600081600090555060010162000376565b5090565b61270680620003a46000396000f3fe6080604052600436106100e75760003560e01c80634c36b99f1161008a5780638418cd99116100595780638418cd99146102e9578063a9d90be314610305578063b732e43914610342578063ee6f18b31461036b576100e7565b80634c36b99f1461023157806360fe47b11461025a5780637b631be01461028357806381cbc060146102ac576100e7565b80632a1afcd9116100c65780632a1afcd91461017f5780632e1a7d4d146101aa578063365b98b2146101c65780634b4ed34714610208576100e7565b8062ce8e3e146100ec57806307973ccf1461011757806324cc855514610142575b600080fd5b3480156100f857600080fd5b506101016103a8565b60405161010e9190612386565b60405180910390f35b34801561012357600080fd5b5061012c610657565b60405161013991906124ca565b60405180910390f35b34801561014e57600080fd5b5061016960048036038101906101649190611ca5565b61065d565b60405161017691906124ca565b60405180910390f35b34801561018b57600080fd5b50610194610870565b6040516101a191906124ca565b60405180910390f35b6101c460048036038101906101bf9190611ca5565b610876565b005b3480156101d257600080fd5b506101ed60048036038101906101e89190611ca5565b610a06565b6040516101ff969594939291906122ee565b60405180910390f35b34801561021457600080fd5b5061022f600480360381019061022a9190611c51565b610c37565b005b34801561023d57600080fd5b5061025860048036038101906102539190611bba565b610d25565b005b34801561026657600080fd5b50610281600480360381019061027c9190611ca5565b610e7e565b005b34801561028f57600080fd5b506102aa60048036038101906102a59190611cce565b610ef4565b005b3480156102b857600080fd5b506102d360048036038101906102ce9190611b55565b6110c0565b6040516102e091906124ca565b60405180910390f35b61030360048036038101906102fe9190611b7e565b611127565b005b34801561031157600080fd5b5061032c60048036038101906103279190611b55565b6111b2565b6040516103399190612364565b60405180910390f35b34801561034e57600080fd5b5061036960048036038101906103649190611bba565b611370565b005b34801561037757600080fd5b50610392600480360381019061038d9190611b7e565b61149a565b60405161039f91906124a8565b60405180910390f35b60606001805480602002602001604051908101604052809291908181526020016000905b8282101561064e57838290600052602060002090600602016040518060c00160405290816000820160009054906101000a900473ffffffffffffffffffffffffffffffffffffffff1673ffffffffffffffffffffffffffffffffffffffff1673ffffffffffffffffffffffffffffffffffffffff16815260200160018201548152602001600282018054600181600116156101000203166002900480601f0160208091040260200160405190810160405280929190818152602001828054600181600116156101000203166002900480156104e85780601f106104bd576101008083540402835291602001916104e8565b820191906000526020600020905b8154815290600101906020018083116104cb57829003601f168201915b50505050508152602001600382018054600181600116156101000203166002900480601f01602080910402602001604051908101604052809291908181526020018280546001816001161561010002031660029004801561058a5780601f1061055f5761010080835404028352916020019161058a565b820191906000526020600020905b81548152906001019060200180831161056d57829003601f168201915b50505050508152602001600482018054600181600116156101000203166002900480601f01602080910402602001604051908101604052809291908181526020018280546001816001161561010002031660029004801561062c5780601f106106015761010080835404028352916020019161062c565b820191906000526020600020905b81548152906001019060200180831161060f57829003601f168201915b50505050508152602001600582015481525050815260200190600101906103cc565b50505050905090565b60025481565b60008033905061066b6119a2565b600460008373ffffffffffffffffffffffffffffffffffffffff1673ffffffffffffffffffffffffffffffffffffffff16815260200190815260200160002084815481106106b557fe5b90600052602060002090600602016040518060c00160405290816000820160009054906101000a900473ffffffffffffffffffffffffffffffffffffffff1673ffffffffffffffffffffffffffffffffffffffff1673ffffffffffffffffffffffffffffffffffffffff16815260200160018201548152602001600282018054600181600116156101000203166002900480601f0160208091040260200160405190810160405280929190818152602001828054600181600116156101000203166002900480156107c75780601f1061079c576101008083540402835291602001916107c7565b820191906000526020600020905b8154815290600101906020018083116107aa57829003601f168201915b50505050508152602001600382015481526020016004820154815260200160058201548152505090503373ffffffffffffffffffffffffffffffffffffffff16816000015173ffffffffffffffffffffffffffffffffffffffff1614610862576040517f08c379a0000000000000000000000000000000000000000000000000000000008152600401610859906123c8565b60405180910390fd5b806080015192505050919050565b60005481565b6000600460003373ffffffffffffffffffffffffffffffffffffffff1673ffffffffffffffffffffffffffffffffffffffff16815260200190815260200160002082815481106108c257fe5b906000526020600020906006020190506000816004015490506000811161091e576040517f08c379a000000000000000000000000000000000000000000000000000000000815260040161091590612468565b60405180910390fd5b3373ffffffffffffffffffffffffffffffffffffffff168260000160009054906101000a900473ffffffffffffffffffffffffffffffffffffffff1673ffffffffffffffffffffffffffffffffffffffff16146109b0576040517f08c379a00000000000000000000000000000000000000000000000000000000081526004016109a790612428565b60405180910390fd5b600082600401819055503373ffffffffffffffffffffffffffffffffffffffff166108fc829081150290604051600060405180830381858888f19350505050158015610a00573d6000803e3d6000fd5b50505050565b60018181548110610a1357fe5b90600052602060002090600602016000915090508060000160009054906101000a900473ffffffffffffffffffffffffffffffffffffffff1690806001015490806002018054600181600116156101000203166002900480601f016020809104026020016040519081016040528092919081815260200182805460018160011615610100020316600290048015610aeb5780601f10610ac057610100808354040283529160200191610aeb565b820191906000526020600020905b815481529060010190602001808311610ace57829003601f168201915b505050505090806003018054600181600116156101000203166002900480601f016020809104026020016040519081016040528092919081815260200182805460018160011615610100020316600290048015610b895780601f10610b5e57610100808354040283529160200191610b89565b820191906000526020600020905b815481529060010190602001808311610b6c57829003601f168201915b505050505090806004018054600181600116156101000203166002900480601f016020809104026020016040519081016040528092919081815260200182805460018160011615610100020316600290048015610c275780601f10610bfc57610100808354040283529160200191610c27565b820191906000526020600020905b815481529060010190602001808311610c0a57829003601f168201915b5050505050908060050154905086565b6000600360003373ffffffffffffffffffffffffffffffffffffffff1673ffffffffffffffffffffffffffffffffffffffff1681526020019081526020016000205490506000811415610d1557600560009054906101000a900473ffffffffffffffffffffffffffffffffffffffff1673ffffffffffffffffffffffffffffffffffffffff163373ffffffffffffffffffffffffffffffffffffffff1614610d14576040517f08c379a0000000000000000000000000000000000000000000000000000000008152600401610d0b906123e8565b60405180910390fd5b5b610d2033848461162d565b505050565b6000600360003373ffffffffffffffffffffffffffffffffffffffff1673ffffffffffffffffffffffffffffffffffffffff1681526020019081526020016000205490503373ffffffffffffffffffffffffffffffffffffffff1660018281548110610d8d57fe5b906000526020600020906006020160000160009054906101000a900473ffffffffffffffffffffffffffffffffffffffff1673ffffffffffffffffffffffffffffffffffffffff1614610ddf57600080fd5b8360018281548110610ded57fe5b90600052602060002090600602016002019080519060200190610e119291906119ee565b508260018281548110610e2057fe5b90600052602060002090600602016003019080519060200190610e449291906119ee565b508160018281548110610e5357fe5b90600052602060002090600602016004019080519060200190610e779291906119ee565b5050505050565b806000819055507f60cdc157ca4737a5d39a0e107532616e7bf6946e615228812c7f9bc9f81797a6604051610eb290612448565b60405180910390a17f7bbdc4cdaf68dae8f82950cdddba2d429ba45cdc33e01ddbf48570514540858c33604051610ee991906122d3565b60405180910390a150565b60003390506000600360008373ffffffffffffffffffffffffffffffffffffffff1673ffffffffffffffffffffffffffffffffffffffff1681526020019081526020016000205490508173ffffffffffffffffffffffffffffffffffffffff1660018281548110610f6157fe5b906000526020600020906006020160000160009054906101000a900473ffffffffffffffffffffffffffffffffffffffff1673ffffffffffffffffffffffffffffffffffffffff1614610fe9576040517f08c379a0000000000000000000000000000000000000000000000000000000008152600401610fe0906123a8565b60405180910390fd5b83600460008473ffffffffffffffffffffffffffffffffffffffff1673ffffffffffffffffffffffffffffffffffffffff168152602001908152602001600020868154811061103457fe5b906000526020600020906006020160020190805190602001906110589291906119ee565b5082600460008473ffffffffffffffffffffffffffffffffffffffff1673ffffffffffffffffffffffffffffffffffffffff16815260200190815260200160002086815481106110a457fe5b9060005260206000209060060201600301819055505050505050565b60006001600360008473ffffffffffffffffffffffffffffffffffffffff1673ffffffffffffffffffffffffffffffffffffffff168152602001908152602001600020548154811061110e57fe5b9060005260206000209060060201600501549050919050565b60003490506000600460008573ffffffffffffffffffffffffffffffffffffffff1673ffffffffffffffffffffffffffffffffffffffff168152602001908152602001600020838154811061117857fe5b9060005260206000209060060201905081816004016000828254019250508190555081816005016000828254019250508190555050505050565b6060600460008373ffffffffffffffffffffffffffffffffffffffff1673ffffffffffffffffffffffffffffffffffffffff168152602001908152602001600020805480602002602001604051908101604052809291908181526020016000905b8282101561136557838290600052602060002090600602016040518060c00160405290816000820160009054906101000a900473ffffffffffffffffffffffffffffffffffffffff1673ffffffffffffffffffffffffffffffffffffffff1673ffffffffffffffffffffffffffffffffffffffff16815260200160018201548152602001600282018054600181600116156101000203166002900480601f01602080910402602001604051908101604052809291908181526020018280546001816001161561010002031660029004801561132f5780601f106113045761010080835404028352916020019161132f565b820191906000526020600020905b81548152906001019060200180831161131257829003601f168201915b50505050508152602001600382015481526020016004820154815260200160058201548152505081526020019060010190611213565b505050509050919050565b6000600360003373ffffffffffffffffffffffffffffffffffffffff1673ffffffffffffffffffffffffffffffffffffffff168152602001908152602001600020549050600560009054906101000a900473ffffffffffffffffffffffffffffffffffffffff1673ffffffffffffffffffffffffffffffffffffffff163373ffffffffffffffffffffffffffffffffffffffff161415611445576040517f08c379a000000000000000000000000000000000000000000000000000000000815260040161143c90612408565b60405180910390fd5b60008114611488576040517f08c379a000000000000000000000000000000000000000000000000000000000815260040161147f90612488565b60405180910390fd5b61149433858585611819565b50505050565b6114a26119a2565b600460008473ffffffffffffffffffffffffffffffffffffffff1673ffffffffffffffffffffffffffffffffffffffff16815260200190815260200160002082815481106114ec57fe5b90600052602060002090600602016040518060c00160405290816000820160009054906101000a900473ffffffffffffffffffffffffffffffffffffffff1673ffffffffffffffffffffffffffffffffffffffff1673ffffffffffffffffffffffffffffffffffffffff16815260200160018201548152602001600282018054600181600116156101000203166002900480601f0160208091040260200160405190810160405280929190818152602001828054600181600116156101000203166002900480156115fe5780601f106115d3576101008083540402835291602001916115fe565b820191906000526020600020905b8154815290600101906020018083116115e157829003601f168201915b505050505081526020016003820154815260200160048201548152602001600582015481525050905092915050565b6000600360008573ffffffffffffffffffffffffffffffffffffffff1673ffffffffffffffffffffffffffffffffffffffff16815260200190815260200160002054905060006001828154811061168057fe5b9060005260206000209060060201600501549050600460008673ffffffffffffffffffffffffffffffffffffffff1673ffffffffffffffffffffffffffffffffffffffff1681526020019081526020016000206040518060c001604052808773ffffffffffffffffffffffffffffffffffffffff168152602001838152602001868152602001858152602001600081526020016000815250908060018154018082558091505060019003906000526020600020906006020160009091909190915060008201518160000160006101000a81548173ffffffffffffffffffffffffffffffffffffffff021916908373ffffffffffffffffffffffffffffffffffffffff1602179055506020820151816001015560408201518160020190805190602001906117ae9291906119ee565b50606082015181600301556080820151816004015560a08201518160050155505060018083815481106117dd57fe5b90600052602060002090600602016005015401600183815481106117fd57fe5b9060005260206000209060060201600501819055505050505050565b611821611a6e565b6040518060c001604052803373ffffffffffffffffffffffffffffffffffffffff168152602001600254815260200185815260200184815260200183815260200160008152509050600254600360008773ffffffffffffffffffffffffffffffffffffffff1673ffffffffffffffffffffffffffffffffffffffff16815260200190815260200160002081905550600181908060018154018082558091505060019003906000526020600020906006020160009091909190915060008201518160000160006101000a81548173ffffffffffffffffffffffffffffffffffffffff021916908373ffffffffffffffffffffffffffffffffffffffff1602179055506020820151816001015560408201518160020190805190602001906119489291906119ee565b5060608201518160030190805190602001906119659291906119ee565b5060808201518160040190805190602001906119829291906119ee565b5060a0820151816005015550506001805490506002819055505050505050565b6040518060c00160405280600073ffffffffffffffffffffffffffffffffffffffff16815260200160008152602001606081526020016000815260200160008152602001600081525090565b828054600181600116156101000203166002900490600052602060002090601f016020900481019282601f10611a2f57805160ff1916838001178555611a5d565b82800160010185558215611a5d579182015b82811115611a5c578251825591602001919060010190611a41565b5b509050611a6a9190611aba565b5090565b6040518060c00160405280600073ffffffffffffffffffffffffffffffffffffffff16815260200160008152602001606081526020016060815260200160608152602001600081525090565b5b80821115611ad3576000816000905550600101611abb565b5090565b600081359050611ae6816126a2565b92915050565b600082601f830112611afd57600080fd5b8135611b10611b0b82612512565b6124e5565b91508082526020830160208301858383011115611b2c57600080fd5b611b3783828461264f565b50505092915050565b600081359050611b4f816126b9565b92915050565b600060208284031215611b6757600080fd5b6000611b7584828501611ad7565b91505092915050565b60008060408385031215611b9157600080fd5b6000611b9f85828601611ad7565b9250506020611bb085828601611b40565b9150509250929050565b600080600060608486031215611bcf57600080fd5b600084013567ffffffffffffffff811115611be957600080fd5b611bf586828701611aec565b935050602084013567ffffffffffffffff811115611c1257600080fd5b611c1e86828701611aec565b925050604084013567ffffffffffffffff811115611c3b57600080fd5b611c4786828701611aec565b9150509250925092565b60008060408385031215611c6457600080fd5b600083013567ffffffffffffffff811115611c7e57600080fd5b611c8a85828601611aec565b9250506020611c9b85828601611b40565b9150509250929050565b600060208284031215611cb757600080fd5b6000611cc584828501611b40565b91505092915050565b600080600060608486031215611ce357600080fd5b6000611cf186828701611b40565b935050602084013567ffffffffffffffff811115611d0e57600080fd5b611d1a86828701611aec565b9250506040611d2b86828701611b40565b9150509250925092565b6000611d41838361210c565b905092915050565b6000611d55838361221e565b905092915050565b611d6681612619565b82525050565b611d75816125dd565b82525050565b611d84816125dd565b82525050565b6000611d958261255e565b611d9f8185612599565b935083602082028501611db18561253e565b8060005b85811015611ded5784840389528151611dce8582611d35565b9450611dd98361257f565b925060208a01995050600181019050611db5565b50829750879550505050505092915050565b6000611e0a82612569565b611e1481856125aa565b935083602082028501611e268561254e565b8060005b85811015611e625784840389528151611e438582611d49565b9450611e4e8361258c565b925060208a01995050600181019050611e2a565b50829750879550505050505092915050565b6000611e7f82612574565b611e8981856125bb565b9350611e9981856020860161265e565b611ea281612691565b840191505092915050565b6000611eb882612574565b611ec281856125cc565b9350611ed281856020860161265e565b611edb81612691565b840191505092915050565b6000611ef36017836125cc565b91507f6d757374206265206f776e657220746f207570646174650000000000000000006000830152602082019050919050565b6000611f336012836125cc565b91507f6e6f2066756e64657220666f72207573657200000000000000000000000000006000830152602082019050919050565b6000611f73602c836125cc565b91507f6d7573742063726561746520686f6d652070616765206265666f72652063726560008301527f6174696e672066756e64657200000000000000000000000000000000000000006020830152604082019050919050565b6000611fd9601b836125cc565b91507f64657620616c726561647920686173206120686f6d65207061676500000000006000830152602082019050919050565b6000612019600c836125cc565b91507f756e617574686f72697a656400000000000000000000000000000000000000006000830152602082019050919050565b60006120596019836125cc565b91507f446174612073746f726564207375636365737366756c6c7921000000000000006000830152602082019050919050565b60006120996014836125cc565b91507f6e6f2066756e647320746f2077697468647261770000000000000000000000006000830152602082019050919050565b60006120d9601c836125cc565b91507f7573657220616c726561647920686173206120686f6d652070616765000000006000830152602082019050919050565b600060c0830160008301516121246000860182611d6c565b50602083015161213760208601826122b5565b506040830151848203604086015261214f8282611e74565b915050606083015161216460608601826122b5565b50608083015161217760808601826122b5565b5060a083015161218a60a08601826122b5565b508091505092915050565b600060c0830160008301516121ad6000860182611d6c565b5060208301516121c060208601826122b5565b50604083015184820360408601526121d88282611e74565b91505060608301516121ed60608601826122b5565b50608083015161220060808601826122b5565b5060a083015161221360a08601826122b5565b508091505092915050565b600060c0830160008301516122366000860182611d6c565b50602083015161224960208601826122b5565b50604083015184820360408601526122618282611e74565b9150506060830151848203606086015261227b8282611e74565b915050608083015184820360808601526122958282611e74565b91505060a08301516122aa60a08601826122b5565b508091505092915050565b6122be8161260f565b82525050565b6122cd8161260f565b82525050565b60006020820190506122e86000830184611d5d565b92915050565b600060c0820190506123036000830189611d7b565b61231060208301886122c4565b81810360408301526123228187611ead565b905081810360608301526123368186611ead565b9050818103608083015261234a8185611ead565b905061235960a08301846122c4565b979650505050505050565b6000602082019050818103600083015261237e8184611d8a565b905092915050565b600060208201905081810360008301526123a08184611dff565b905092915050565b600060208201905081810360008301526123c181611ee6565b9050919050565b600060208201905081810360008301526123e181611f26565b9050919050565b6000602082019050818103600083015261240181611f66565b9050919050565b6000602082019050818103600083015261242181611fcc565b9050919050565b600060208201905081810360008301526124418161200c565b9050919050565b600060208201905081810360008301526124618161204c565b9050919050565b600060208201905081810360008301526124818161208c565b9050919050565b600060208201905081810360008301526124a1816120cc565b9050919050565b600060208201905081810360008301526124c28184612195565b905092915050565b60006020820190506124df60008301846122c4565b92915050565b6000604051905081810181811067ffffffffffffffff8211171561250857600080fd5b8060405250919050565b600067ffffffffffffffff82111561252957600080fd5b601f19601f8301169050602081019050919050565b6000819050602082019050919050565b6000819050602082019050919050565b600081519050919050565b600081519050919050565b600081519050919050565b6000602082019050919050565b6000602082019050919050565b600082825260208201905092915050565b600082825260208201905092915050565b600082825260208201905092915050565b600082825260208201905092915050565b60006125e8826125ef565b9050919050565b600073ffffffffffffffffffffffffffffffffffffffff82169050919050565b6000819050919050565b60006126248261262b565b9050919050565b60006126368261263d565b9050919050565b6000612648826125ef565b9050919050565b82818337600083830152505050565b60005b8381101561267c578082015181840152602081019050612661565b8381111561268b576000848401525b50505050565b6000601f19601f8301169050919050565b6126ab816125dd565b81146126b657600080fd5b50565b6126c28161260f565b81146126cd57600080fd5b5056fea26469706673582212203d782aebda9269b31fc326eed5fcbf965a7a02d1daa947e40f96bbfd7ca3b5ec64736f6c63430007000033",
  "immutableReferences": {},
  "source": "// SPDX-License-Identifier: MIT\npragma solidity >=0.7.0 <0.8.0;\npragma experimental ABIEncoderV2;\n\ncontract PleaseFundMe {\n    event StorageSet(string _message);\n\n    event LogSender(address _sender);\n\n    uint public storedData;\n\n    function set(uint x) public {\n        storedData = x;\n\n        emit StorageSet(\"Data stored successfully!\");\n        emit LogSender(msg.sender);\n    }\n\n    // PleaseFundMe\n    struct Funder {\n        address owner;\n        uint id;\n        string title;\n        uint fundTarget;\n        uint fundBalance;\n        uint amountRaised;\n    }\n    \n    struct User {\n        address owner;\n        uint id;\n        string username;\n        string aboutMe;\n        string backgroundGradient;\n        uint fundersCount;\n    }\n    \n    User[] public users;\n    uint public userCount = 0;\n    \n    mapping (address => uint) ownerToUserId;\n    mapping (address => Funder[]) ownerToFunders;\n    \n    address private _developerAddress;\n    \n    constructor() {\n        _createHomePage(msg.sender, 'dev', 'developer page', 'blue');\n        _developerAddress = msg.sender;\n    }\n    \n    \n    function createHomePage(string memory _username, string memory _aboutMe, string memory _backgroundGradient) public {\n        uint _id = ownerToUserId[msg.sender];\n        require(msg.sender != _developerAddress, 'dev already has a home page');\n        require(_id == 0, 'user already has a home page'); // enforce only one User per address\n        _createHomePage(msg.sender, _username, _aboutMe, _backgroundGradient);\n    }\n    \n    function _createHomePage(address _sender, string memory _username, string memory _aboutMe, string memory _backgroundGradient) internal {\n        User memory newUser = User(msg.sender, userCount, _username, _aboutMe, _backgroundGradient, 0);\n        ownerToUserId[_sender] = userCount; // assign sender a user id\n        users.push(newUser); // add the new user\n        userCount = users.length; // increment the userCount\n    }\n    \n    function updateHomePage(string memory _username, string memory _aboutMe, string memory _backgroundGradient) public {\n        uint _id = ownerToUserId[msg.sender];\n        require(users[_id].owner == msg.sender);\n        users[_id].username = _username;\n        users[_id].aboutMe = _aboutMe;\n        users[_id].backgroundGradient = _backgroundGradient;\n    }\n    \n    function createFunder(string memory _title, uint _fundTarget) public {\n        uint _id = ownerToUserId[msg.sender];\n        if (_id == 0) {\n            require(msg.sender == _developerAddress, 'must create home page before creating funder');\n        }\n        _createFunder(msg.sender, _title, _fundTarget);\n    }\n    \n    \n    function _createFunder(address _sender, string memory _title, uint _fundTarget) internal {\n        uint _homePageId = ownerToUserId[_sender];\n        uint _funderId = users[_homePageId].fundersCount;\n        ownerToFunders[_sender].push(Funder(_sender, _funderId, _title, _fundTarget, 0, 0));\n        \n        users[_homePageId].fundersCount = users[_homePageId].fundersCount + 1;\n    }\n    \n    function updateFunder(uint _index, string memory _title, uint _fundTarget) public {\n        address _sender = msg.sender;\n        uint _homePageId = ownerToUserId[_sender];\n        require(users[_homePageId].owner == _sender, 'must be owner to update');\n        ownerToFunders[_sender][_index].title = _title;\n        ownerToFunders[_sender][_index].fundTarget = _fundTarget;\n    }\n    \n    function getUserFundersCount(address _address) public view returns(uint) {\n        return users[ownerToUserId[_address]].fundersCount;\n    }\n    \n    function getUserFunderAtIndex(address _owner, uint _index) public view returns(Funder memory) {\n        return ownerToFunders[_owner][_index];\n    }\n    \n    function getUserFunders(address _owner) public view returns(Funder[] memory) {\n        return ownerToFunders[_owner];\n    }\n\n    function getUsers() public view returns(User[] memory) {\n        return users;\n    }\n    \n    function getMyBalance(uint _index) public view returns(uint) {\n        address owner = msg.sender;\n        Funder memory funder = ownerToFunders[owner][_index];\n        require (funder.owner == msg.sender, 'no funder for user');\n        return funder.fundBalance;\n    }\n    \n    function contribute(address _owner, uint _index) payable public {\n        uint contribution = msg.value;\n        Funder storage funder = ownerToFunders[_owner][_index];\n        funder.fundBalance += contribution;\n        funder.amountRaised += contribution;\n    }\n    \n    function withdraw(uint _index) public payable{\n        Funder storage funder = ownerToFunders[msg.sender][_index];\n        uint totalFunds = funder.fundBalance;\n        require(totalFunds > 0, 'no funds to withdraw');\n        require(funder.owner == msg.sender, \"unauthorized\");\n        funder.fundBalance = 0;\n        msg.sender.transfer(totalFunds);\n    }\n}",
  "sourcePath": "/home/mtsuji/Projects/PleaseFundMe/contracts/PleaseFundMe.sol",
  "compiler": {
    "name": "solc",
    "version": "0.7.0+commit.9e61f92b.Emscripten.clang"
  },
  "schemaVersion": "3.3.4",
  "updatedAt": "2021-03-29T04:20:58.025Z",
  "networkType": "ethereum",
  "devdoc": {
    "kind": "dev",
    "methods": {},
    "version": 1
  },
  "userdoc": {
    "kind": "user",
    "methods": {},
    "version": 1
  }
}