{
  "contractName": "PleaseFundMe_v3",
  "abi": [
    {
      "inputs": [],
      "stateMutability": "nonpayable",
      "type": "constructor"
    },
    {
      "anonymous": false,
      "inputs": [
        {
          "indexed": false,
          "internalType": "address",
          "name": "sender",
          "type": "address"
        },
        {
          "indexed": false,
          "internalType": "string",
          "name": "message",
          "type": "string"
        }
      ],
      "name": "InteractionSuccess",
      "type": "event"
    },
    {
      "anonymous": false,
      "inputs": [
        {
          "indexed": false,
          "internalType": "address",
          "name": "sender",
          "type": "address"
        },
        {
          "indexed": false,
          "internalType": "string",
          "name": "transaction",
          "type": "string"
        },
        {
          "indexed": false,
          "internalType": "uint256",
          "name": "amount",
          "type": "uint256"
        }
      ],
      "name": "TransferSuccess",
      "type": "event"
    },
    {
      "inputs": [],
      "name": "getAccounts",
      "outputs": [
        {
          "components": [
            {
              "internalType": "address",
              "name": "owner",
              "type": "address"
            },
            {
              "internalType": "bytes32",
              "name": "id",
              "type": "bytes32"
            },
            {
              "internalType": "string",
              "name": "username",
              "type": "string"
            },
            {
              "internalType": "string",
              "name": "aboutMe",
              "type": "string"
            },
            {
              "internalType": "string",
              "name": "backgroundGradient",
              "type": "string"
            }
          ],
          "internalType": "struct PleaseFundMe_v3.User[]",
          "name": "",
          "type": "tuple[]"
        }
      ],
      "stateMutability": "view",
      "type": "function",
      "constant": true
    },
    {
      "inputs": [
        {
          "internalType": "bytes32",
          "name": "_friend",
          "type": "bytes32"
        }
      ],
      "name": "addFriend",
      "outputs": [],
      "stateMutability": "nonpayable",
      "type": "function"
    },
    {
      "inputs": [
        {
          "internalType": "bytes32",
          "name": "_user",
          "type": "bytes32"
        }
      ],
      "name": "getUserFriends",
      "outputs": [
        {
          "components": [
            {
              "internalType": "address",
              "name": "owner",
              "type": "address"
            },
            {
              "internalType": "bytes32",
              "name": "id",
              "type": "bytes32"
            },
            {
              "internalType": "string",
              "name": "username",
              "type": "string"
            },
            {
              "internalType": "string",
              "name": "aboutMe",
              "type": "string"
            },
            {
              "internalType": "string",
              "name": "backgroundGradient",
              "type": "string"
            }
          ],
          "internalType": "struct PleaseFundMe_v3.User[]",
          "name": "",
          "type": "tuple[]"
        }
      ],
      "stateMutability": "view",
      "type": "function",
      "constant": true
    },
    {
      "inputs": [
        {
          "internalType": "bytes32",
          "name": "_id",
          "type": "bytes32"
        }
      ],
      "name": "getAccountByid",
      "outputs": [
        {
          "components": [
            {
              "internalType": "address",
              "name": "owner",
              "type": "address"
            },
            {
              "internalType": "bytes32",
              "name": "id",
              "type": "bytes32"
            },
            {
              "internalType": "string",
              "name": "username",
              "type": "string"
            },
            {
              "internalType": "string",
              "name": "aboutMe",
              "type": "string"
            },
            {
              "internalType": "string",
              "name": "backgroundGradient",
              "type": "string"
            }
          ],
          "internalType": "struct PleaseFundMe_v3.User",
          "name": "",
          "type": "tuple"
        }
      ],
      "stateMutability": "view",
      "type": "function",
      "constant": true
    },
    {
      "inputs": [],
      "name": "getUserIndex",
      "outputs": [
        {
          "internalType": "bytes32[]",
          "name": "",
          "type": "bytes32[]"
        }
      ],
      "stateMutability": "view",
      "type": "function",
      "constant": true
    },
    {
      "inputs": [],
      "name": "getUserCount",
      "outputs": [
        {
          "internalType": "uint256",
          "name": "",
          "type": "uint256"
        }
      ],
      "stateMutability": "view",
      "type": "function",
      "constant": true
    },
    {
      "inputs": [],
      "name": "getUserId",
      "outputs": [
        {
          "internalType": "bytes32",
          "name": "",
          "type": "bytes32"
        }
      ],
      "stateMutability": "view",
      "type": "function",
      "constant": true
    },
    {
      "inputs": [
        {
          "internalType": "string",
          "name": "_username",
          "type": "string"
        },
        {
          "internalType": "string",
          "name": "_aboutMe",
          "type": "string"
        },
        {
          "internalType": "string",
          "name": "_backgroundGradient",
          "type": "string"
        }
      ],
      "name": "createHomePage",
      "outputs": [],
      "stateMutability": "nonpayable",
      "type": "function"
    },
    {
      "inputs": [
        {
          "internalType": "string",
          "name": "_username",
          "type": "string"
        },
        {
          "internalType": "string",
          "name": "_aboutMe",
          "type": "string"
        },
        {
          "internalType": "string",
          "name": "_backgroundGradient",
          "type": "string"
        }
      ],
      "name": "updateHomePage",
      "outputs": [],
      "stateMutability": "nonpayable",
      "type": "function"
    },
    {
      "inputs": [
        {
          "internalType": "string",
          "name": "_title",
          "type": "string"
        },
        {
          "internalType": "uint256",
          "name": "_fundTarget",
          "type": "uint256"
        },
        {
          "internalType": "string",
          "name": "_description",
          "type": "string"
        },
        {
          "internalType": "uint256",
          "name": "_endDate",
          "type": "uint256"
        }
      ],
      "name": "createFunder",
      "outputs": [],
      "stateMutability": "nonpayable",
      "type": "function"
    },
    {
      "inputs": [
        {
          "internalType": "bytes32",
          "name": "_funderId",
          "type": "bytes32"
        },
        {
          "internalType": "string",
          "name": "_title",
          "type": "string"
        },
        {
          "internalType": "uint256",
          "name": "_fundTarget",
          "type": "uint256"
        },
        {
          "internalType": "string",
          "name": "_description",
          "type": "string"
        },
        {
          "internalType": "uint256",
          "name": "_endDate",
          "type": "uint256"
        }
      ],
      "name": "updateFunder",
      "outputs": [],
      "stateMutability": "nonpayable",
      "type": "function"
    },
    {
      "inputs": [
        {
          "internalType": "bytes32",
          "name": "_userId",
          "type": "bytes32"
        }
      ],
      "name": "getUserFunders",
      "outputs": [
        {
          "components": [
            {
              "internalType": "address",
              "name": "owner",
              "type": "address"
            },
            {
              "internalType": "bytes32",
              "name": "id",
              "type": "bytes32"
            },
            {
              "internalType": "uint256",
              "name": "startDate",
              "type": "uint256"
            },
            {
              "internalType": "uint256",
              "name": "endDate",
              "type": "uint256"
            },
            {
              "internalType": "uint256",
              "name": "updatedAt",
              "type": "uint256"
            },
            {
              "internalType": "string",
              "name": "title",
              "type": "string"
            },
            {
              "internalType": "string",
              "name": "description",
              "type": "string"
            },
            {
              "internalType": "uint256",
              "name": "fundTarget",
              "type": "uint256"
            },
            {
              "internalType": "uint256",
              "name": "fundBalance",
              "type": "uint256"
            },
            {
              "internalType": "uint256",
              "name": "amountRaised",
              "type": "uint256"
            }
          ],
          "internalType": "struct PleaseFundMe_v3.Funder[]",
          "name": "",
          "type": "tuple[]"
        }
      ],
      "stateMutability": "view",
      "type": "function",
      "constant": true
    },
    {
      "inputs": [],
      "name": "getAllFunders",
      "outputs": [
        {
          "components": [
            {
              "internalType": "address",
              "name": "owner",
              "type": "address"
            },
            {
              "internalType": "bytes32",
              "name": "id",
              "type": "bytes32"
            },
            {
              "internalType": "uint256",
              "name": "startDate",
              "type": "uint256"
            },
            {
              "internalType": "uint256",
              "name": "endDate",
              "type": "uint256"
            },
            {
              "internalType": "uint256",
              "name": "updatedAt",
              "type": "uint256"
            },
            {
              "internalType": "string",
              "name": "title",
              "type": "string"
            },
            {
              "internalType": "string",
              "name": "description",
              "type": "string"
            },
            {
              "internalType": "uint256",
              "name": "fundTarget",
              "type": "uint256"
            },
            {
              "internalType": "uint256",
              "name": "fundBalance",
              "type": "uint256"
            },
            {
              "internalType": "uint256",
              "name": "amountRaised",
              "type": "uint256"
            }
          ],
          "internalType": "struct PleaseFundMe_v3.Funder[]",
          "name": "",
          "type": "tuple[]"
        }
      ],
      "stateMutability": "view",
      "type": "function",
      "constant": true
    },
    {
      "inputs": [
        {
          "internalType": "bytes32",
          "name": "_funderId",
          "type": "bytes32"
        }
      ],
      "name": "getFunderById",
      "outputs": [
        {
          "components": [
            {
              "internalType": "address",
              "name": "owner",
              "type": "address"
            },
            {
              "internalType": "bytes32",
              "name": "id",
              "type": "bytes32"
            },
            {
              "internalType": "uint256",
              "name": "startDate",
              "type": "uint256"
            },
            {
              "internalType": "uint256",
              "name": "endDate",
              "type": "uint256"
            },
            {
              "internalType": "uint256",
              "name": "updatedAt",
              "type": "uint256"
            },
            {
              "internalType": "string",
              "name": "title",
              "type": "string"
            },
            {
              "internalType": "string",
              "name": "description",
              "type": "string"
            },
            {
              "internalType": "uint256",
              "name": "fundTarget",
              "type": "uint256"
            },
            {
              "internalType": "uint256",
              "name": "fundBalance",
              "type": "uint256"
            },
            {
              "internalType": "uint256",
              "name": "amountRaised",
              "type": "uint256"
            }
          ],
          "internalType": "struct PleaseFundMe_v3.Funder",
          "name": "",
          "type": "tuple"
        }
      ],
      "stateMutability": "view",
      "type": "function",
      "constant": true
    },
    {
      "inputs": [
        {
          "internalType": "bytes32",
          "name": "_funderId",
          "type": "bytes32"
        },
        {
          "internalType": "string",
          "name": "_message",
          "type": "string"
        }
      ],
      "name": "contribute",
      "outputs": [],
      "stateMutability": "payable",
      "type": "function",
      "payable": true
    },
    {
      "inputs": [
        {
          "internalType": "bytes32",
          "name": "_funderId",
          "type": "bytes32"
        }
      ],
      "name": "getFunderContributions",
      "outputs": [
        {
          "components": [
            {
              "internalType": "bytes32",
              "name": "id",
              "type": "bytes32"
            },
            {
              "internalType": "uint256",
              "name": "timeCreated",
              "type": "uint256"
            },
            {
              "internalType": "address",
              "name": "contributer",
              "type": "address"
            },
            {
              "internalType": "uint256",
              "name": "amount",
              "type": "uint256"
            },
            {
              "internalType": "string",
              "name": "message",
              "type": "string"
            }
          ],
          "internalType": "struct PleaseFundMe_v3.Contribution[]",
          "name": "",
          "type": "tuple[]"
        }
      ],
      "stateMutability": "view",
      "type": "function",
      "constant": true
    },
    {
      "inputs": [],
      "name": "getAllContributions",
      "outputs": [
        {
          "components": [
            {
              "internalType": "bytes32",
              "name": "id",
              "type": "bytes32"
            },
            {
              "internalType": "uint256",
              "name": "timeCreated",
              "type": "uint256"
            },
            {
              "internalType": "address",
              "name": "contributer",
              "type": "address"
            },
            {
              "internalType": "uint256",
              "name": "amount",
              "type": "uint256"
            },
            {
              "internalType": "string",
              "name": "message",
              "type": "string"
            }
          ],
          "internalType": "struct PleaseFundMe_v3.Contribution[]",
          "name": "",
          "type": "tuple[]"
        }
      ],
      "stateMutability": "view",
      "type": "function",
      "constant": true
    },
    {
      "inputs": [
        {
          "internalType": "bytes32",
          "name": "_funderId",
          "type": "bytes32"
        }
      ],
      "name": "withdraw",
      "outputs": [],
      "stateMutability": "payable",
      "type": "function",
      "payable": true
    }
  ],
  "bytecode": "0x60806040523480156200001157600080fd5b50620000c5336040518060400160405280600381526020017f64657600000000000000000000000000000000000000000000000000000000008152506040518060400160405280600e81526020017f646576656c6f70657220706167650000000000000000000000000000000000008152506040518060400160405280600481526020017f626c7565000000000000000000000000000000000000000000000000000000008152506200010c60201b60201c565b33600b60006101000a81548173ffffffffffffffffffffffffffffffffffffffff021916908373ffffffffffffffffffffffffffffffffffffffff16021790555062000614565b6000428585858560405160200162000129959493929190620004ab565b6040516020818303038152906040528051906020012090506200014b620002fd565b6040518060a001604052808773ffffffffffffffffffffffffffffffffffffffff168152602001838152602001868152602001858152602001848152509050806003600084815260200190815260200160002060008201518160000160006101000a81548173ffffffffffffffffffffffffffffffffffffffff021916908373ffffffffffffffffffffffffffffffffffffffff1602179055506020820151816001015560408201518160020190805190602001906200020d92919062000345565b5060608201518160030190805190602001906200022c92919062000345565b5060808201518160040190805190602001906200024b92919062000345565b5090505081600760008873ffffffffffffffffffffffffffffffffffffffff1673ffffffffffffffffffffffffffffffffffffffff1681526020019081526020016000208190555060048290806001815401808255809150506001900390600052602060002001600090919091909150557f0e11c19254e459389b3807518c61779a0f27b49f561ef1b03caac6f648ff58bf86604051620002ed919062000508565b60405180910390a1505050505050565b6040518060a00160405280600073ffffffffffffffffffffffffffffffffffffffff168152602001600080191681526020016060815260200160608152602001606081525090565b828054600181600116156101000203166002900490600052602060002090601f016020900481019282601f106200038857805160ff1916838001178555620003b9565b82800160010185558215620003b9579182015b82811115620003b85782518255916020019190600101906200039b565b5b509050620003c89190620003cc565b5090565b5b80821115620003e7576000816000905550600101620003cd565b5090565b620003f68162000561565b82525050565b620004116200040b8262000561565b620005d5565b82525050565b600062000424826200053a565b62000430818562000556565b9350620004428185602086016200059f565b80840191505092915050565b60006200045d600f8362000545565b91507f6163636f756e74206372656174656400000000000000000000000000000000006000830152602082019050919050565b620004a56200049f8262000595565b620005fd565b82525050565b6000620004b9828862000490565b602082019150620004cb8287620003fc565b601482019150620004dd828662000417565b9150620004eb828562000417565b9150620004f9828462000417565b91508190509695505050505050565b60006040820190506200051f6000830184620003eb565b818103602083015262000532816200044e565b905092915050565b600081519050919050565b600082825260208201905092915050565b600081905092915050565b60006200056e8262000575565b9050919050565b600073ffffffffffffffffffffffffffffffffffffffff82169050919050565b6000819050919050565b60005b83811015620005bf578082015181840152602081019050620005a2565b83811115620005cf576000848401525b50505050565b6000620005e282620005e9565b9050919050565b6000620005f68262000607565b9050919050565b6000819050919050565b60008160601b9050919050565b613d3180620006246000396000f3fe6080604052600436106101095760003560e01c80638a48ac0311610095578063b6b762b411610064578063b6b762b41461034a578063b732e43914610387578063e7ac8c45146103b0578063eefa499d146103ed578063f1b6a2e21461040957610109565b80638a48ac031461029b5780638e19899e146102c6578063a7bac69f146102e2578063b5cb15f71461031f57610109565b806337f3061d116100dc57806337f3061d146101b45780634c36b99f146101df5780635c7561be146102085780636ec0c8aa146102455780636fbbb55d1461027057610109565b806304712d911461010e5780630bbda5e5146101375780632836b3c3146101605780632ebcb65314610189575b600080fd5b34801561011a57600080fd5b5061013560048036038101906101309190612bc2565b610446565b005b34801561014357600080fd5b5061015e60048036038101906101599190612a84565b61053a565b005b34801561016c57600080fd5b5061018760048036038101906101829190612a07565b61070e565b005b34801561019557600080fd5b5061019e61083f565b6040516101ab91906138d0565b60405180910390f35b3480156101c057600080fd5b506101c9610886565b6040516101d6919061386a565b60405180910390f35b3480156101eb57600080fd5b5061020660048036038101906102019190612b2b565b610a6a565b005b34801561021457600080fd5b5061022f600480360381019061022a9190612a07565b610bda565b60405161023c91906138ae565b60405180910390f35b34801561025157600080fd5b5061025a610f13565b6040516102679190613848565b60405180910390f35b34801561027c57600080fd5b50610285610f6b565b604051610292919061388c565b60405180910390f35b3480156102a757600080fd5b506102b061121b565b6040516102bd91906138ae565b60405180910390f35b6102e060048036038101906102db9190612a07565b611530565b005b3480156102ee57600080fd5b5061030960048036038101906103049190612a07565b611736565b604051610316919061388c565b60405180910390f35b34801561032b57600080fd5b50610334611a0a565b6040516103419190613a0f565b60405180910390f35b34801561035657600080fd5b50610371600480360381019061036c9190612a07565b611a17565b60405161037e91906139cb565b60405180910390f35b34801561039357600080fd5b506103ae60048036038101906103a99190612b2b565b611c25565b005b3480156103bc57600080fd5b506103d760048036038101906103d29190612a07565b611d51565b6040516103e4919061386a565b60405180910390f35b61040760048036038101906104029190612a30565b611f59565b005b34801561041557600080fd5b50610430600480360381019061042b9190612a07565b612141565b60405161043d91906139ed565b60405180910390f35b6000600760003373ffffffffffffffffffffffffffffffffffffffff1673ffffffffffffffffffffffffffffffffffffffff1681526020019081526020016000205490506000801b81141561052657600b60009054906101000a900473ffffffffffffffffffffffffffffffffffffffff1673ffffffffffffffffffffffffffffffffffffffff163373ffffffffffffffffffffffffffffffffffffffff1614610525576040517f08c379a000000000000000000000000000000000000000000000000000000000815260040161051c9061392b565b60405180910390fd5b5b61053333868686866123b4565b5050505050565b60003390506000600760008373ffffffffffffffffffffffffffffffffffffffff1673ffffffffffffffffffffffffffffffffffffffff1681526020019081526020016000205490508173ffffffffffffffffffffffffffffffffffffffff166003600083815260200190815260200160002060000160009054906101000a900473ffffffffffffffffffffffffffffffffffffffff1673ffffffffffffffffffffffffffffffffffffffff1614610627576040517f08c379a000000000000000000000000000000000000000000000000000000000815260040161061e906138eb565b60405180910390fd5b856008600089815260200190815260200160002060050190805190602001906106519291906127f0565b508360086000898152602001908152602001600020600601908051906020019061067c9291906127f0565b508460086000898152602001908152602001600020600701819055508260086000898152602001908152602001600020600301819055504260086000898152602001908152602001600020600401819055507f0e11c19254e459389b3807518c61779a0f27b49f561ef1b03caac6f648ff58bf826040516106fd91906137be565b60405180910390a150505050505050565b6000600760003373ffffffffffffffffffffffffffffffffffffffff1673ffffffffffffffffffffffffffffffffffffffff16815260200190815260200160002054905060066000828152602001908152602001600020600083815260200190815260200160002060009054906101000a900460ff16156107c4576040517f08c379a00000000000000000000000000000000000000000000000000000000081526004016107bb9061390b565b60405180910390fd5b60056000828152602001908152602001600020829080600181540180825580915050600190039060005260206000200160009091909190915055600160066000838152602001908152602001600020600084815260200190815260200160002060006101000a81548160ff0219169083151502179055505050565b6000600760003373ffffffffffffffffffffffffffffffffffffffff1673ffffffffffffffffffffffffffffffffffffffff16815260200190815260200160002054905090565b60606000600280549050905060608167ffffffffffffffff811180156108ab57600080fd5b506040519080825280602002602001820160405280156108e557816020015b6108d2612870565b8152602001906001900390816108ca5790505b50905060005b82811015610a61576000806002838154811061090357fe5b906000526020600020015481526020019081526020016000206040518060a001604052908160008201548152602001600182015481526020016002820160009054906101000a900473ffffffffffffffffffffffffffffffffffffffff1673ffffffffffffffffffffffffffffffffffffffff1673ffffffffffffffffffffffffffffffffffffffff16815260200160038201548152602001600482018054600181600116156101000203166002900480601f016020809104026020016040519081016040528092919081815260200182805460018160011615610100020316600290048015610a345780601f10610a0957610100808354040283529160200191610a34565b820191906000526020600020905b815481529060010190602001808311610a1757829003601f168201915b505050505081525050828281518110610a4957fe5b602002602001018190525080806001019150506108eb565b50809250505090565b6000600760003373ffffffffffffffffffffffffffffffffffffffff1673ffffffffffffffffffffffffffffffffffffffff1681526020019081526020016000205490503373ffffffffffffffffffffffffffffffffffffffff166003600083815260200190815260200160002060000160009054906101000a900473ffffffffffffffffffffffffffffffffffffffff1673ffffffffffffffffffffffffffffffffffffffff1614610b1c57600080fd5b83600360008381526020019081526020016000206002019080519060200190610b469291906127f0565b5082600360008381526020019081526020016000206003019080519060200190610b719291906127f0565b5081600360008381526020019081526020016000206004019080519060200190610b9c9291906127f0565b507f0e11c19254e459389b3807518c61779a0f27b49f561ef1b03caac6f648ff58bf33604051610bcc9190613790565b60405180910390a150505050565b606060006005600084815260200190815260200160002080549050905060608167ffffffffffffffff81118015610c1057600080fd5b50604051908082528060200260200182016040528015610c4a57816020015b610c376128b8565b815260200190600190039081610c2f5790505b50905060005b82811015610f085760036000600560008881526020019081526020016000208381548110610c7a57fe5b906000526020600020015481526020019081526020016000206040518060a00160405290816000820160009054906101000a900473ffffffffffffffffffffffffffffffffffffffff1673ffffffffffffffffffffffffffffffffffffffff1673ffffffffffffffffffffffffffffffffffffffff16815260200160018201548152602001600282018054600181600116156101000203166002900480601f016020809104026020016040519081016040528092919081815260200182805460018160011615610100020316600290048015610d975780601f10610d6c57610100808354040283529160200191610d97565b820191906000526020600020905b815481529060010190602001808311610d7a57829003601f168201915b50505050508152602001600382018054600181600116156101000203166002900480601f016020809104026020016040519081016040528092919081815260200182805460018160011615610100020316600290048015610e395780601f10610e0e57610100808354040283529160200191610e39565b820191906000526020600020905b815481529060010190602001808311610e1c57829003601f168201915b50505050508152602001600482018054600181600116156101000203166002900480601f016020809104026020016040519081016040528092919081815260200182805460018160011615610100020316600290048015610edb5780601f10610eb057610100808354040283529160200191610edb565b820191906000526020600020905b815481529060010190602001808311610ebe57829003601f168201915b505050505081525050828281518110610ef057fe5b60200260200101819052508080600101915050610c50565b508092505050919050565b60606004805480602002602001604051908101604052809291908181526020018280548015610f6157602002820191906000526020600020905b815481526020019060010190808311610f4d575b5050505050905090565b60606000600980549050905060608167ffffffffffffffff81118015610f9057600080fd5b50604051908082528060200260200182016040528015610fca57816020015b610fb7612900565b815260200190600190039081610faf5790505b50905060005b82811015611212576008600060098381548110610fe957fe5b90600052602060002001548152602001908152602001600020604051806101400160405290816000820160009054906101000a900473ffffffffffffffffffffffffffffffffffffffff1673ffffffffffffffffffffffffffffffffffffffff1673ffffffffffffffffffffffffffffffffffffffff16815260200160018201548152602001600282015481526020016003820154815260200160048201548152602001600582018054600181600116156101000203166002900480601f0160208091040260200160405190810160405280929190818152602001828054600181600116156101000203166002900480156111255780601f106110fa57610100808354040283529160200191611125565b820191906000526020600020905b81548152906001019060200180831161110857829003601f168201915b50505050508152602001600682018054600181600116156101000203166002900480601f0160208091040260200160405190810160405280929190818152602001828054600181600116156101000203166002900480156111c75780601f1061119c576101008083540402835291602001916111c7565b820191906000526020600020905b8154815290600101906020018083116111aa57829003601f168201915b5050505050815260200160078201548152602001600882015481526020016009820154815250508282815181106111fa57fe5b60200260200101819052508080600101915050610fd0565b50809250505090565b60606000600480549050905060608167ffffffffffffffff8111801561124057600080fd5b5060405190808252806020026020018201604052801561127a57816020015b6112676128b8565b81526020019060019003908161125f5790505b50905060005b8281101561152757600360006004838154811061129957fe5b906000526020600020015481526020019081526020016000206040518060a00160405290816000820160009054906101000a900473ffffffffffffffffffffffffffffffffffffffff1673ffffffffffffffffffffffffffffffffffffffff1673ffffffffffffffffffffffffffffffffffffffff16815260200160018201548152602001600282018054600181600116156101000203166002900480601f0160208091040260200160405190810160405280929190818152602001828054600181600116156101000203166002900480156113b65780601f1061138b576101008083540402835291602001916113b6565b820191906000526020600020905b81548152906001019060200180831161139957829003601f168201915b50505050508152602001600382018054600181600116156101000203166002900480601f0160208091040260200160405190810160405280929190818152602001828054600181600116156101000203166002900480156114585780601f1061142d57610100808354040283529160200191611458565b820191906000526020600020905b81548152906001019060200180831161143b57829003601f168201915b50505050508152602001600482018054600181600116156101000203166002900480601f0160208091040260200160405190810160405280929190818152602001828054600181600116156101000203166002900480156114fa5780601f106114cf576101008083540402835291602001916114fa565b820191906000526020600020905b8154815290600101906020018083116114dd57829003601f168201915b50505050508152505082828151811061150f57fe5b60200260200101819052508080600101915050611280565b50809250505090565b600060086000838152602001908152602001600020905060008160080154905060006103e8828161155d57fe5b04905060008183039050600083116115aa576040517f08c379a00000000000000000000000000000000000000000000000000000000081526004016115a19061398b565b60405180910390fd5b3373ffffffffffffffffffffffffffffffffffffffff168460000160009054906101000a900473ffffffffffffffffffffffffffffffffffffffff1673ffffffffffffffffffffffffffffffffffffffff161461163c576040517f08c379a00000000000000000000000000000000000000000000000000000000081526004016116339061396b565b60405180910390fd5b60008460080181905550600b60009054906101000a900473ffffffffffffffffffffffffffffffffffffffff1673ffffffffffffffffffffffffffffffffffffffff166108fc839081150290604051600060405180830381858888f193505050501580156116ae573d6000803e3d6000fd5b503373ffffffffffffffffffffffffffffffffffffffff166108fc829081150290604051600060405180830381858888f193505050501580156116f5573d6000803e3d6000fd5b507fd93c084e37bf10c65c239ce1ece74b50538195ba956376f7308ba91179bd17af3382604051611727929190613754565b60405180910390a15050505050565b60606000600a600084815260200190815260200160002080549050905060608167ffffffffffffffff8111801561176c57600080fd5b506040519080825280602002602001820160405280156117a657816020015b611793612900565b81526020019060019003908161178b5790505b50905060005b828110156119ff5760086000600a600088815260200190815260200160002083815481106117d657fe5b90600052602060002001548152602001908152602001600020604051806101400160405290816000820160009054906101000a900473ffffffffffffffffffffffffffffffffffffffff1673ffffffffffffffffffffffffffffffffffffffff1673ffffffffffffffffffffffffffffffffffffffff16815260200160018201548152602001600282015481526020016003820154815260200160048201548152602001600582018054600181600116156101000203166002900480601f0160208091040260200160405190810160405280929190818152602001828054600181600116156101000203166002900480156119125780601f106118e757610100808354040283529160200191611912565b820191906000526020600020905b8154815290600101906020018083116118f557829003601f168201915b50505050508152602001600682018054600181600116156101000203166002900480601f0160208091040260200160405190810160405280929190818152602001828054600181600116156101000203166002900480156119b45780601f10611989576101008083540402835291602001916119b4565b820191906000526020600020905b81548152906001019060200180831161199757829003601f168201915b5050505050815260200160078201548152602001600882015481526020016009820154815250508282815181106119e757fe5b602002602001018190525080806001019150506117ac565b508092505050919050565b6000600480549050905090565b611a1f612900565b60086000838152602001908152602001600020604051806101400160405290816000820160009054906101000a900473ffffffffffffffffffffffffffffffffffffffff1673ffffffffffffffffffffffffffffffffffffffff1673ffffffffffffffffffffffffffffffffffffffff16815260200160018201548152602001600282015481526020016003820154815260200160048201548152602001600582018054600181600116156101000203166002900480601f016020809104026020016040519081016040528092919081815260200182805460018160011615610100020316600290048015611b555780601f10611b2a57610100808354040283529160200191611b55565b820191906000526020600020905b815481529060010190602001808311611b3857829003601f168201915b50505050508152602001600682018054600181600116156101000203166002900480601f016020809104026020016040519081016040528092919081815260200182805460018160011615610100020316600290048015611bf75780601f10611bcc57610100808354040283529160200191611bf7565b820191906000526020600020905b815481529060010190602001808311611bda57829003601f168201915b5050505050815260200160078201548152602001600882015481526020016009820154815250509050919050565b6000600760003373ffffffffffffffffffffffffffffffffffffffff1673ffffffffffffffffffffffffffffffffffffffff168152602001908152602001600020549050600b60009054906101000a900473ffffffffffffffffffffffffffffffffffffffff1673ffffffffffffffffffffffffffffffffffffffff163373ffffffffffffffffffffffffffffffffffffffff161415611cfa576040517f08c379a0000000000000000000000000000000000000000000000000000000008152600401611cf19061394b565b60405180910390fd5b6000801b8114611d3f576040517f08c379a0000000000000000000000000000000000000000000000000000000008152600401611d36906139ab565b60405180910390fd5b611d4b3385858561260b565b50505050565b606060006001600084815260200190815260200160002080549050905060608167ffffffffffffffff81118015611d8757600080fd5b50604051908082528060200260200182016040528015611dc157816020015b611dae612870565b815260200190600190039081611da65790505b50905060005b82811015611f4e57600080600160008881526020019081526020016000208381548110611df057fe5b906000526020600020015481526020019081526020016000206040518060a001604052908160008201548152602001600182015481526020016002820160009054906101000a900473ffffffffffffffffffffffffffffffffffffffff1673ffffffffffffffffffffffffffffffffffffffff1673ffffffffffffffffffffffffffffffffffffffff16815260200160038201548152602001600482018054600181600116156101000203166002900480601f016020809104026020016040519081016040528092919081815260200182805460018160011615610100020316600290048015611f215780601f10611ef657610100808354040283529160200191611f21565b820191906000526020600020905b815481529060010190602001808311611f0457829003601f168201915b505050505081525050828281518110611f3657fe5b60200260200101819052508080600101915050611dc7565b508092505050919050565b60003490506000600860008581526020019081526020016000209050818160080160008282540192505081905550818160090160008282540192505081905550600042333486604051602001611fb29493929190613624565b6040516020818303038152906040528051906020012090506040518060a001604052808281526020014281526020013373ffffffffffffffffffffffffffffffffffffffff16815260200134815260200185815250600080838152602001908152602001600020600082015181600001556020820151816001015560408201518160020160006101000a81548173ffffffffffffffffffffffffffffffffffffffff021916908373ffffffffffffffffffffffffffffffffffffffff16021790555060608201518160030155608082015181600401908051906020019061209a9291906127f0565b509050506001600086815260200190815260200160002081908060018154018082558091505060019003906000526020600020016000909190919091505560028190806001815401808255809150506001900390600052602060002001600090919091909150557fd93c084e37bf10c65c239ce1ece74b50538195ba956376f7308ba91179bd17af3334604051612132929190613718565b60405180910390a15050505050565b6121496128b8565b600360008381526020019081526020016000206040518060a00160405290816000820160009054906101000a900473ffffffffffffffffffffffffffffffffffffffff1673ffffffffffffffffffffffffffffffffffffffff1673ffffffffffffffffffffffffffffffffffffffff16815260200160018201548152602001600282018054600181600116156101000203166002900480601f0160208091040260200160405190810160405280929190818152602001828054600181600116156101000203166002900480156122605780601f1061223557610100808354040283529160200191612260565b820191906000526020600020905b81548152906001019060200180831161224357829003601f168201915b50505050508152602001600382018054600181600116156101000203166002900480601f0160208091040260200160405190810160405280929190818152602001828054600181600116156101000203166002900480156123025780601f106122d757610100808354040283529160200191612302565b820191906000526020600020905b8154815290600101906020018083116122e557829003601f168201915b50505050508152602001600482018054600181600116156101000203166002900480601f0160208091040260200160405190810160405280929190818152602001828054600181600116156101000203166002900480156123a45780601f10612379576101008083540402835291602001916123a4565b820191906000526020600020905b81548152906001019060200180831161238757829003601f168201915b5050505050815250509050919050565b6000600760008773ffffffffffffffffffffffffffffffffffffffff1673ffffffffffffffffffffffffffffffffffffffff168152602001908152602001600020549050600042878786886040516020016124139594939291906136c1565b6040516020818303038152906040528051906020012090506040518061014001604052808873ffffffffffffffffffffffffffffffffffffffff1681526020018281526020014281526020018481526020014281526020018781526020018581526020018681526020016000815260200160008152506008600083815260200190815260200160002060008201518160000160006101000a81548173ffffffffffffffffffffffffffffffffffffffff021916908373ffffffffffffffffffffffffffffffffffffffff1602179055506020820151816001015560408201518160020155606082015181600301556080820151816004015560a08201518160050190805190602001906125279291906127f0565b5060c08201518160060190805190602001906125449291906127f0565b5060e0820151816007015561010082015181600801556101208201518160090155905050600a600083815260200190815260200160002081908060018154018082558091505060019003906000526020600020016000909190919091505560098190806001815401808255809150506001900390600052602060002001600090919091909150557f0e11c19254e459389b3807518c61779a0f27b49f561ef1b03caac6f648ff58bf876040516125fa91906137ec565b60405180910390a150505050505050565b6000428585858560405160200161262695949392919061366e565b6040516020818303038152906040528051906020012090506126466128b8565b6040518060a001604052808773ffffffffffffffffffffffffffffffffffffffff168152602001838152602001868152602001858152602001848152509050806003600084815260200190815260200160002060008201518160000160006101000a81548173ffffffffffffffffffffffffffffffffffffffff021916908373ffffffffffffffffffffffffffffffffffffffff1602179055506020820151816001015560408201518160020190805190602001906127069291906127f0565b5060608201518160030190805190602001906127239291906127f0565b5060808201518160040190805190602001906127409291906127f0565b5090505081600760008873ffffffffffffffffffffffffffffffffffffffff1673ffffffffffffffffffffffffffffffffffffffff1681526020019081526020016000208190555060048290806001815401808255809150506001900390600052602060002001600090919091909150557f0e11c19254e459389b3807518c61779a0f27b49f561ef1b03caac6f648ff58bf866040516127e0919061381a565b60405180910390a1505050505050565b828054600181600116156101000203166002900490600052602060002090601f016020900481019282601f1061283157805160ff191683800117855561285f565b8280016001018555821561285f579182015b8281111561285e578251825591602001919060010190612843565b5b50905061286c919061296c565b5090565b6040518060a001604052806000801916815260200160008152602001600073ffffffffffffffffffffffffffffffffffffffff16815260200160008152602001606081525090565b6040518060a00160405280600073ffffffffffffffffffffffffffffffffffffffff168152602001600080191681526020016060815260200160608152602001606081525090565b604051806101400160405280600073ffffffffffffffffffffffffffffffffffffffff1681526020016000801916815260200160008152602001600081526020016000815260200160608152602001606081526020016000815260200160008152602001600081525090565b5b8082111561298557600081600090555060010161296d565b5090565b60008135905061299881613ccd565b92915050565b600082601f8301126129af57600080fd5b81356129c26129bd82613a57565b613a2a565b915080825260208301602083018583830111156129de57600080fd5b6129e9838284613c2d565b50505092915050565b600081359050612a0181613ce4565b92915050565b600060208284031215612a1957600080fd5b6000612a2784828501612989565b91505092915050565b60008060408385031215612a4357600080fd5b6000612a5185828601612989565b925050602083013567ffffffffffffffff811115612a6e57600080fd5b612a7a8582860161299e565b9150509250929050565b600080600080600060a08688031215612a9c57600080fd5b6000612aaa88828901612989565b955050602086013567ffffffffffffffff811115612ac757600080fd5b612ad38882890161299e565b9450506040612ae4888289016129f2565b935050606086013567ffffffffffffffff811115612b0157600080fd5b612b0d8882890161299e565b9250506080612b1e888289016129f2565b9150509295509295909350565b600080600060608486031215612b4057600080fd5b600084013567ffffffffffffffff811115612b5a57600080fd5b612b668682870161299e565b935050602084013567ffffffffffffffff811115612b8357600080fd5b612b8f8682870161299e565b925050604084013567ffffffffffffffff811115612bac57600080fd5b612bb88682870161299e565b9150509250925092565b60008060008060808587031215612bd857600080fd5b600085013567ffffffffffffffff811115612bf257600080fd5b612bfe8782880161299e565b9450506020612c0f878288016129f2565b935050604085013567ffffffffffffffff811115612c2c57600080fd5b612c388782880161299e565b9250506060612c49878288016129f2565b91505092959194509250565b6000612c618383612ec1565b60208301905092915050565b6000612c7983836132af565b905092915050565b6000612c8d8383613325565b905092915050565b6000612ca183836134e7565b905092915050565b612cb281613bf7565b82525050565b612cc9612cc482613bb1565b613c81565b82525050565b612cd881613b9f565b82525050565b612ce781613b9f565b82525050565b612cfe612cf982613b9f565b613c6f565b82525050565b6000612d0f82613ac3565b612d198185613b2e565b9350612d2483613a83565b8060005b83811015612d55578151612d3c8882612c55565b9750612d4783613afa565b925050600181019050612d28565b5085935050505092915050565b6000612d6d82613ace565b612d778185613b3f565b935083602082028501612d8985613a93565b8060005b85811015612dc55784840389528151612da68582612c6d565b9450612db183613b07565b925060208a01995050600181019050612d8d565b50829750879550505050505092915050565b6000612de282613ad9565b612dec8185613b50565b935083602082028501612dfe85613aa3565b8060005b85811015612e3a5784840389528151612e1b8582612c81565b9450612e2683613b14565b925060208a01995050600181019050612e02565b50829750879550505050505092915050565b6000612e5782613ae4565b612e618185613b61565b935083602082028501612e7385613ab3565b8060005b85811015612eaf5784840389528151612e908582612c95565b9450612e9b83613b21565b925060208a01995050600181019050612e77565b50829750879550505050505092915050565b612eca81613bc3565b82525050565b612ed981613bc3565b82525050565b6000612eea82613aef565b612ef48185613b72565b9350612f04818560208601613c3c565b612f0d81613caf565b840191505092915050565b6000612f2382613aef565b612f2d8185613b94565b9350612f3d818560208601613c3c565b80840191505092915050565b6000612f56601783613b83565b91507f636f6e747269627574696f6e207375636365737366756c0000000000000000006000830152602082019050919050565b6000612f96600e83613b83565b91507f66756e64657220757064617465640000000000000000000000000000000000006000830152602082019050919050565b6000612fd6601583613b83565b91507f7769746864726177616c207375636365737366756c00000000000000000000006000830152602082019050919050565b6000613016601783613b83565b91507f6d757374206265206f776e657220746f207570646174650000000000000000006000830152602082019050919050565b6000613056601483613b83565b91507f667269656e6420616c72656164792061646465640000000000000000000000006000830152602082019050919050565b6000613096602c83613b83565b91507f6d7573742063726561746520686f6d652070616765206265666f72652063726560008301527f6174696e672066756e64657200000000000000000000000000000000000000006020830152604082019050919050565b60006130fc601b83613b83565b91507f64657620616c726561647920686173206120686f6d65207061676500000000006000830152602082019050919050565b600061313c600c83613b83565b91507f756e617574686f72697a656400000000000000000000000000000000000000006000830152602082019050919050565b600061317c600f83613b83565b91507f6163636f756e74207570646174656400000000000000000000000000000000006000830152602082019050919050565b60006131bc600e83613b83565b91507f66756e64657220637265617465640000000000000000000000000000000000006000830152602082019050919050565b60006131fc600f83613b83565b91507f6163636f756e74206372656174656400000000000000000000000000000000006000830152602082019050919050565b600061323c601483613b83565b91507f6e6f2066756e647320746f2077697468647261770000000000000000000000006000830152602082019050919050565b600061327c601c83613b83565b91507f7573657220616c726561647920686173206120686f6d652070616765000000006000830152602082019050919050565b600060a0830160008301516132c76000860182612ec1565b5060208301516132da60208601826135ef565b5060408301516132ed6040860182612ccf565b50606083015161330060608601826135ef565b50608083015184820360808601526133188282612edf565b9150508091505092915050565b60006101408301600083015161333e6000860182612ccf565b5060208301516133516020860182612ec1565b50604083015161336460408601826135ef565b50606083015161337760608601826135ef565b50608083015161338a60808601826135ef565b5060a083015184820360a08601526133a28282612edf565b91505060c083015184820360c08601526133bc8282612edf565b91505060e08301516133d160e08601826135ef565b506101008301516133e66101008601826135ef565b506101208301516133fb6101208601826135ef565b508091505092915050565b60006101408301600083015161341f6000860182612ccf565b5060208301516134326020860182612ec1565b50604083015161344560408601826135ef565b50606083015161345860608601826135ef565b50608083015161346b60808601826135ef565b5060a083015184820360a08601526134838282612edf565b91505060c083015184820360c086015261349d8282612edf565b91505060e08301516134b260e08601826135ef565b506101008301516134c76101008601826135ef565b506101208301516134dc6101208601826135ef565b508091505092915050565b600060a0830160008301516134ff6000860182612ccf565b5060208301516135126020860182612ec1565b506040830151848203604086015261352a8282612edf565b915050606083015184820360608601526135448282612edf565b9150506080830151848203608086015261355e8282612edf565b9150508091505092915050565b600060a0830160008301516135836000860182612ccf565b5060208301516135966020860182612ec1565b50604083015184820360408601526135ae8282612edf565b915050606083015184820360608601526135c88282612edf565b915050608083015184820360808601526135e28282612edf565b9150508091505092915050565b6135f881613bed565b82525050565b61360781613bed565b82525050565b61361e61361982613bed565b613ca5565b82525050565b6000613630828761360d565b6020820191506136408286612cb8565b601482019150613650828561360d565b6020820191506136608284612f18565b915081905095945050505050565b600061367a828861360d565b60208201915061368a8287612ced565b60148201915061369a8286612f18565b91506136a68285612f18565b91506136b28284612f18565b91508190509695505050505050565b60006136cd828861360d565b6020820191506136dd8287612ced565b6014820191506136ed8286612f18565b91506136f98285612f18565b9150613705828461360d565b6020820191508190509695505050505050565b600060608201905061372d6000830185612ca9565b818103602083015261373e81612f49565b905061374d60408301846135fe565b9392505050565b60006060820190506137696000830185612ca9565b818103602083015261377a81612fc9565b905061378960408301846135fe565b9392505050565b60006040820190506137a56000830184612ca9565b81810360208301526137b68161316f565b905092915050565b60006040820190506137d36000830184612cde565b81810360208301526137e481612f89565b905092915050565b60006040820190506138016000830184612cde565b8181036020830152613812816131af565b905092915050565b600060408201905061382f6000830184612cde565b8181036020830152613840816131ef565b905092915050565b600060208201905081810360008301526138628184612d04565b905092915050565b600060208201905081810360008301526138848184612d62565b905092915050565b600060208201905081810360008301526138a68184612dd7565b905092915050565b600060208201905081810360008301526138c88184612e4c565b905092915050565b60006020820190506138e56000830184612ed0565b92915050565b6000602082019050818103600083015261390481613009565b9050919050565b6000602082019050818103600083015261392481613049565b9050919050565b6000602082019050818103600083015261394481613089565b9050919050565b60006020820190508181036000830152613964816130ef565b9050919050565b600060208201905081810360008301526139848161312f565b9050919050565b600060208201905081810360008301526139a48161322f565b9050919050565b600060208201905081810360008301526139c48161326f565b9050919050565b600060208201905081810360008301526139e58184613406565b905092915050565b60006020820190508181036000830152613a07818461356b565b905092915050565b6000602082019050613a2460008301846135fe565b92915050565b6000604051905081810181811067ffffffffffffffff82111715613a4d57600080fd5b8060405250919050565b600067ffffffffffffffff821115613a6e57600080fd5b601f19601f8301169050602081019050919050565b6000819050602082019050919050565b6000819050602082019050919050565b6000819050602082019050919050565b6000819050602082019050919050565b600081519050919050565b600081519050919050565b600081519050919050565b600081519050919050565b600081519050919050565b6000602082019050919050565b6000602082019050919050565b6000602082019050919050565b6000602082019050919050565b600082825260208201905092915050565b600082825260208201905092915050565b600082825260208201905092915050565b600082825260208201905092915050565b600082825260208201905092915050565b600082825260208201905092915050565b600081905092915050565b6000613baa82613bcd565b9050919050565b6000613bbc82613bcd565b9050919050565b6000819050919050565b600073ffffffffffffffffffffffffffffffffffffffff82169050919050565b6000819050919050565b6000613c0282613c09565b9050919050565b6000613c1482613c1b565b9050919050565b6000613c2682613bcd565b9050919050565b82818337600083830152505050565b60005b83811015613c5a578082015181840152602081019050613c3f565b83811115613c69576000848401525b50505050565b6000613c7a82613c93565b9050919050565b6000613c8c82613c93565b9050919050565b6000613c9e82613cc0565b9050919050565b6000819050919050565b6000601f19601f8301169050919050565b60008160601b9050919050565b613cd681613bc3565b8114613ce157600080fd5b50565b613ced81613bed565b8114613cf857600080fd5b5056fea26469706673582212200f946fc301abcda1f6414987c3196da16e189f96caae5d43f9edf8466d92b7d464736f6c63430007000033",
  "immutableReferences": {},
  "source": "pragma solidity >=0.7.0 <0.8.0;\npragma experimental ABIEncoderV2;\n\ncontract PleaseFundMe_v3 {\n    event InteractionSuccess(address sender, string message);\n    event TransferSuccess(address sender, string transaction, uint amount);\n    \n    struct Funder {\n        address owner;\n        bytes32 id;\n        uint startDate;\n        uint endDate;\n        uint updatedAt;\n        string title;\n        string description;\n        uint fundTarget;\n        uint fundBalance;\n        uint amountRaised;\n    }\n    \n    struct User {\n        address owner;\n        bytes32 id;\n        string username;\n        string aboutMe;\n        string backgroundGradient;\n    }\n    \n    struct Contribution {\n        bytes32 id;\n        uint timeCreated;\n        address contributer;\n        uint amount;\n        string message;\n    }\n    \n    mapping (bytes32 => Contribution) contributions;\n    mapping (bytes32 => bytes32[]) funderContributions;\n    bytes32[] private contributionIndex;\n    \n    mapping (bytes32 => User) users;\n    bytes32[] private userIndex;\n    mapping (bytes32 => bytes32[]) userFriends;\n    mapping (bytes32 => mapping (bytes32 => bool)) friendMap;\n    \n    mapping (address => bytes32) ownerToUserId;\n    \n    mapping (bytes32 => Funder) funders;\n    bytes32[] private funderIndex;\n    mapping (bytes32 => bytes32[]) ownerFunders;\n    \n    address payable _developerAddress;\n    \n    constructor() {\n        _createHomePage(msg.sender, 'dev', 'developer page', 'blue');\n        _developerAddress = msg.sender;\n    }\n    \n    function getAccounts() public view returns(User[] memory) {\n        uint userCount = userIndex.length;\n        User[] memory _users = new User[](userCount);\n        for(uint i = 0; i < userCount; i++) {\n            _users[i] = users[userIndex[i]];\n        }\n        return _users;\n    }\n\n    function addFriend(bytes32 _friend) public {\n        bytes32 _user = ownerToUserId[msg.sender];\n        require(!friendMap[_user][_friend], 'friend already added'); // require not existing friend\n        userFriends[_user].push(_friend);\n        friendMap[_user][_friend] = true;\n    }\n    \n    function getUserFriends(bytes32 _user) public view returns (User[] memory) {\n        uint friendsCount = userFriends[_user].length;\n        User[] memory _userFriends = new User[](friendsCount);\n        for (uint i = 0; i < friendsCount; i++) {\n            _userFriends[i] = users[userFriends[_user][i]];\n        }\n        return _userFriends;\n    }\n    \n    function getAccountByid (bytes32 _id) public view returns(User memory) {\n        return users[_id];\n    }\n    \n    function getUserIndex() public view returns(bytes32[] memory) {\n        return userIndex;\n    }\n    \n    function getUserCount() public view returns(uint) {\n        return userIndex.length;\n    }\n    \n    function getUserId() public view returns(bytes32) {\n        return ownerToUserId[msg.sender];\n    }\n    \n    \n    function createHomePage(string memory _username, string memory _aboutMe, string memory _backgroundGradient) public {\n        bytes32 _id = ownerToUserId[msg.sender];\n        require(msg.sender != _developerAddress, 'dev already has a home page');\n        require(_id == 0, 'user already has a home page'); // enforce only one User per address\n        _createHomePage(msg.sender, _username, _aboutMe, _backgroundGradient);\n    }\n    \n    function _createHomePage(address _sender, string memory _username, string memory _aboutMe, string memory _backgroundGradient) internal {\n        bytes32 _id = keccak256(abi.encodePacked(block.timestamp, _sender, _username, _aboutMe, _backgroundGradient));\n        User memory newUser = User(_sender, _id, _username, _aboutMe, _backgroundGradient);\n        users[_id] = newUser; // add the new user\n        ownerToUserId[_sender] = _id;\n        userIndex.push(_id);\n        emit InteractionSuccess(_sender, 'account created');\n    }\n    \n    function updateHomePage(string memory _username, string memory _aboutMe, string memory _backgroundGradient) public {\n        bytes32 _id = ownerToUserId[msg.sender];\n        require(users[_id].owner == msg.sender);\n        users[_id].username = _username;\n        users[_id].aboutMe = _aboutMe;\n        users[_id].backgroundGradient = _backgroundGradient;\n        emit InteractionSuccess(msg.sender, 'account updated');\n    }\n    \n    function createFunder(string memory _title, uint _fundTarget, string memory _description, uint _endDate) public {\n        bytes32 _id = ownerToUserId[msg.sender];\n        if (_id == 0) {\n            require(msg.sender == _developerAddress, 'must create home page before creating funder');\n        }\n        _createFunder(msg.sender, _title, _fundTarget, _description, _endDate);\n    }\n    \n    \n    function _createFunder(address _sender, string memory _title, uint _fundTarget, string memory _description, uint _endDate) internal {\n        bytes32 _userId = ownerToUserId[_sender];\n        bytes32 _funderId = keccak256(abi.encodePacked(block.timestamp, _sender, _title, _description, _fundTarget));\n        funders[_funderId] = Funder(_sender, _funderId, block.timestamp, _endDate, block.timestamp, _title, _description, _fundTarget, 0, 0);\n        ownerFunders[_userId].push(_funderId);\n        funderIndex.push(_funderId);\n        emit InteractionSuccess(_sender, 'funder created');\n    }\n    \n    function updateFunder(bytes32 _funderId, string memory _title, uint _fundTarget, string memory _description, uint _endDate) public {\n        address _sender = msg.sender;\n        bytes32 _userId = ownerToUserId[_sender];\n        require(users[_userId].owner == _sender, 'must be owner to update');\n        funders[_funderId].title = _title;\n        funders[_funderId].description = _description;\n        funders[_funderId].fundTarget = _fundTarget;\n        funders[_funderId].endDate = _endDate;\n        funders[_funderId].updatedAt = block.timestamp;\n        emit InteractionSuccess(_sender, 'funder updated');\n    }\n    \n    function getUserFunders(bytes32 _userId) public view returns(Funder[] memory) {\n        uint _fundersCount = ownerFunders[_userId].length;\n        Funder[] memory _userFunders = new Funder[](_fundersCount);\n        for (uint i = 0; i < _fundersCount; i++) {\n            _userFunders[i] = funders[ownerFunders[_userId][i]];\n        }\n        return _userFunders;\n    }\n    \n    function getAllFunders() public view returns (Funder[] memory) {\n        uint _fundersCount = funderIndex.length;\n        Funder[] memory _funders = new Funder[](_fundersCount);\n        for (uint i = 0; i < _fundersCount; i++) {\n            _funders[i] = funders[funderIndex[i]];\n        }\n        return _funders;\n    }\n    \n    function getFunderById(bytes32 _funderId) public view returns(Funder memory) {\n        return funders[_funderId];\n    }\n    \n    function contribute(bytes32 _funderId, string memory _message) payable public {\n        uint contribution = msg.value;\n        Funder storage funder = funders[_funderId];\n        funder.fundBalance += contribution;\n        funder.amountRaised += contribution;\n        \n        bytes32 _contributionId = keccak256(abi.encodePacked(block.timestamp, msg.sender, msg.value, _message));\n        contributions[_contributionId] = Contribution(_contributionId, block.timestamp, msg.sender, msg.value, _message);\n        funderContributions[_funderId].push(_contributionId);\n        contributionIndex.push(_contributionId);\n        emit TransferSuccess(msg.sender, 'contribution successful', msg.value);\n    }\n    \n    function getFunderContributions(bytes32 _funderId) public view returns(Contribution[] memory) {\n        uint funderCount = funderContributions[_funderId].length;\n        Contribution[] memory _funderContributions = new Contribution[](funderCount);\n        for (uint i = 0; i < funderCount; i++) {\n            _funderContributions[i] = contributions[funderContributions[_funderId][i]];\n        }\n        return _funderContributions;\n    }\n    \n    function getAllContributions() public view returns(Contribution[] memory) {\n        uint funderCount = contributionIndex.length;\n        Contribution[] memory _contributions = new Contribution[](funderCount);\n        for (uint i = 0; i < funderCount; i++) {\n            _contributions[i] = contributions[contributionIndex[i]];\n        }\n        return _contributions;\n    }\n    \n    function withdraw(bytes32 _funderId) public payable{\n        Funder storage funder = funders[_funderId];\n        uint totalFunds = funder.fundBalance;\n        uint devFunds = totalFunds / 1000;\n        uint withdrawalFunds = totalFunds - devFunds;\n        require(totalFunds > 0, 'no funds to withdraw');\n        require(funder.owner == msg.sender, \"unauthorized\");\n        funder.fundBalance = 0;\n        _developerAddress.transfer(devFunds);\n        msg.sender.transfer(withdrawalFunds);\n        emit TransferSuccess(msg.sender, 'withdrawal successful', withdrawalFunds);\n    }\n}",
  "sourcePath": "/home/asooge/block-chain/please-fund-me/PleaseFundMe/contracts/PleaseFundMe_v3.sol",
  "compiler": {
    "name": "solc",
    "version": "0.7.0+commit.9e61f92b.Emscripten.clang"
  },
  "schemaVersion": "3.3.4",
  "updatedAt": "2021-04-11T23:34:17.743Z",
  "networkType": "ethereum",
  "devdoc": {
    "kind": "dev",
    "methods": {},
    "version": 1
  },
  "userdoc": {
    "kind": "user",
    "methods": {},
    "version": 1
  }
}