{
  "contractName": "PleaseFundMe",
  "abi": [
    {
      "inputs": [],
      "stateMutability": "nonpayable",
      "type": "constructor"
    },
    {
      "anonymous": false,
      "inputs": [
        {
          "indexed": false,
          "internalType": "address",
          "name": "sender",
          "type": "address"
        },
        {
          "indexed": false,
          "internalType": "string",
          "name": "message",
          "type": "string"
        }
      ],
      "name": "InteractionSuccess",
      "type": "event"
    },
    {
      "anonymous": false,
      "inputs": [
        {
          "indexed": false,
          "internalType": "address",
          "name": "sender",
          "type": "address"
        },
        {
          "indexed": false,
          "internalType": "string",
          "name": "transaction",
          "type": "string"
        },
        {
          "indexed": false,
          "internalType": "uint256",
          "name": "amount",
          "type": "uint256"
        }
      ],
      "name": "TransferSuccess",
      "type": "event"
    },
    {
      "inputs": [],
      "name": "getAccounts",
      "outputs": [
        {
          "components": [
            {
              "internalType": "address",
              "name": "owner",
              "type": "address"
            },
            {
              "internalType": "bytes32",
              "name": "id",
              "type": "bytes32"
            },
            {
              "internalType": "string",
              "name": "username",
              "type": "string"
            },
            {
              "internalType": "string",
              "name": "aboutMe",
              "type": "string"
            },
            {
              "internalType": "string",
              "name": "backgroundGradient",
              "type": "string"
            }
          ],
          "internalType": "struct PleaseFundMe.User[]",
          "name": "",
          "type": "tuple[]"
        }
      ],
      "stateMutability": "view",
      "type": "function",
      "constant": true
    },
    {
      "inputs": [
        {
          "internalType": "bytes32",
          "name": "_friend",
          "type": "bytes32"
        }
      ],
      "name": "addFriend",
      "outputs": [],
      "stateMutability": "nonpayable",
      "type": "function"
    },
    {
      "inputs": [
        {
          "internalType": "bytes32",
          "name": "_user",
          "type": "bytes32"
        }
      ],
      "name": "getUserFriends",
      "outputs": [
        {
          "components": [
            {
              "internalType": "address",
              "name": "owner",
              "type": "address"
            },
            {
              "internalType": "bytes32",
              "name": "id",
              "type": "bytes32"
            },
            {
              "internalType": "string",
              "name": "username",
              "type": "string"
            },
            {
              "internalType": "string",
              "name": "aboutMe",
              "type": "string"
            },
            {
              "internalType": "string",
              "name": "backgroundGradient",
              "type": "string"
            }
          ],
          "internalType": "struct PleaseFundMe.User[]",
          "name": "",
          "type": "tuple[]"
        }
      ],
      "stateMutability": "view",
      "type": "function",
      "constant": true
    },
    {
      "inputs": [
        {
          "internalType": "bytes32",
          "name": "_id",
          "type": "bytes32"
        }
      ],
      "name": "getAccountById",
      "outputs": [
        {
          "components": [
            {
              "internalType": "address",
              "name": "owner",
              "type": "address"
            },
            {
              "internalType": "bytes32",
              "name": "id",
              "type": "bytes32"
            },
            {
              "internalType": "string",
              "name": "username",
              "type": "string"
            },
            {
              "internalType": "string",
              "name": "aboutMe",
              "type": "string"
            },
            {
              "internalType": "string",
              "name": "backgroundGradient",
              "type": "string"
            }
          ],
          "internalType": "struct PleaseFundMe.User",
          "name": "",
          "type": "tuple"
        }
      ],
      "stateMutability": "view",
      "type": "function",
      "constant": true
    },
    {
      "inputs": [],
      "name": "getUserIndex",
      "outputs": [
        {
          "internalType": "bytes32[]",
          "name": "",
          "type": "bytes32[]"
        }
      ],
      "stateMutability": "view",
      "type": "function",
      "constant": true
    },
    {
      "inputs": [],
      "name": "getUserCount",
      "outputs": [
        {
          "internalType": "uint256",
          "name": "",
          "type": "uint256"
        }
      ],
      "stateMutability": "view",
      "type": "function",
      "constant": true
    },
    {
      "inputs": [],
      "name": "getUserId",
      "outputs": [
        {
          "internalType": "bytes32",
          "name": "",
          "type": "bytes32"
        }
      ],
      "stateMutability": "view",
      "type": "function",
      "constant": true
    },
    {
      "inputs": [
        {
          "internalType": "string",
          "name": "_username",
          "type": "string"
        },
        {
          "internalType": "string",
          "name": "_aboutMe",
          "type": "string"
        },
        {
          "internalType": "string",
          "name": "_backgroundGradient",
          "type": "string"
        }
      ],
      "name": "createHomePage",
      "outputs": [],
      "stateMutability": "nonpayable",
      "type": "function"
    },
    {
      "inputs": [
        {
          "internalType": "string",
          "name": "_username",
          "type": "string"
        },
        {
          "internalType": "string",
          "name": "_aboutMe",
          "type": "string"
        },
        {
          "internalType": "string",
          "name": "_backgroundGradient",
          "type": "string"
        }
      ],
      "name": "updateHomePage",
      "outputs": [],
      "stateMutability": "nonpayable",
      "type": "function"
    },
    {
      "inputs": [
        {
          "internalType": "string",
          "name": "_title",
          "type": "string"
        },
        {
          "internalType": "uint256",
          "name": "_fundTarget",
          "type": "uint256"
        },
        {
          "internalType": "string",
          "name": "_description",
          "type": "string"
        },
        {
          "internalType": "uint256",
          "name": "_endDate",
          "type": "uint256"
        }
      ],
      "name": "createFunder",
      "outputs": [],
      "stateMutability": "nonpayable",
      "type": "function"
    },
    {
      "inputs": [
        {
          "internalType": "bytes32",
          "name": "_funderId",
          "type": "bytes32"
        },
        {
          "internalType": "string",
          "name": "_title",
          "type": "string"
        },
        {
          "internalType": "uint256",
          "name": "_fundTarget",
          "type": "uint256"
        },
        {
          "internalType": "string",
          "name": "_description",
          "type": "string"
        },
        {
          "internalType": "uint256",
          "name": "_endDate",
          "type": "uint256"
        }
      ],
      "name": "updateFunder",
      "outputs": [],
      "stateMutability": "nonpayable",
      "type": "function"
    },
    {
      "inputs": [
        {
          "internalType": "bytes32",
          "name": "_userId",
          "type": "bytes32"
        }
      ],
      "name": "getUserFunders",
      "outputs": [
        {
          "components": [
            {
              "internalType": "address",
              "name": "owner",
              "type": "address"
            },
            {
              "internalType": "bytes32",
              "name": "id",
              "type": "bytes32"
            },
            {
              "internalType": "uint256",
              "name": "startDate",
              "type": "uint256"
            },
            {
              "internalType": "uint256",
              "name": "endDate",
              "type": "uint256"
            },
            {
              "internalType": "uint256",
              "name": "updatedAt",
              "type": "uint256"
            },
            {
              "internalType": "string",
              "name": "title",
              "type": "string"
            },
            {
              "internalType": "string",
              "name": "description",
              "type": "string"
            },
            {
              "internalType": "uint256",
              "name": "fundTarget",
              "type": "uint256"
            },
            {
              "internalType": "uint256",
              "name": "fundBalance",
              "type": "uint256"
            },
            {
              "internalType": "uint256",
              "name": "amountRaised",
              "type": "uint256"
            }
          ],
          "internalType": "struct PleaseFundMe.Funder[]",
          "name": "",
          "type": "tuple[]"
        }
      ],
      "stateMutability": "view",
      "type": "function",
      "constant": true
    },
    {
      "inputs": [],
      "name": "getAllFunders",
      "outputs": [
        {
          "components": [
            {
              "internalType": "address",
              "name": "owner",
              "type": "address"
            },
            {
              "internalType": "bytes32",
              "name": "id",
              "type": "bytes32"
            },
            {
              "internalType": "uint256",
              "name": "startDate",
              "type": "uint256"
            },
            {
              "internalType": "uint256",
              "name": "endDate",
              "type": "uint256"
            },
            {
              "internalType": "uint256",
              "name": "updatedAt",
              "type": "uint256"
            },
            {
              "internalType": "string",
              "name": "title",
              "type": "string"
            },
            {
              "internalType": "string",
              "name": "description",
              "type": "string"
            },
            {
              "internalType": "uint256",
              "name": "fundTarget",
              "type": "uint256"
            },
            {
              "internalType": "uint256",
              "name": "fundBalance",
              "type": "uint256"
            },
            {
              "internalType": "uint256",
              "name": "amountRaised",
              "type": "uint256"
            }
          ],
          "internalType": "struct PleaseFundMe.Funder[]",
          "name": "",
          "type": "tuple[]"
        }
      ],
      "stateMutability": "view",
      "type": "function",
      "constant": true
    },
    {
      "inputs": [
        {
          "internalType": "bytes32",
          "name": "_funderId",
          "type": "bytes32"
        }
      ],
      "name": "getFunderById",
      "outputs": [
        {
          "components": [
            {
              "internalType": "address",
              "name": "owner",
              "type": "address"
            },
            {
              "internalType": "bytes32",
              "name": "id",
              "type": "bytes32"
            },
            {
              "internalType": "uint256",
              "name": "startDate",
              "type": "uint256"
            },
            {
              "internalType": "uint256",
              "name": "endDate",
              "type": "uint256"
            },
            {
              "internalType": "uint256",
              "name": "updatedAt",
              "type": "uint256"
            },
            {
              "internalType": "string",
              "name": "title",
              "type": "string"
            },
            {
              "internalType": "string",
              "name": "description",
              "type": "string"
            },
            {
              "internalType": "uint256",
              "name": "fundTarget",
              "type": "uint256"
            },
            {
              "internalType": "uint256",
              "name": "fundBalance",
              "type": "uint256"
            },
            {
              "internalType": "uint256",
              "name": "amountRaised",
              "type": "uint256"
            }
          ],
          "internalType": "struct PleaseFundMe.Funder",
          "name": "",
          "type": "tuple"
        }
      ],
      "stateMutability": "view",
      "type": "function",
      "constant": true
    },
    {
      "inputs": [
        {
          "internalType": "bytes32",
          "name": "_funderId",
          "type": "bytes32"
        },
        {
          "internalType": "string",
          "name": "_message",
          "type": "string"
        }
      ],
      "name": "contribute",
      "outputs": [],
      "stateMutability": "payable",
      "type": "function",
      "payable": true
    },
    {
      "inputs": [
        {
          "internalType": "bytes32",
          "name": "_funderId",
          "type": "bytes32"
        }
      ],
      "name": "getFunderContributions",
      "outputs": [
        {
          "components": [
            {
              "internalType": "bytes32",
              "name": "id",
              "type": "bytes32"
            },
            {
              "internalType": "uint256",
              "name": "timeCreated",
              "type": "uint256"
            },
            {
              "internalType": "address",
              "name": "contributer",
              "type": "address"
            },
            {
              "internalType": "uint256",
              "name": "amount",
              "type": "uint256"
            },
            {
              "internalType": "string",
              "name": "message",
              "type": "string"
            }
          ],
          "internalType": "struct PleaseFundMe.Contribution[]",
          "name": "",
          "type": "tuple[]"
        }
      ],
      "stateMutability": "view",
      "type": "function",
      "constant": true
    },
    {
      "inputs": [],
      "name": "getAllContributions",
      "outputs": [
        {
          "components": [
            {
              "internalType": "bytes32",
              "name": "id",
              "type": "bytes32"
            },
            {
              "internalType": "uint256",
              "name": "timeCreated",
              "type": "uint256"
            },
            {
              "internalType": "address",
              "name": "contributer",
              "type": "address"
            },
            {
              "internalType": "uint256",
              "name": "amount",
              "type": "uint256"
            },
            {
              "internalType": "string",
              "name": "message",
              "type": "string"
            }
          ],
          "internalType": "struct PleaseFundMe.Contribution[]",
          "name": "",
          "type": "tuple[]"
        }
      ],
      "stateMutability": "view",
      "type": "function",
      "constant": true
    },
    {
      "inputs": [
        {
          "internalType": "bytes32",
          "name": "_funderId",
          "type": "bytes32"
        }
      ],
      "name": "withdraw",
      "outputs": [],
      "stateMutability": "payable",
      "type": "function",
      "payable": true
    }
  ],
  "bytecode": "0x60806040523480156200001157600080fd5b50620000c5336040518060400160405280600381526020017f64657600000000000000000000000000000000000000000000000000000000008152506040518060400160405280600e81526020017f646576656c6f70657220706167650000000000000000000000000000000000008152506040518060400160405280600481526020017f626c7565000000000000000000000000000000000000000000000000000000008152506200010c60201b60201c565b33600b60006101000a81548173ffffffffffffffffffffffffffffffffffffffff021916908373ffffffffffffffffffffffffffffffffffffffff16021790555062000614565b6000428585858560405160200162000129959493929190620004ab565b6040516020818303038152906040528051906020012090506200014b620002fd565b6040518060a001604052808773ffffffffffffffffffffffffffffffffffffffff168152602001838152602001868152602001858152602001848152509050806003600084815260200190815260200160002060008201518160000160006101000a81548173ffffffffffffffffffffffffffffffffffffffff021916908373ffffffffffffffffffffffffffffffffffffffff1602179055506020820151816001015560408201518160020190805190602001906200020d92919062000345565b5060608201518160030190805190602001906200022c92919062000345565b5060808201518160040190805190602001906200024b92919062000345565b5090505081600760008873ffffffffffffffffffffffffffffffffffffffff1673ffffffffffffffffffffffffffffffffffffffff1681526020019081526020016000208190555060048290806001815401808255809150506001900390600052602060002001600090919091909150557f0e11c19254e459389b3807518c61779a0f27b49f561ef1b03caac6f648ff58bf86604051620002ed919062000508565b60405180910390a1505050505050565b6040518060a00160405280600073ffffffffffffffffffffffffffffffffffffffff168152602001600080191681526020016060815260200160608152602001606081525090565b828054600181600116156101000203166002900490600052602060002090601f016020900481019282601f106200038857805160ff1916838001178555620003b9565b82800160010185558215620003b9579182015b82811115620003b85782518255916020019190600101906200039b565b5b509050620003c89190620003cc565b5090565b5b80821115620003e7576000816000905550600101620003cd565b5090565b620003f68162000561565b82525050565b620004116200040b8262000561565b620005d5565b82525050565b600062000424826200053a565b62000430818562000556565b9350620004428185602086016200059f565b80840191505092915050565b60006200045d600f8362000545565b91507f6163636f756e74206372656174656400000000000000000000000000000000006000830152602082019050919050565b620004a56200049f8262000595565b620005fd565b82525050565b6000620004b9828862000490565b602082019150620004cb8287620003fc565b601482019150620004dd828662000417565b9150620004eb828562000417565b9150620004f9828462000417565b91508190509695505050505050565b60006040820190506200051f6000830184620003eb565b818103602083015262000532816200044e565b905092915050565b600081519050919050565b600082825260208201905092915050565b600081905092915050565b60006200056e8262000575565b9050919050565b600073ffffffffffffffffffffffffffffffffffffffff82169050919050565b6000819050919050565b60005b83811015620005bf578082015181840152602081019050620005a2565b83811115620005cf576000848401525b50505050565b6000620005e282620005e9565b9050919050565b6000620005f68262000607565b9050919050565b6000819050919050565b60008160601b9050919050565b613e9a80620006246000396000f3fe6080604052600436106101095760003560e01c80638a48ac0311610095578063b6b762b411610064578063b6b762b41461034a578063b732e43914610387578063b9b41f1b146103b0578063e7ac8c45146103ed578063eefa499d1461042a57610109565b80638a48ac031461029b5780638e19899e146102c6578063a7bac69f146102e2578063b5cb15f71461031f57610109565b806337f3061d116100dc57806337f3061d146101b45780634c36b99f146101df5780635c7561be146102085780636ec0c8aa146102455780636fbbb55d1461027057610109565b806304712d911461010e5780630bbda5e5146101375780632836b3c3146101605780632ebcb65314610189575b600080fd5b34801561011a57600080fd5b5061013560048036038101906101309190612c45565b610446565b005b34801561014357600080fd5b5061015e60048036038101906101599190612b07565b61053a565b005b34801561016c57600080fd5b5061018760048036038101906101829190612a8a565b6106c9565b005b34801561019557600080fd5b5061019e6108c2565b6040516101ab91906139f9565b60405180910390f35b3480156101c057600080fd5b506101c9610909565b6040516101d69190613993565b60405180910390f35b3480156101eb57600080fd5b5061020660048036038101906102019190612bae565b610aed565b005b34801561021457600080fd5b5061022f600480360381019061022a9190612a8a565b610c5d565b60405161023c91906139d7565b60405180910390f35b34801561025157600080fd5b5061025a610f96565b6040516102679190613971565b60405180910390f35b34801561027c57600080fd5b50610285610fee565b60405161029291906139b5565b60405180910390f35b3480156102a757600080fd5b506102b061129e565b6040516102bd91906139d7565b60405180910390f35b6102e060048036038101906102db9190612a8a565b6115b3565b005b3480156102ee57600080fd5b5061030960048036038101906103049190612a8a565b6117b9565b60405161031691906139b5565b60405180910390f35b34801561032b57600080fd5b50610334611a8d565b6040516103419190613b78565b60405180910390f35b34801561035657600080fd5b50610371600480360381019061036c9190612a8a565b611a9a565b60405161037e9190613b34565b60405180910390f35b34801561039357600080fd5b506103ae60048036038101906103a99190612bae565b611ca8565b005b3480156103bc57600080fd5b506103d760048036038101906103d29190612a8a565b611dd4565b6040516103e49190613b56565b60405180910390f35b3480156103f957600080fd5b50610414600480360381019061040f9190612a8a565b612047565b6040516104219190613993565b60405180910390f35b610444600480360381019061043f9190612ab3565b61224f565b005b6000600760003373ffffffffffffffffffffffffffffffffffffffff1673ffffffffffffffffffffffffffffffffffffffff1681526020019081526020016000205490506000801b81141561052657600b60009054906101000a900473ffffffffffffffffffffffffffffffffffffffff1673ffffffffffffffffffffffffffffffffffffffff163373ffffffffffffffffffffffffffffffffffffffff1614610525576040517f08c379a000000000000000000000000000000000000000000000000000000000815260040161051c90613a54565b60405180910390fd5b5b6105333386868686612437565b5050505050565b60003390508073ffffffffffffffffffffffffffffffffffffffff166008600088815260200190815260200160002060000160009054906101000a900473ffffffffffffffffffffffffffffffffffffffff1673ffffffffffffffffffffffffffffffffffffffff16146105e3576040517f08c379a00000000000000000000000000000000000000000000000000000000081526004016105da90613a14565b60405180910390fd5b8460086000888152602001908152602001600020600501908051906020019061060d929190612873565b5082600860008881526020019081526020016000206006019080519060200190610638929190612873565b508360086000888152602001908152602001600020600701819055508160086000888152602001908152602001600020600301819055504260086000888152602001908152602001600020600401819055507f0e11c19254e459389b3807518c61779a0f27b49f561ef1b03caac6f648ff58bf816040516106b991906138e7565b60405180910390a1505050505050565b6000600760003373ffffffffffffffffffffffffffffffffffffffff1673ffffffffffffffffffffffffffffffffffffffff1681526020019081526020016000205490506000801b600760003373ffffffffffffffffffffffffffffffffffffffff1673ffffffffffffffffffffffffffffffffffffffff168152602001908152602001600020541415610792576040517f08c379a000000000000000000000000000000000000000000000000000000000815260040161078990613af4565b60405180910390fd5b818114156107d5576040517f08c379a00000000000000000000000000000000000000000000000000000000081526004016107cc90613ad4565b60405180910390fd5b60066000828152602001908152602001600020600083815260200190815260200160002060009054906101000a900460ff1615610847576040517f08c379a000000000000000000000000000000000000000000000000000000000815260040161083e90613a34565b60405180910390fd5b60056000828152602001908152602001600020829080600181540180825580915050600190039060005260206000200160009091909190915055600160066000838152602001908152602001600020600084815260200190815260200160002060006101000a81548160ff0219169083151502179055505050565b6000600760003373ffffffffffffffffffffffffffffffffffffffff1673ffffffffffffffffffffffffffffffffffffffff16815260200190815260200160002054905090565b60606000600280549050905060608167ffffffffffffffff8111801561092e57600080fd5b5060405190808252806020026020018201604052801561096857816020015b6109556128f3565b81526020019060019003908161094d5790505b50905060005b82811015610ae4576000806002838154811061098657fe5b906000526020600020015481526020019081526020016000206040518060a001604052908160008201548152602001600182015481526020016002820160009054906101000a900473ffffffffffffffffffffffffffffffffffffffff1673ffffffffffffffffffffffffffffffffffffffff1673ffffffffffffffffffffffffffffffffffffffff16815260200160038201548152602001600482018054600181600116156101000203166002900480601f016020809104026020016040519081016040528092919081815260200182805460018160011615610100020316600290048015610ab75780601f10610a8c57610100808354040283529160200191610ab7565b820191906000526020600020905b815481529060010190602001808311610a9a57829003601f168201915b505050505081525050828281518110610acc57fe5b6020026020010181905250808060010191505061096e565b50809250505090565b6000600760003373ffffffffffffffffffffffffffffffffffffffff1673ffffffffffffffffffffffffffffffffffffffff1681526020019081526020016000205490503373ffffffffffffffffffffffffffffffffffffffff166003600083815260200190815260200160002060000160009054906101000a900473ffffffffffffffffffffffffffffffffffffffff1673ffffffffffffffffffffffffffffffffffffffff1614610b9f57600080fd5b83600360008381526020019081526020016000206002019080519060200190610bc9929190612873565b5082600360008381526020019081526020016000206003019080519060200190610bf4929190612873565b5081600360008381526020019081526020016000206004019080519060200190610c1f929190612873565b507f0e11c19254e459389b3807518c61779a0f27b49f561ef1b03caac6f648ff58bf33604051610c4f91906138b9565b60405180910390a150505050565b606060006005600084815260200190815260200160002080549050905060608167ffffffffffffffff81118015610c9357600080fd5b50604051908082528060200260200182016040528015610ccd57816020015b610cba61293b565b815260200190600190039081610cb25790505b50905060005b82811015610f8b5760036000600560008881526020019081526020016000208381548110610cfd57fe5b906000526020600020015481526020019081526020016000206040518060a00160405290816000820160009054906101000a900473ffffffffffffffffffffffffffffffffffffffff1673ffffffffffffffffffffffffffffffffffffffff1673ffffffffffffffffffffffffffffffffffffffff16815260200160018201548152602001600282018054600181600116156101000203166002900480601f016020809104026020016040519081016040528092919081815260200182805460018160011615610100020316600290048015610e1a5780601f10610def57610100808354040283529160200191610e1a565b820191906000526020600020905b815481529060010190602001808311610dfd57829003601f168201915b50505050508152602001600382018054600181600116156101000203166002900480601f016020809104026020016040519081016040528092919081815260200182805460018160011615610100020316600290048015610ebc5780601f10610e9157610100808354040283529160200191610ebc565b820191906000526020600020905b815481529060010190602001808311610e9f57829003601f168201915b50505050508152602001600482018054600181600116156101000203166002900480601f016020809104026020016040519081016040528092919081815260200182805460018160011615610100020316600290048015610f5e5780601f10610f3357610100808354040283529160200191610f5e565b820191906000526020600020905b815481529060010190602001808311610f4157829003601f168201915b505050505081525050828281518110610f7357fe5b60200260200101819052508080600101915050610cd3565b508092505050919050565b60606004805480602002602001604051908101604052809291908181526020018280548015610fe457602002820191906000526020600020905b815481526020019060010190808311610fd0575b5050505050905090565b60606000600980549050905060608167ffffffffffffffff8111801561101357600080fd5b5060405190808252806020026020018201604052801561104d57816020015b61103a612983565b8152602001906001900390816110325790505b50905060005b8281101561129557600860006009838154811061106c57fe5b90600052602060002001548152602001908152602001600020604051806101400160405290816000820160009054906101000a900473ffffffffffffffffffffffffffffffffffffffff1673ffffffffffffffffffffffffffffffffffffffff1673ffffffffffffffffffffffffffffffffffffffff16815260200160018201548152602001600282015481526020016003820154815260200160048201548152602001600582018054600181600116156101000203166002900480601f0160208091040260200160405190810160405280929190818152602001828054600181600116156101000203166002900480156111a85780601f1061117d576101008083540402835291602001916111a8565b820191906000526020600020905b81548152906001019060200180831161118b57829003601f168201915b50505050508152602001600682018054600181600116156101000203166002900480601f01602080910402602001604051908101604052809291908181526020018280546001816001161561010002031660029004801561124a5780601f1061121f5761010080835404028352916020019161124a565b820191906000526020600020905b81548152906001019060200180831161122d57829003601f168201915b50505050508152602001600782015481526020016008820154815260200160098201548152505082828151811061127d57fe5b60200260200101819052508080600101915050611053565b50809250505090565b60606000600480549050905060608167ffffffffffffffff811180156112c357600080fd5b506040519080825280602002602001820160405280156112fd57816020015b6112ea61293b565b8152602001906001900390816112e25790505b50905060005b828110156115aa57600360006004838154811061131c57fe5b906000526020600020015481526020019081526020016000206040518060a00160405290816000820160009054906101000a900473ffffffffffffffffffffffffffffffffffffffff1673ffffffffffffffffffffffffffffffffffffffff1673ffffffffffffffffffffffffffffffffffffffff16815260200160018201548152602001600282018054600181600116156101000203166002900480601f0160208091040260200160405190810160405280929190818152602001828054600181600116156101000203166002900480156114395780601f1061140e57610100808354040283529160200191611439565b820191906000526020600020905b81548152906001019060200180831161141c57829003601f168201915b50505050508152602001600382018054600181600116156101000203166002900480601f0160208091040260200160405190810160405280929190818152602001828054600181600116156101000203166002900480156114db5780601f106114b0576101008083540402835291602001916114db565b820191906000526020600020905b8154815290600101906020018083116114be57829003601f168201915b50505050508152602001600482018054600181600116156101000203166002900480601f01602080910402602001604051908101604052809291908181526020018280546001816001161561010002031660029004801561157d5780601f106115525761010080835404028352916020019161157d565b820191906000526020600020905b81548152906001019060200180831161156057829003601f168201915b50505050508152505082828151811061159257fe5b60200260200101819052508080600101915050611303565b50809250505090565b600060086000838152602001908152602001600020905060008160080154905060006103e882816115e057fe5b049050600081830390506000831161162d576040517f08c379a000000000000000000000000000000000000000000000000000000000815260040161162490613ab4565b60405180910390fd5b3373ffffffffffffffffffffffffffffffffffffffff168460000160009054906101000a900473ffffffffffffffffffffffffffffffffffffffff1673ffffffffffffffffffffffffffffffffffffffff16146116bf576040517f08c379a00000000000000000000000000000000000000000000000000000000081526004016116b690613a94565b60405180910390fd5b60008460080181905550600b60009054906101000a900473ffffffffffffffffffffffffffffffffffffffff1673ffffffffffffffffffffffffffffffffffffffff166108fc839081150290604051600060405180830381858888f19350505050158015611731573d6000803e3d6000fd5b503373ffffffffffffffffffffffffffffffffffffffff166108fc829081150290604051600060405180830381858888f19350505050158015611778573d6000803e3d6000fd5b507fd93c084e37bf10c65c239ce1ece74b50538195ba956376f7308ba91179bd17af33826040516117aa92919061387d565b60405180910390a15050505050565b60606000600a600084815260200190815260200160002080549050905060608167ffffffffffffffff811180156117ef57600080fd5b5060405190808252806020026020018201604052801561182957816020015b611816612983565b81526020019060019003908161180e5790505b50905060005b82811015611a825760086000600a6000888152602001908152602001600020838154811061185957fe5b90600052602060002001548152602001908152602001600020604051806101400160405290816000820160009054906101000a900473ffffffffffffffffffffffffffffffffffffffff1673ffffffffffffffffffffffffffffffffffffffff1673ffffffffffffffffffffffffffffffffffffffff16815260200160018201548152602001600282015481526020016003820154815260200160048201548152602001600582018054600181600116156101000203166002900480601f0160208091040260200160405190810160405280929190818152602001828054600181600116156101000203166002900480156119955780601f1061196a57610100808354040283529160200191611995565b820191906000526020600020905b81548152906001019060200180831161197857829003601f168201915b50505050508152602001600682018054600181600116156101000203166002900480601f016020809104026020016040519081016040528092919081815260200182805460018160011615610100020316600290048015611a375780601f10611a0c57610100808354040283529160200191611a37565b820191906000526020600020905b815481529060010190602001808311611a1a57829003601f168201915b505050505081526020016007820154815260200160088201548152602001600982015481525050828281518110611a6a57fe5b6020026020010181905250808060010191505061182f565b508092505050919050565b6000600480549050905090565b611aa2612983565b60086000838152602001908152602001600020604051806101400160405290816000820160009054906101000a900473ffffffffffffffffffffffffffffffffffffffff1673ffffffffffffffffffffffffffffffffffffffff1673ffffffffffffffffffffffffffffffffffffffff16815260200160018201548152602001600282015481526020016003820154815260200160048201548152602001600582018054600181600116156101000203166002900480601f016020809104026020016040519081016040528092919081815260200182805460018160011615610100020316600290048015611bd85780601f10611bad57610100808354040283529160200191611bd8565b820191906000526020600020905b815481529060010190602001808311611bbb57829003601f168201915b50505050508152602001600682018054600181600116156101000203166002900480601f016020809104026020016040519081016040528092919081815260200182805460018160011615610100020316600290048015611c7a5780601f10611c4f57610100808354040283529160200191611c7a565b820191906000526020600020905b815481529060010190602001808311611c5d57829003601f168201915b5050505050815260200160078201548152602001600882015481526020016009820154815250509050919050565b6000600760003373ffffffffffffffffffffffffffffffffffffffff1673ffffffffffffffffffffffffffffffffffffffff168152602001908152602001600020549050600b60009054906101000a900473ffffffffffffffffffffffffffffffffffffffff1673ffffffffffffffffffffffffffffffffffffffff163373ffffffffffffffffffffffffffffffffffffffff161415611d7d576040517f08c379a0000000000000000000000000000000000000000000000000000000008152600401611d7490613a74565b60405180910390fd5b6000801b8114611dc2576040517f08c379a0000000000000000000000000000000000000000000000000000000008152600401611db990613b14565b60405180910390fd5b611dce3385858561268e565b50505050565b611ddc61293b565b600360008381526020019081526020016000206040518060a00160405290816000820160009054906101000a900473ffffffffffffffffffffffffffffffffffffffff1673ffffffffffffffffffffffffffffffffffffffff1673ffffffffffffffffffffffffffffffffffffffff16815260200160018201548152602001600282018054600181600116156101000203166002900480601f016020809104026020016040519081016040528092919081815260200182805460018160011615610100020316600290048015611ef35780601f10611ec857610100808354040283529160200191611ef3565b820191906000526020600020905b815481529060010190602001808311611ed657829003601f168201915b50505050508152602001600382018054600181600116156101000203166002900480601f016020809104026020016040519081016040528092919081815260200182805460018160011615610100020316600290048015611f955780601f10611f6a57610100808354040283529160200191611f95565b820191906000526020600020905b815481529060010190602001808311611f7857829003601f168201915b50505050508152602001600482018054600181600116156101000203166002900480601f0160208091040260200160405190810160405280929190818152602001828054600181600116156101000203166002900480156120375780601f1061200c57610100808354040283529160200191612037565b820191906000526020600020905b81548152906001019060200180831161201a57829003601f168201915b5050505050815250509050919050565b606060006001600084815260200190815260200160002080549050905060608167ffffffffffffffff8111801561207d57600080fd5b506040519080825280602002602001820160405280156120b757816020015b6120a46128f3565b81526020019060019003908161209c5790505b50905060005b82811015612244576000806001600088815260200190815260200160002083815481106120e657fe5b906000526020600020015481526020019081526020016000206040518060a001604052908160008201548152602001600182015481526020016002820160009054906101000a900473ffffffffffffffffffffffffffffffffffffffff1673ffffffffffffffffffffffffffffffffffffffff1673ffffffffffffffffffffffffffffffffffffffff16815260200160038201548152602001600482018054600181600116156101000203166002900480601f0160208091040260200160405190810160405280929190818152602001828054600181600116156101000203166002900480156122175780601f106121ec57610100808354040283529160200191612217565b820191906000526020600020905b8154815290600101906020018083116121fa57829003601f168201915b50505050508152505082828151811061222c57fe5b602002602001018190525080806001019150506120bd565b508092505050919050565b600034905060006008600085815260200190815260200160002090508181600801600082825401925050819055508181600901600082825401925050819055506000423334866040516020016122a8949392919061374d565b6040516020818303038152906040528051906020012090506040518060a001604052808281526020014281526020013373ffffffffffffffffffffffffffffffffffffffff16815260200134815260200185815250600080838152602001908152602001600020600082015181600001556020820151816001015560408201518160020160006101000a81548173ffffffffffffffffffffffffffffffffffffffff021916908373ffffffffffffffffffffffffffffffffffffffff160217905550606082015181600301556080820151816004019080519060200190612390929190612873565b509050506001600086815260200190815260200160002081908060018154018082558091505060019003906000526020600020016000909190919091505560028190806001815401808255809150506001900390600052602060002001600090919091909150557fd93c084e37bf10c65c239ce1ece74b50538195ba956376f7308ba91179bd17af3334604051612428929190613841565b60405180910390a15050505050565b6000600760008773ffffffffffffffffffffffffffffffffffffffff1673ffffffffffffffffffffffffffffffffffffffff168152602001908152602001600020549050600042878786886040516020016124969594939291906137ea565b6040516020818303038152906040528051906020012090506040518061014001604052808873ffffffffffffffffffffffffffffffffffffffff1681526020018281526020014281526020018481526020014281526020018781526020018581526020018681526020016000815260200160008152506008600083815260200190815260200160002060008201518160000160006101000a81548173ffffffffffffffffffffffffffffffffffffffff021916908373ffffffffffffffffffffffffffffffffffffffff1602179055506020820151816001015560408201518160020155606082015181600301556080820151816004015560a08201518160050190805190602001906125aa929190612873565b5060c08201518160060190805190602001906125c7929190612873565b5060e0820151816007015561010082015181600801556101208201518160090155905050600a600083815260200190815260200160002081908060018154018082558091505060019003906000526020600020016000909190919091505560098190806001815401808255809150506001900390600052602060002001600090919091909150557f0e11c19254e459389b3807518c61779a0f27b49f561ef1b03caac6f648ff58bf8760405161267d9190613915565b60405180910390a150505050505050565b600042858585856040516020016126a9959493929190613797565b6040516020818303038152906040528051906020012090506126c961293b565b6040518060a001604052808773ffffffffffffffffffffffffffffffffffffffff168152602001838152602001868152602001858152602001848152509050806003600084815260200190815260200160002060008201518160000160006101000a81548173ffffffffffffffffffffffffffffffffffffffff021916908373ffffffffffffffffffffffffffffffffffffffff160217905550602082015181600101556040820151816002019080519060200190612789929190612873565b5060608201518160030190805190602001906127a6929190612873565b5060808201518160040190805190602001906127c3929190612873565b5090505081600760008873ffffffffffffffffffffffffffffffffffffffff1673ffffffffffffffffffffffffffffffffffffffff1681526020019081526020016000208190555060048290806001815401808255809150506001900390600052602060002001600090919091909150557f0e11c19254e459389b3807518c61779a0f27b49f561ef1b03caac6f648ff58bf866040516128639190613943565b60405180910390a1505050505050565b828054600181600116156101000203166002900490600052602060002090601f016020900481019282601f106128b457805160ff19168380011785556128e2565b828001600101855582156128e2579182015b828111156128e15782518255916020019190600101906128c6565b5b5090506128ef91906129ef565b5090565b6040518060a001604052806000801916815260200160008152602001600073ffffffffffffffffffffffffffffffffffffffff16815260200160008152602001606081525090565b6040518060a00160405280600073ffffffffffffffffffffffffffffffffffffffff168152602001600080191681526020016060815260200160608152602001606081525090565b604051806101400160405280600073ffffffffffffffffffffffffffffffffffffffff1681526020016000801916815260200160008152602001600081526020016000815260200160608152602001606081526020016000815260200160008152602001600081525090565b5b80821115612a085760008160009055506001016129f0565b5090565b600081359050612a1b81613e36565b92915050565b600082601f830112612a3257600080fd5b8135612a45612a4082613bc0565b613b93565b91508082526020830160208301858383011115612a6157600080fd5b612a6c838284613d96565b50505092915050565b600081359050612a8481613e4d565b92915050565b600060208284031215612a9c57600080fd5b6000612aaa84828501612a0c565b91505092915050565b60008060408385031215612ac657600080fd5b6000612ad485828601612a0c565b925050602083013567ffffffffffffffff811115612af157600080fd5b612afd85828601612a21565b9150509250929050565b600080600080600060a08688031215612b1f57600080fd5b6000612b2d88828901612a0c565b955050602086013567ffffffffffffffff811115612b4a57600080fd5b612b5688828901612a21565b9450506040612b6788828901612a75565b935050606086013567ffffffffffffffff811115612b8457600080fd5b612b9088828901612a21565b9250506080612ba188828901612a75565b9150509295509295909350565b600080600060608486031215612bc357600080fd5b600084013567ffffffffffffffff811115612bdd57600080fd5b612be986828701612a21565b935050602084013567ffffffffffffffff811115612c0657600080fd5b612c1286828701612a21565b925050604084013567ffffffffffffffff811115612c2f57600080fd5b612c3b86828701612a21565b9150509250925092565b60008060008060808587031215612c5b57600080fd5b600085013567ffffffffffffffff811115612c7557600080fd5b612c8187828801612a21565b9450506020612c9287828801612a75565b935050604085013567ffffffffffffffff811115612caf57600080fd5b612cbb87828801612a21565b9250506060612ccc87828801612a75565b91505092959194509250565b6000612ce48383612f44565b60208301905092915050565b6000612cfc83836133d8565b905092915050565b6000612d10838361344e565b905092915050565b6000612d248383613610565b905092915050565b612d3581613d60565b82525050565b612d4c612d4782613d1a565b613dea565b82525050565b612d5b81613d08565b82525050565b612d6a81613d08565b82525050565b612d81612d7c82613d08565b613dd8565b82525050565b6000612d9282613c2c565b612d9c8185613c97565b9350612da783613bec565b8060005b83811015612dd8578151612dbf8882612cd8565b9750612dca83613c63565b925050600181019050612dab565b5085935050505092915050565b6000612df082613c37565b612dfa8185613ca8565b935083602082028501612e0c85613bfc565b8060005b85811015612e485784840389528151612e298582612cf0565b9450612e3483613c70565b925060208a01995050600181019050612e10565b50829750879550505050505092915050565b6000612e6582613c42565b612e6f8185613cb9565b935083602082028501612e8185613c0c565b8060005b85811015612ebd5784840389528151612e9e8582612d04565b9450612ea983613c7d565b925060208a01995050600181019050612e85565b50829750879550505050505092915050565b6000612eda82613c4d565b612ee48185613cca565b935083602082028501612ef685613c1c565b8060005b85811015612f325784840389528151612f138582612d18565b9450612f1e83613c8a565b925060208a01995050600181019050612efa565b50829750879550505050505092915050565b612f4d81613d2c565b82525050565b612f5c81613d2c565b82525050565b6000612f6d82613c58565b612f778185613cdb565b9350612f87818560208601613da5565b612f9081613e18565b840191505092915050565b6000612fa682613c58565b612fb08185613cfd565b9350612fc0818560208601613da5565b80840191505092915050565b6000612fd9601783613cec565b91507f636f6e747269627574696f6e207375636365737366756c0000000000000000006000830152602082019050919050565b6000613019600e83613cec565b91507f66756e64657220757064617465640000000000000000000000000000000000006000830152602082019050919050565b6000613059601583613cec565b91507f7769746864726177616c207375636365737366756c00000000000000000000006000830152602082019050919050565b6000613099601783613cec565b91507f6d757374206265206f776e657220746f207570646174650000000000000000006000830152602082019050919050565b60006130d9601483613cec565b91507f667269656e6420616c72656164792061646465640000000000000000000000006000830152602082019050919050565b6000613119602c83613cec565b91507f6d7573742063726561746520686f6d652070616765206265666f72652063726560008301527f6174696e672066756e64657200000000000000000000000000000000000000006020830152604082019050919050565b600061317f601b83613cec565b91507f64657620616c726561647920686173206120686f6d65207061676500000000006000830152602082019050919050565b60006131bf600c83613cec565b91507f756e617574686f72697a656400000000000000000000000000000000000000006000830152602082019050919050565b60006131ff600f83613cec565b91507f6163636f756e74207570646174656400000000000000000000000000000000006000830152602082019050919050565b600061323f600e83613cec565b91507f66756e64657220637265617465640000000000000000000000000000000000006000830152602082019050919050565b600061327f600f83613cec565b91507f6163636f756e74206372656174656400000000000000000000000000000000006000830152602082019050919050565b60006132bf601483613cec565b91507f6e6f2066756e647320746f2077697468647261770000000000000000000000006000830152602082019050919050565b60006132ff602483613cec565b91507f796f752063616e6e6f742061646420796f757273656c6620617320612066726960008301527f656e6420000000000000000000000000000000000000000000000000000000006020830152604082019050919050565b6000613365601b83613cec565b91507f75736572206163636f756e7420646f6573206e6f7420657869737400000000006000830152602082019050919050565b60006133a5601c83613cec565b91507f7573657220616c726561647920686173206120686f6d652070616765000000006000830152602082019050919050565b600060a0830160008301516133f06000860182612f44565b5060208301516134036020860182613718565b5060408301516134166040860182612d52565b5060608301516134296060860182613718565b50608083015184820360808601526134418282612f62565b9150508091505092915050565b6000610140830160008301516134676000860182612d52565b50602083015161347a6020860182612f44565b50604083015161348d6040860182613718565b5060608301516134a06060860182613718565b5060808301516134b36080860182613718565b5060a083015184820360a08601526134cb8282612f62565b91505060c083015184820360c08601526134e58282612f62565b91505060e08301516134fa60e0860182613718565b5061010083015161350f610100860182613718565b50610120830151613524610120860182613718565b508091505092915050565b6000610140830160008301516135486000860182612d52565b50602083015161355b6020860182612f44565b50604083015161356e6040860182613718565b5060608301516135816060860182613718565b5060808301516135946080860182613718565b5060a083015184820360a08601526135ac8282612f62565b91505060c083015184820360c08601526135c68282612f62565b91505060e08301516135db60e0860182613718565b506101008301516135f0610100860182613718565b50610120830151613605610120860182613718565b508091505092915050565b600060a0830160008301516136286000860182612d52565b50602083015161363b6020860182612f44565b50604083015184820360408601526136538282612f62565b9150506060830151848203606086015261366d8282612f62565b915050608083015184820360808601526136878282612f62565b9150508091505092915050565b600060a0830160008301516136ac6000860182612d52565b5060208301516136bf6020860182612f44565b50604083015184820360408601526136d78282612f62565b915050606083015184820360608601526136f18282612f62565b9150506080830151848203608086015261370b8282612f62565b9150508091505092915050565b61372181613d56565b82525050565b61373081613d56565b82525050565b61374761374282613d56565b613e0e565b82525050565b60006137598287613736565b6020820191506137698286612d3b565b6014820191506137798285613736565b6020820191506137898284612f9b565b915081905095945050505050565b60006137a38288613736565b6020820191506137b38287612d70565b6014820191506137c38286612f9b565b91506137cf8285612f9b565b91506137db8284612f9b565b91508190509695505050505050565b60006137f68288613736565b6020820191506138068287612d70565b6014820191506138168286612f9b565b91506138228285612f9b565b915061382e8284613736565b6020820191508190509695505050505050565b60006060820190506138566000830185612d2c565b818103602083015261386781612fcc565b90506138766040830184613727565b9392505050565b60006060820190506138926000830185612d2c565b81810360208301526138a38161304c565b90506138b26040830184613727565b9392505050565b60006040820190506138ce6000830184612d2c565b81810360208301526138df816131f2565b905092915050565b60006040820190506138fc6000830184612d61565b818103602083015261390d8161300c565b905092915050565b600060408201905061392a6000830184612d61565b818103602083015261393b81613232565b905092915050565b60006040820190506139586000830184612d61565b818103602083015261396981613272565b905092915050565b6000602082019050818103600083015261398b8184612d87565b905092915050565b600060208201905081810360008301526139ad8184612de5565b905092915050565b600060208201905081810360008301526139cf8184612e5a565b905092915050565b600060208201905081810360008301526139f18184612ecf565b905092915050565b6000602082019050613a0e6000830184612f53565b92915050565b60006020820190508181036000830152613a2d8161308c565b9050919050565b60006020820190508181036000830152613a4d816130cc565b9050919050565b60006020820190508181036000830152613a6d8161310c565b9050919050565b60006020820190508181036000830152613a8d81613172565b9050919050565b60006020820190508181036000830152613aad816131b2565b9050919050565b60006020820190508181036000830152613acd816132b2565b9050919050565b60006020820190508181036000830152613aed816132f2565b9050919050565b60006020820190508181036000830152613b0d81613358565b9050919050565b60006020820190508181036000830152613b2d81613398565b9050919050565b60006020820190508181036000830152613b4e818461352f565b905092915050565b60006020820190508181036000830152613b708184613694565b905092915050565b6000602082019050613b8d6000830184613727565b92915050565b6000604051905081810181811067ffffffffffffffff82111715613bb657600080fd5b8060405250919050565b600067ffffffffffffffff821115613bd757600080fd5b601f19601f8301169050602081019050919050565b6000819050602082019050919050565b6000819050602082019050919050565b6000819050602082019050919050565b6000819050602082019050919050565b600081519050919050565b600081519050919050565b600081519050919050565b600081519050919050565b600081519050919050565b6000602082019050919050565b6000602082019050919050565b6000602082019050919050565b6000602082019050919050565b600082825260208201905092915050565b600082825260208201905092915050565b600082825260208201905092915050565b600082825260208201905092915050565b600082825260208201905092915050565b600082825260208201905092915050565b600081905092915050565b6000613d1382613d36565b9050919050565b6000613d2582613d36565b9050919050565b6000819050919050565b600073ffffffffffffffffffffffffffffffffffffffff82169050919050565b6000819050919050565b6000613d6b82613d72565b9050919050565b6000613d7d82613d84565b9050919050565b6000613d8f82613d36565b9050919050565b82818337600083830152505050565b60005b83811015613dc3578082015181840152602081019050613da8565b83811115613dd2576000848401525b50505050565b6000613de382613dfc565b9050919050565b6000613df582613dfc565b9050919050565b6000613e0782613e29565b9050919050565b6000819050919050565b6000601f19601f8301169050919050565b60008160601b9050919050565b613e3f81613d2c565b8114613e4a57600080fd5b50565b613e5681613d56565b8114613e6157600080fd5b5056fea264697066735822122086f56a5a29e17b15eadd9bc6e704319ce8d27186ea62b573fd0345e36edfddf864736f6c63430007000033",
  "immutableReferences": {},
  "source": "pragma solidity >=0.7.0 <0.8.0;\npragma experimental ABIEncoderV2;\n\ncontract PleaseFundMe {\n    event InteractionSuccess(address sender, string message);\n    event TransferSuccess(address sender, string transaction, uint amount);\n    \n    struct Funder {\n        address owner;\n        bytes32 id;\n        uint startDate;\n        uint endDate;\n        uint updatedAt;\n        string title;\n        string description;\n        uint fundTarget;\n        uint fundBalance;\n        uint amountRaised;\n    }\n    \n    struct User {\n        address owner;\n        bytes32 id;\n        string username;\n        string aboutMe;\n        string backgroundGradient;\n    }\n    \n    struct Contribution {\n        bytes32 id;\n        uint timeCreated;\n        address contributer;\n        uint amount;\n        string message;\n    }\n    \n    mapping (bytes32 => Contribution) contributions;\n    mapping (bytes32 => bytes32[]) funderContributions;\n    bytes32[] private contributionIndex;\n    \n    mapping (bytes32 => User) users;\n    bytes32[] private userIndex;\n    mapping (bytes32 => bytes32[]) userFriends;\n    mapping (bytes32 => mapping (bytes32 => bool)) friendMap;\n    \n    mapping (address => bytes32) ownerToUserId;\n    \n    mapping (bytes32 => Funder) funders;\n    bytes32[] private funderIndex;\n    mapping (bytes32 => bytes32[]) ownerFunders;\n    \n    address payable _developerAddress;\n    \n    constructor() {\n        _createHomePage(msg.sender, 'dev', 'developer page', 'blue');\n        _developerAddress = msg.sender;\n    }\n    \n    function getAccounts() public view returns(User[] memory) {\n        uint userCount = userIndex.length;\n        User[] memory _users = new User[](userCount);\n        for(uint i = 0; i < userCount; i++) {\n            _users[i] = users[userIndex[i]];\n        }\n        return _users;\n    }\n\n    function addFriend(bytes32 _friend) public {\n        bytes32 _user = ownerToUserId[msg.sender];\n        require(ownerToUserId[msg.sender] != 0, 'user account does not exist'); // require user has an account\n        require(_user != _friend, 'you cannot add yourself as a friend ');\n        require(!friendMap[_user][_friend], 'friend already added'); // require not existing friend\n        userFriends[_user].push(_friend);\n        friendMap[_user][_friend] = true;\n    }\n    \n    function getUserFriends(bytes32 _user) public view returns (User[] memory) {\n        uint friendsCount = userFriends[_user].length;\n        User[] memory _userFriends = new User[](friendsCount);\n        for (uint i = 0; i < friendsCount; i++) {\n            _userFriends[i] = users[userFriends[_user][i]];\n        }\n        return _userFriends;\n    }\n    \n    function getAccountById (bytes32 _id) public view returns(User memory) {\n        return users[_id];\n    }\n    \n    function getUserIndex() public view returns(bytes32[] memory) {\n        return userIndex;\n    }\n    \n    function getUserCount() public view returns(uint) {\n        return userIndex.length;\n    }\n    \n    function getUserId() public view returns(bytes32) {\n        return ownerToUserId[msg.sender];\n    }\n    \n    \n    function createHomePage(string memory _username, string memory _aboutMe, string memory _backgroundGradient) public {\n        bytes32 _id = ownerToUserId[msg.sender];\n        require(msg.sender != _developerAddress, 'dev already has a home page');\n        require(_id == 0, 'user already has a home page'); // enforce only one User per address\n        _createHomePage(msg.sender, _username, _aboutMe, _backgroundGradient);\n    }\n    \n    function _createHomePage(address _sender, string memory _username, string memory _aboutMe, string memory _backgroundGradient) internal {\n        bytes32 _id = keccak256(abi.encodePacked(block.timestamp, _sender, _username, _aboutMe, _backgroundGradient));\n        User memory newUser = User(_sender, _id, _username, _aboutMe, _backgroundGradient);\n        users[_id] = newUser; // add the new user\n        ownerToUserId[_sender] = _id;\n        userIndex.push(_id);\n        emit InteractionSuccess(_sender, 'account created');\n    }\n    \n    function updateHomePage(string memory _username, string memory _aboutMe, string memory _backgroundGradient) public {\n        bytes32 _id = ownerToUserId[msg.sender];\n        require(users[_id].owner == msg.sender);\n        users[_id].username = _username;\n        users[_id].aboutMe = _aboutMe;\n        users[_id].backgroundGradient = _backgroundGradient;\n        emit InteractionSuccess(msg.sender, 'account updated');\n    }\n    \n    function createFunder(string memory _title, uint _fundTarget, string memory _description, uint _endDate) public {\n        bytes32 _id = ownerToUserId[msg.sender];\n        if (_id == 0) {\n            require(msg.sender == _developerAddress, 'must create home page before creating funder');\n        }\n        _createFunder(msg.sender, _title, _fundTarget, _description, _endDate);\n    }\n    \n    \n    function _createFunder(address _sender, string memory _title, uint _fundTarget, string memory _description, uint _endDate) internal {\n        bytes32 _userId = ownerToUserId[_sender];\n        bytes32 _funderId = keccak256(abi.encodePacked(block.timestamp, _sender, _title, _description, _fundTarget));\n        funders[_funderId] = Funder(_sender, _funderId, block.timestamp, _endDate, block.timestamp, _title, _description, _fundTarget, 0, 0);\n        ownerFunders[_userId].push(_funderId);\n        funderIndex.push(_funderId);\n        emit InteractionSuccess(_sender, 'funder created');\n    }\n    \n    function updateFunder(bytes32 _funderId, string memory _title, uint _fundTarget, string memory _description, uint _endDate) public {\n        address _sender = msg.sender;\n        require(funders[_funderId].owner == _sender, 'must be owner to update');\n        funders[_funderId].title = _title;\n        funders[_funderId].description = _description;\n        funders[_funderId].fundTarget = _fundTarget;\n        funders[_funderId].endDate = _endDate;\n        funders[_funderId].updatedAt = block.timestamp;\n        emit InteractionSuccess(_sender, 'funder updated');\n    }\n    \n    function getUserFunders(bytes32 _userId) public view returns(Funder[] memory) {\n        uint _fundersCount = ownerFunders[_userId].length;\n        Funder[] memory _userFunders = new Funder[](_fundersCount);\n        for (uint i = 0; i < _fundersCount; i++) {\n            _userFunders[i] = funders[ownerFunders[_userId][i]];\n        }\n        return _userFunders;\n    }\n    \n    function getAllFunders() public view returns (Funder[] memory) {\n        uint _fundersCount = funderIndex.length;\n        Funder[] memory _funders = new Funder[](_fundersCount);\n        for (uint i = 0; i < _fundersCount; i++) {\n            _funders[i] = funders[funderIndex[i]];\n        }\n        return _funders;\n    }\n    \n    function getFunderById(bytes32 _funderId) public view returns(Funder memory) {\n        return funders[_funderId];\n    }\n    \n    function contribute(bytes32 _funderId, string memory _message) payable public {\n        uint contribution = msg.value;\n        Funder storage funder = funders[_funderId];\n        funder.fundBalance += contribution;\n        funder.amountRaised += contribution;\n        \n        bytes32 _contributionId = keccak256(abi.encodePacked(block.timestamp, msg.sender, msg.value, _message));\n        contributions[_contributionId] = Contribution(_contributionId, block.timestamp, msg.sender, msg.value, _message);\n        funderContributions[_funderId].push(_contributionId);\n        contributionIndex.push(_contributionId);\n        emit TransferSuccess(msg.sender, 'contribution successful', msg.value);\n    }\n    \n    function getFunderContributions(bytes32 _funderId) public view returns(Contribution[] memory) {\n        uint funderCount = funderContributions[_funderId].length;\n        Contribution[] memory _funderContributions = new Contribution[](funderCount);\n        for (uint i = 0; i < funderCount; i++) {\n            _funderContributions[i] = contributions[funderContributions[_funderId][i]];\n        }\n        return _funderContributions;\n    }\n    \n    function getAllContributions() public view returns(Contribution[] memory) {\n        uint funderCount = contributionIndex.length;\n        Contribution[] memory _contributions = new Contribution[](funderCount);\n        for (uint i = 0; i < funderCount; i++) {\n            _contributions[i] = contributions[contributionIndex[i]];\n        }\n        return _contributions;\n    }\n    \n    function withdraw(bytes32 _funderId) public payable {\n        Funder storage funder = funders[_funderId];\n        uint totalFunds = funder.fundBalance;\n        uint devFunds = totalFunds / 1000;\n        uint withdrawalFunds = totalFunds - devFunds;\n        require(totalFunds > 0, 'no funds to withdraw');\n        require(funder.owner == msg.sender, \"unauthorized\");\n        funder.fundBalance = 0;\n        _developerAddress.transfer(devFunds);\n        msg.sender.transfer(withdrawalFunds);\n        emit TransferSuccess(msg.sender, 'withdrawal successful', withdrawalFunds);\n    }\n}",
  "sourcePath": "/Users/tsuji/Dev/PleaseFundMe/contracts/PleaseFundMe.sol",
  "compiler": {
    "name": "solc",
    "version": "0.7.0+commit.9e61f92b.Emscripten.clang"
  },
  "schemaVersion": "3.2.5",
  "updatedAt": "2021-05-30T16:45:38.447Z",
  "networkType": "ethereum",
  "devdoc": {
    "kind": "dev",
    "methods": {},
    "version": 1
  },
  "userdoc": {
    "kind": "user",
    "methods": {},
    "version": 1
  }
}