{
  "contractName": "PleaseFundMe",
  "abi": [
    {
      "inputs": [],
      "stateMutability": "nonpayable",
      "type": "constructor"
    },
    {
      "anonymous": false,
      "inputs": [
        {
          "indexed": false,
          "internalType": "address",
          "name": "sender",
          "type": "address"
        },
        {
          "indexed": false,
          "internalType": "string",
          "name": "message",
          "type": "string"
        }
      ],
      "name": "InteractionSuccess",
      "type": "event"
    },
    {
      "anonymous": false,
      "inputs": [
        {
          "indexed": false,
          "internalType": "address",
          "name": "sender",
          "type": "address"
        },
        {
          "indexed": false,
          "internalType": "string",
          "name": "transaction",
          "type": "string"
        },
        {
          "indexed": false,
          "internalType": "uint256",
          "name": "amount",
          "type": "uint256"
        }
      ],
      "name": "TransferSuccess",
      "type": "event"
    },
    {
      "inputs": [],
      "name": "getAccounts",
      "outputs": [
        {
          "components": [
            {
              "internalType": "address",
              "name": "owner",
              "type": "address"
            },
            {
              "internalType": "bytes32",
              "name": "id",
              "type": "bytes32"
            },
            {
              "internalType": "string",
              "name": "username",
              "type": "string"
            },
            {
              "internalType": "string",
              "name": "aboutMe",
              "type": "string"
            },
            {
              "internalType": "string",
              "name": "backgroundGradient",
              "type": "string"
            }
          ],
          "internalType": "struct PleaseFundMe.User[]",
          "name": "",
          "type": "tuple[]"
        }
      ],
      "stateMutability": "view",
      "type": "function",
      "constant": true
    },
    {
      "inputs": [
        {
          "internalType": "bytes32",
          "name": "_friend",
          "type": "bytes32"
        }
      ],
      "name": "addFriend",
      "outputs": [],
      "stateMutability": "nonpayable",
      "type": "function"
    },
    {
      "inputs": [
        {
          "internalType": "bytes32",
          "name": "_user",
          "type": "bytes32"
        }
      ],
      "name": "getUserFriends",
      "outputs": [
        {
          "components": [
            {
              "internalType": "address",
              "name": "owner",
              "type": "address"
            },
            {
              "internalType": "bytes32",
              "name": "id",
              "type": "bytes32"
            },
            {
              "internalType": "string",
              "name": "username",
              "type": "string"
            },
            {
              "internalType": "string",
              "name": "aboutMe",
              "type": "string"
            },
            {
              "internalType": "string",
              "name": "backgroundGradient",
              "type": "string"
            }
          ],
          "internalType": "struct PleaseFundMe.User[]",
          "name": "",
          "type": "tuple[]"
        }
      ],
      "stateMutability": "view",
      "type": "function",
      "constant": true
    },
    {
      "inputs": [
        {
          "internalType": "bytes32",
          "name": "_id",
          "type": "bytes32"
        }
      ],
      "name": "getAccountByid",
      "outputs": [
        {
          "components": [
            {
              "internalType": "address",
              "name": "owner",
              "type": "address"
            },
            {
              "internalType": "bytes32",
              "name": "id",
              "type": "bytes32"
            },
            {
              "internalType": "string",
              "name": "username",
              "type": "string"
            },
            {
              "internalType": "string",
              "name": "aboutMe",
              "type": "string"
            },
            {
              "internalType": "string",
              "name": "backgroundGradient",
              "type": "string"
            }
          ],
          "internalType": "struct PleaseFundMe.User",
          "name": "",
          "type": "tuple"
        }
      ],
      "stateMutability": "view",
      "type": "function",
      "constant": true
    },
    {
      "inputs": [],
      "name": "getUserIndex",
      "outputs": [
        {
          "internalType": "bytes32[]",
          "name": "",
          "type": "bytes32[]"
        }
      ],
      "stateMutability": "view",
      "type": "function",
      "constant": true
    },
    {
      "inputs": [],
      "name": "getUserCount",
      "outputs": [
        {
          "internalType": "uint256",
          "name": "",
          "type": "uint256"
        }
      ],
      "stateMutability": "view",
      "type": "function",
      "constant": true
    },
    {
      "inputs": [],
      "name": "getUserId",
      "outputs": [
        {
          "internalType": "bytes32",
          "name": "",
          "type": "bytes32"
        }
      ],
      "stateMutability": "view",
      "type": "function",
      "constant": true
    },
    {
      "inputs": [
        {
          "internalType": "string",
          "name": "_username",
          "type": "string"
        },
        {
          "internalType": "string",
          "name": "_aboutMe",
          "type": "string"
        },
        {
          "internalType": "string",
          "name": "_backgroundGradient",
          "type": "string"
        }
      ],
      "name": "createHomePage",
      "outputs": [],
      "stateMutability": "nonpayable",
      "type": "function"
    },
    {
      "inputs": [
        {
          "internalType": "string",
          "name": "_username",
          "type": "string"
        },
        {
          "internalType": "string",
          "name": "_aboutMe",
          "type": "string"
        },
        {
          "internalType": "string",
          "name": "_backgroundGradient",
          "type": "string"
        }
      ],
      "name": "updateHomePage",
      "outputs": [],
      "stateMutability": "nonpayable",
      "type": "function"
    },
    {
      "inputs": [
        {
          "internalType": "string",
          "name": "_title",
          "type": "string"
        },
        {
          "internalType": "uint256",
          "name": "_fundTarget",
          "type": "uint256"
        },
        {
          "internalType": "string",
          "name": "_description",
          "type": "string"
        },
        {
          "internalType": "uint256",
          "name": "_endDate",
          "type": "uint256"
        }
      ],
      "name": "createFunder",
      "outputs": [],
      "stateMutability": "nonpayable",
      "type": "function"
    },
    {
      "inputs": [
        {
          "internalType": "bytes32",
          "name": "_funderId",
          "type": "bytes32"
        },
        {
          "internalType": "string",
          "name": "_title",
          "type": "string"
        },
        {
          "internalType": "uint256",
          "name": "_fundTarget",
          "type": "uint256"
        },
        {
          "internalType": "string",
          "name": "_description",
          "type": "string"
        },
        {
          "internalType": "uint256",
          "name": "_endDate",
          "type": "uint256"
        }
      ],
      "name": "updateFunder",
      "outputs": [],
      "stateMutability": "nonpayable",
      "type": "function"
    },
    {
      "inputs": [
        {
          "internalType": "bytes32",
          "name": "_userId",
          "type": "bytes32"
        }
      ],
      "name": "getUserFunders",
      "outputs": [
        {
          "components": [
            {
              "internalType": "address",
              "name": "owner",
              "type": "address"
            },
            {
              "internalType": "bytes32",
              "name": "id",
              "type": "bytes32"
            },
            {
              "internalType": "uint256",
              "name": "startDate",
              "type": "uint256"
            },
            {
              "internalType": "uint256",
              "name": "endDate",
              "type": "uint256"
            },
            {
              "internalType": "uint256",
              "name": "updatedAt",
              "type": "uint256"
            },
            {
              "internalType": "string",
              "name": "title",
              "type": "string"
            },
            {
              "internalType": "string",
              "name": "description",
              "type": "string"
            },
            {
              "internalType": "uint256",
              "name": "fundTarget",
              "type": "uint256"
            },
            {
              "internalType": "uint256",
              "name": "fundBalance",
              "type": "uint256"
            },
            {
              "internalType": "uint256",
              "name": "amountRaised",
              "type": "uint256"
            }
          ],
          "internalType": "struct PleaseFundMe.Funder[]",
          "name": "",
          "type": "tuple[]"
        }
      ],
      "stateMutability": "view",
      "type": "function",
      "constant": true
    },
    {
      "inputs": [],
      "name": "getAllFunders",
      "outputs": [
        {
          "components": [
            {
              "internalType": "address",
              "name": "owner",
              "type": "address"
            },
            {
              "internalType": "bytes32",
              "name": "id",
              "type": "bytes32"
            },
            {
              "internalType": "uint256",
              "name": "startDate",
              "type": "uint256"
            },
            {
              "internalType": "uint256",
              "name": "endDate",
              "type": "uint256"
            },
            {
              "internalType": "uint256",
              "name": "updatedAt",
              "type": "uint256"
            },
            {
              "internalType": "string",
              "name": "title",
              "type": "string"
            },
            {
              "internalType": "string",
              "name": "description",
              "type": "string"
            },
            {
              "internalType": "uint256",
              "name": "fundTarget",
              "type": "uint256"
            },
            {
              "internalType": "uint256",
              "name": "fundBalance",
              "type": "uint256"
            },
            {
              "internalType": "uint256",
              "name": "amountRaised",
              "type": "uint256"
            }
          ],
          "internalType": "struct PleaseFundMe.Funder[]",
          "name": "",
          "type": "tuple[]"
        }
      ],
      "stateMutability": "view",
      "type": "function",
      "constant": true
    },
    {
      "inputs": [
        {
          "internalType": "bytes32",
          "name": "_funderId",
          "type": "bytes32"
        }
      ],
      "name": "getFunderById",
      "outputs": [
        {
          "components": [
            {
              "internalType": "address",
              "name": "owner",
              "type": "address"
            },
            {
              "internalType": "bytes32",
              "name": "id",
              "type": "bytes32"
            },
            {
              "internalType": "uint256",
              "name": "startDate",
              "type": "uint256"
            },
            {
              "internalType": "uint256",
              "name": "endDate",
              "type": "uint256"
            },
            {
              "internalType": "uint256",
              "name": "updatedAt",
              "type": "uint256"
            },
            {
              "internalType": "string",
              "name": "title",
              "type": "string"
            },
            {
              "internalType": "string",
              "name": "description",
              "type": "string"
            },
            {
              "internalType": "uint256",
              "name": "fundTarget",
              "type": "uint256"
            },
            {
              "internalType": "uint256",
              "name": "fundBalance",
              "type": "uint256"
            },
            {
              "internalType": "uint256",
              "name": "amountRaised",
              "type": "uint256"
            }
          ],
          "internalType": "struct PleaseFundMe.Funder",
          "name": "",
          "type": "tuple"
        }
      ],
      "stateMutability": "view",
      "type": "function",
      "constant": true
    },
    {
      "inputs": [
        {
          "internalType": "bytes32",
          "name": "_funderId",
          "type": "bytes32"
        },
        {
          "internalType": "string",
          "name": "_message",
          "type": "string"
        }
      ],
      "name": "contribute",
      "outputs": [],
      "stateMutability": "payable",
      "type": "function",
      "payable": true
    },
    {
      "inputs": [
        {
          "internalType": "bytes32",
          "name": "_funderId",
          "type": "bytes32"
        }
      ],
      "name": "getFunderContributions",
      "outputs": [
        {
          "components": [
            {
              "internalType": "bytes32",
              "name": "id",
              "type": "bytes32"
            },
            {
              "internalType": "uint256",
              "name": "timeCreated",
              "type": "uint256"
            },
            {
              "internalType": "address",
              "name": "contributer",
              "type": "address"
            },
            {
              "internalType": "uint256",
              "name": "amount",
              "type": "uint256"
            },
            {
              "internalType": "string",
              "name": "message",
              "type": "string"
            }
          ],
          "internalType": "struct PleaseFundMe.Contribution[]",
          "name": "",
          "type": "tuple[]"
        }
      ],
      "stateMutability": "view",
      "type": "function",
      "constant": true
    },
    {
      "inputs": [],
      "name": "getAllContributions",
      "outputs": [
        {
          "components": [
            {
              "internalType": "bytes32",
              "name": "id",
              "type": "bytes32"
            },
            {
              "internalType": "uint256",
              "name": "timeCreated",
              "type": "uint256"
            },
            {
              "internalType": "address",
              "name": "contributer",
              "type": "address"
            },
            {
              "internalType": "uint256",
              "name": "amount",
              "type": "uint256"
            },
            {
              "internalType": "string",
              "name": "message",
              "type": "string"
            }
          ],
          "internalType": "struct PleaseFundMe.Contribution[]",
          "name": "",
          "type": "tuple[]"
        }
      ],
      "stateMutability": "view",
      "type": "function",
      "constant": true
    },
    {
      "inputs": [
        {
          "internalType": "bytes32",
          "name": "_funderId",
          "type": "bytes32"
        }
      ],
      "name": "withdraw",
      "outputs": [],
      "stateMutability": "payable",
      "type": "function",
      "payable": true
    }
  ],
  "bytecode": "0x60806040523480156200001157600080fd5b50620000c5336040518060400160405280600381526020017f64657600000000000000000000000000000000000000000000000000000000008152506040518060400160405280600e81526020017f646576656c6f70657220706167650000000000000000000000000000000000008152506040518060400160405280600481526020017f626c7565000000000000000000000000000000000000000000000000000000008152506200010c60201b60201c565b33600b60006101000a81548173ffffffffffffffffffffffffffffffffffffffff021916908373ffffffffffffffffffffffffffffffffffffffff16021790555062000614565b6000428585858560405160200162000129959493929190620004ab565b6040516020818303038152906040528051906020012090506200014b620002fd565b6040518060a001604052808773ffffffffffffffffffffffffffffffffffffffff168152602001838152602001868152602001858152602001848152509050806003600084815260200190815260200160002060008201518160000160006101000a81548173ffffffffffffffffffffffffffffffffffffffff021916908373ffffffffffffffffffffffffffffffffffffffff1602179055506020820151816001015560408201518160020190805190602001906200020d92919062000345565b5060608201518160030190805190602001906200022c92919062000345565b5060808201518160040190805190602001906200024b92919062000345565b5090505081600760008873ffffffffffffffffffffffffffffffffffffffff1673ffffffffffffffffffffffffffffffffffffffff1681526020019081526020016000208190555060048290806001815401808255809150506001900390600052602060002001600090919091909150557f0e11c19254e459389b3807518c61779a0f27b49f561ef1b03caac6f648ff58bf86604051620002ed919062000508565b60405180910390a1505050505050565b6040518060a00160405280600073ffffffffffffffffffffffffffffffffffffffff168152602001600080191681526020016060815260200160608152602001606081525090565b828054600181600116156101000203166002900490600052602060002090601f016020900481019282601f106200038857805160ff1916838001178555620003b9565b82800160010185558215620003b9579182015b82811115620003b85782518255916020019190600101906200039b565b5b509050620003c89190620003cc565b5090565b5b80821115620003e7576000816000905550600101620003cd565b5090565b620003f68162000561565b82525050565b620004116200040b8262000561565b620005d5565b82525050565b600062000424826200053a565b62000430818562000556565b9350620004428185602086016200059f565b80840191505092915050565b60006200045d600f8362000545565b91507f6163636f756e74206372656174656400000000000000000000000000000000006000830152602082019050919050565b620004a56200049f8262000595565b620005fd565b82525050565b6000620004b9828862000490565b602082019150620004cb8287620003fc565b601482019150620004dd828662000417565b9150620004eb828562000417565b9150620004f9828462000417565b91508190509695505050505050565b60006040820190506200051f6000830184620003eb565b818103602083015262000532816200044e565b905092915050565b600081519050919050565b600082825260208201905092915050565b600081905092915050565b60006200056e8262000575565b9050919050565b600073ffffffffffffffffffffffffffffffffffffffff82169050919050565b6000819050919050565b60005b83811015620005bf578082015181840152602081019050620005a2565b83811115620005cf576000848401525b50505050565b6000620005e282620005e9565b9050919050565b6000620005f68262000607565b9050919050565b6000819050919050565b60008160601b9050919050565b613edf80620006246000396000f3fe6080604052600436106101095760003560e01c80638a48ac0311610095578063b6b762b411610064578063b6b762b41461034a578063b732e43914610387578063e7ac8c45146103b0578063eefa499d146103ed578063f1b6a2e21461040957610109565b80638a48ac031461029b5780638e19899e146102c6578063a7bac69f146102e2578063b5cb15f71461031f57610109565b806337f3061d116100dc57806337f3061d146101b45780634c36b99f146101df5780635c7561be146102085780636ec0c8aa146102455780636fbbb55d1461027057610109565b806304712d911461010e5780630bbda5e5146101375780632836b3c3146101605780632ebcb65314610189575b600080fd5b34801561011a57600080fd5b5061013560048036038101906101309190612c8a565b610446565b005b34801561014357600080fd5b5061015e60048036038101906101599190612b4c565b61053a565b005b34801561016c57600080fd5b5061018760048036038101906101829190612acf565b61070e565b005b34801561019557600080fd5b5061019e610907565b6040516101ab9190613a3e565b60405180910390f35b3480156101c057600080fd5b506101c961094e565b6040516101d691906139d8565b60405180910390f35b3480156101eb57600080fd5b5061020660048036038101906102019190612bf3565b610b32565b005b34801561021457600080fd5b5061022f600480360381019061022a9190612acf565b610ca2565b60405161023c9190613a1c565b60405180910390f35b34801561025157600080fd5b5061025a610fdb565b60405161026791906139b6565b60405180910390f35b34801561027c57600080fd5b50610285611033565b60405161029291906139fa565b60405180910390f35b3480156102a757600080fd5b506102b06112e3565b6040516102bd9190613a1c565b60405180910390f35b6102e060048036038101906102db9190612acf565b6115f8565b005b3480156102ee57600080fd5b5061030960048036038101906103049190612acf565b6117fe565b60405161031691906139fa565b60405180910390f35b34801561032b57600080fd5b50610334611ad2565b6040516103419190613bbd565b60405180910390f35b34801561035657600080fd5b50610371600480360381019061036c9190612acf565b611adf565b60405161037e9190613b79565b60405180910390f35b34801561039357600080fd5b506103ae60048036038101906103a99190612bf3565b611ced565b005b3480156103bc57600080fd5b506103d760048036038101906103d29190612acf565b611e19565b6040516103e491906139d8565b60405180910390f35b61040760048036038101906104029190612af8565b612021565b005b34801561041557600080fd5b50610430600480360381019061042b9190612acf565b612209565b60405161043d9190613b9b565b60405180910390f35b6000600760003373ffffffffffffffffffffffffffffffffffffffff1673ffffffffffffffffffffffffffffffffffffffff1681526020019081526020016000205490506000801b81141561052657600b60009054906101000a900473ffffffffffffffffffffffffffffffffffffffff1673ffffffffffffffffffffffffffffffffffffffff163373ffffffffffffffffffffffffffffffffffffffff1614610525576040517f08c379a000000000000000000000000000000000000000000000000000000000815260040161051c90613a99565b60405180910390fd5b5b610533338686868661247c565b5050505050565b60003390506000600760008373ffffffffffffffffffffffffffffffffffffffff1673ffffffffffffffffffffffffffffffffffffffff1681526020019081526020016000205490508173ffffffffffffffffffffffffffffffffffffffff166003600083815260200190815260200160002060000160009054906101000a900473ffffffffffffffffffffffffffffffffffffffff1673ffffffffffffffffffffffffffffffffffffffff1614610627576040517f08c379a000000000000000000000000000000000000000000000000000000000815260040161061e90613a59565b60405180910390fd5b856008600089815260200190815260200160002060050190805190602001906106519291906128b8565b508360086000898152602001908152602001600020600601908051906020019061067c9291906128b8565b508460086000898152602001908152602001600020600701819055508260086000898152602001908152602001600020600301819055504260086000898152602001908152602001600020600401819055507f0e11c19254e459389b3807518c61779a0f27b49f561ef1b03caac6f648ff58bf826040516106fd919061392c565b60405180910390a150505050505050565b6000600760003373ffffffffffffffffffffffffffffffffffffffff1673ffffffffffffffffffffffffffffffffffffffff1681526020019081526020016000205490506000801b600760003373ffffffffffffffffffffffffffffffffffffffff1673ffffffffffffffffffffffffffffffffffffffff1681526020019081526020016000205414156107d7576040517f08c379a00000000000000000000000000000000000000000000000000000000081526004016107ce90613b39565b60405180910390fd5b8181141561081a576040517f08c379a000000000000000000000000000000000000000000000000000000000815260040161081190613b19565b60405180910390fd5b60066000828152602001908152602001600020600083815260200190815260200160002060009054906101000a900460ff161561088c576040517f08c379a000000000000000000000000000000000000000000000000000000000815260040161088390613a79565b60405180910390fd5b60056000828152602001908152602001600020829080600181540180825580915050600190039060005260206000200160009091909190915055600160066000838152602001908152602001600020600084815260200190815260200160002060006101000a81548160ff0219169083151502179055505050565b6000600760003373ffffffffffffffffffffffffffffffffffffffff1673ffffffffffffffffffffffffffffffffffffffff16815260200190815260200160002054905090565b60606000600280549050905060608167ffffffffffffffff8111801561097357600080fd5b506040519080825280602002602001820160405280156109ad57816020015b61099a612938565b8152602001906001900390816109925790505b50905060005b82811015610b2957600080600283815481106109cb57fe5b906000526020600020015481526020019081526020016000206040518060a001604052908160008201548152602001600182015481526020016002820160009054906101000a900473ffffffffffffffffffffffffffffffffffffffff1673ffffffffffffffffffffffffffffffffffffffff1673ffffffffffffffffffffffffffffffffffffffff16815260200160038201548152602001600482018054600181600116156101000203166002900480601f016020809104026020016040519081016040528092919081815260200182805460018160011615610100020316600290048015610afc5780601f10610ad157610100808354040283529160200191610afc565b820191906000526020600020905b815481529060010190602001808311610adf57829003601f168201915b505050505081525050828281518110610b1157fe5b602002602001018190525080806001019150506109b3565b50809250505090565b6000600760003373ffffffffffffffffffffffffffffffffffffffff1673ffffffffffffffffffffffffffffffffffffffff1681526020019081526020016000205490503373ffffffffffffffffffffffffffffffffffffffff166003600083815260200190815260200160002060000160009054906101000a900473ffffffffffffffffffffffffffffffffffffffff1673ffffffffffffffffffffffffffffffffffffffff1614610be457600080fd5b83600360008381526020019081526020016000206002019080519060200190610c0e9291906128b8565b5082600360008381526020019081526020016000206003019080519060200190610c399291906128b8565b5081600360008381526020019081526020016000206004019080519060200190610c649291906128b8565b507f0e11c19254e459389b3807518c61779a0f27b49f561ef1b03caac6f648ff58bf33604051610c9491906138fe565b60405180910390a150505050565b606060006005600084815260200190815260200160002080549050905060608167ffffffffffffffff81118015610cd857600080fd5b50604051908082528060200260200182016040528015610d1257816020015b610cff612980565b815260200190600190039081610cf75790505b50905060005b82811015610fd05760036000600560008881526020019081526020016000208381548110610d4257fe5b906000526020600020015481526020019081526020016000206040518060a00160405290816000820160009054906101000a900473ffffffffffffffffffffffffffffffffffffffff1673ffffffffffffffffffffffffffffffffffffffff1673ffffffffffffffffffffffffffffffffffffffff16815260200160018201548152602001600282018054600181600116156101000203166002900480601f016020809104026020016040519081016040528092919081815260200182805460018160011615610100020316600290048015610e5f5780601f10610e3457610100808354040283529160200191610e5f565b820191906000526020600020905b815481529060010190602001808311610e4257829003601f168201915b50505050508152602001600382018054600181600116156101000203166002900480601f016020809104026020016040519081016040528092919081815260200182805460018160011615610100020316600290048015610f015780601f10610ed657610100808354040283529160200191610f01565b820191906000526020600020905b815481529060010190602001808311610ee457829003601f168201915b50505050508152602001600482018054600181600116156101000203166002900480601f016020809104026020016040519081016040528092919081815260200182805460018160011615610100020316600290048015610fa35780601f10610f7857610100808354040283529160200191610fa3565b820191906000526020600020905b815481529060010190602001808311610f8657829003601f168201915b505050505081525050828281518110610fb857fe5b60200260200101819052508080600101915050610d18565b508092505050919050565b6060600480548060200260200160405190810160405280929190818152602001828054801561102957602002820191906000526020600020905b815481526020019060010190808311611015575b5050505050905090565b60606000600980549050905060608167ffffffffffffffff8111801561105857600080fd5b5060405190808252806020026020018201604052801561109257816020015b61107f6129c8565b8152602001906001900390816110775790505b50905060005b828110156112da5760086000600983815481106110b157fe5b90600052602060002001548152602001908152602001600020604051806101400160405290816000820160009054906101000a900473ffffffffffffffffffffffffffffffffffffffff1673ffffffffffffffffffffffffffffffffffffffff1673ffffffffffffffffffffffffffffffffffffffff16815260200160018201548152602001600282015481526020016003820154815260200160048201548152602001600582018054600181600116156101000203166002900480601f0160208091040260200160405190810160405280929190818152602001828054600181600116156101000203166002900480156111ed5780601f106111c2576101008083540402835291602001916111ed565b820191906000526020600020905b8154815290600101906020018083116111d057829003601f168201915b50505050508152602001600682018054600181600116156101000203166002900480601f01602080910402602001604051908101604052809291908181526020018280546001816001161561010002031660029004801561128f5780601f106112645761010080835404028352916020019161128f565b820191906000526020600020905b81548152906001019060200180831161127257829003601f168201915b5050505050815260200160078201548152602001600882015481526020016009820154815250508282815181106112c257fe5b60200260200101819052508080600101915050611098565b50809250505090565b60606000600480549050905060608167ffffffffffffffff8111801561130857600080fd5b5060405190808252806020026020018201604052801561134257816020015b61132f612980565b8152602001906001900390816113275790505b50905060005b828110156115ef57600360006004838154811061136157fe5b906000526020600020015481526020019081526020016000206040518060a00160405290816000820160009054906101000a900473ffffffffffffffffffffffffffffffffffffffff1673ffffffffffffffffffffffffffffffffffffffff1673ffffffffffffffffffffffffffffffffffffffff16815260200160018201548152602001600282018054600181600116156101000203166002900480601f01602080910402602001604051908101604052809291908181526020018280546001816001161561010002031660029004801561147e5780601f106114535761010080835404028352916020019161147e565b820191906000526020600020905b81548152906001019060200180831161146157829003601f168201915b50505050508152602001600382018054600181600116156101000203166002900480601f0160208091040260200160405190810160405280929190818152602001828054600181600116156101000203166002900480156115205780601f106114f557610100808354040283529160200191611520565b820191906000526020600020905b81548152906001019060200180831161150357829003601f168201915b50505050508152602001600482018054600181600116156101000203166002900480601f0160208091040260200160405190810160405280929190818152602001828054600181600116156101000203166002900480156115c25780601f10611597576101008083540402835291602001916115c2565b820191906000526020600020905b8154815290600101906020018083116115a557829003601f168201915b5050505050815250508282815181106115d757fe5b60200260200101819052508080600101915050611348565b50809250505090565b600060086000838152602001908152602001600020905060008160080154905060006103e8828161162557fe5b0490506000818303905060008311611672576040517f08c379a000000000000000000000000000000000000000000000000000000000815260040161166990613af9565b60405180910390fd5b3373ffffffffffffffffffffffffffffffffffffffff168460000160009054906101000a900473ffffffffffffffffffffffffffffffffffffffff1673ffffffffffffffffffffffffffffffffffffffff1614611704576040517f08c379a00000000000000000000000000000000000000000000000000000000081526004016116fb90613ad9565b60405180910390fd5b60008460080181905550600b60009054906101000a900473ffffffffffffffffffffffffffffffffffffffff1673ffffffffffffffffffffffffffffffffffffffff166108fc839081150290604051600060405180830381858888f19350505050158015611776573d6000803e3d6000fd5b503373ffffffffffffffffffffffffffffffffffffffff166108fc829081150290604051600060405180830381858888f193505050501580156117bd573d6000803e3d6000fd5b507fd93c084e37bf10c65c239ce1ece74b50538195ba956376f7308ba91179bd17af33826040516117ef9291906138c2565b60405180910390a15050505050565b60606000600a600084815260200190815260200160002080549050905060608167ffffffffffffffff8111801561183457600080fd5b5060405190808252806020026020018201604052801561186e57816020015b61185b6129c8565b8152602001906001900390816118535790505b50905060005b82811015611ac75760086000600a6000888152602001908152602001600020838154811061189e57fe5b90600052602060002001548152602001908152602001600020604051806101400160405290816000820160009054906101000a900473ffffffffffffffffffffffffffffffffffffffff1673ffffffffffffffffffffffffffffffffffffffff1673ffffffffffffffffffffffffffffffffffffffff16815260200160018201548152602001600282015481526020016003820154815260200160048201548152602001600582018054600181600116156101000203166002900480601f0160208091040260200160405190810160405280929190818152602001828054600181600116156101000203166002900480156119da5780601f106119af576101008083540402835291602001916119da565b820191906000526020600020905b8154815290600101906020018083116119bd57829003601f168201915b50505050508152602001600682018054600181600116156101000203166002900480601f016020809104026020016040519081016040528092919081815260200182805460018160011615610100020316600290048015611a7c5780601f10611a5157610100808354040283529160200191611a7c565b820191906000526020600020905b815481529060010190602001808311611a5f57829003601f168201915b505050505081526020016007820154815260200160088201548152602001600982015481525050828281518110611aaf57fe5b60200260200101819052508080600101915050611874565b508092505050919050565b6000600480549050905090565b611ae76129c8565b60086000838152602001908152602001600020604051806101400160405290816000820160009054906101000a900473ffffffffffffffffffffffffffffffffffffffff1673ffffffffffffffffffffffffffffffffffffffff1673ffffffffffffffffffffffffffffffffffffffff16815260200160018201548152602001600282015481526020016003820154815260200160048201548152602001600582018054600181600116156101000203166002900480601f016020809104026020016040519081016040528092919081815260200182805460018160011615610100020316600290048015611c1d5780601f10611bf257610100808354040283529160200191611c1d565b820191906000526020600020905b815481529060010190602001808311611c0057829003601f168201915b50505050508152602001600682018054600181600116156101000203166002900480601f016020809104026020016040519081016040528092919081815260200182805460018160011615610100020316600290048015611cbf5780601f10611c9457610100808354040283529160200191611cbf565b820191906000526020600020905b815481529060010190602001808311611ca257829003601f168201915b5050505050815260200160078201548152602001600882015481526020016009820154815250509050919050565b6000600760003373ffffffffffffffffffffffffffffffffffffffff1673ffffffffffffffffffffffffffffffffffffffff168152602001908152602001600020549050600b60009054906101000a900473ffffffffffffffffffffffffffffffffffffffff1673ffffffffffffffffffffffffffffffffffffffff163373ffffffffffffffffffffffffffffffffffffffff161415611dc2576040517f08c379a0000000000000000000000000000000000000000000000000000000008152600401611db990613ab9565b60405180910390fd5b6000801b8114611e07576040517f08c379a0000000000000000000000000000000000000000000000000000000008152600401611dfe90613b59565b60405180910390fd5b611e13338585856126d3565b50505050565b606060006001600084815260200190815260200160002080549050905060608167ffffffffffffffff81118015611e4f57600080fd5b50604051908082528060200260200182016040528015611e8957816020015b611e76612938565b815260200190600190039081611e6e5790505b50905060005b8281101561201657600080600160008881526020019081526020016000208381548110611eb857fe5b906000526020600020015481526020019081526020016000206040518060a001604052908160008201548152602001600182015481526020016002820160009054906101000a900473ffffffffffffffffffffffffffffffffffffffff1673ffffffffffffffffffffffffffffffffffffffff1673ffffffffffffffffffffffffffffffffffffffff16815260200160038201548152602001600482018054600181600116156101000203166002900480601f016020809104026020016040519081016040528092919081815260200182805460018160011615610100020316600290048015611fe95780601f10611fbe57610100808354040283529160200191611fe9565b820191906000526020600020905b815481529060010190602001808311611fcc57829003601f168201915b505050505081525050828281518110611ffe57fe5b60200260200101819052508080600101915050611e8f565b508092505050919050565b6000349050600060086000858152602001908152602001600020905081816008016000828254019250508190555081816009016000828254019250508190555060004233348660405160200161207a9493929190613792565b6040516020818303038152906040528051906020012090506040518060a001604052808281526020014281526020013373ffffffffffffffffffffffffffffffffffffffff16815260200134815260200185815250600080838152602001908152602001600020600082015181600001556020820151816001015560408201518160020160006101000a81548173ffffffffffffffffffffffffffffffffffffffff021916908373ffffffffffffffffffffffffffffffffffffffff1602179055506060820151816003015560808201518160040190805190602001906121629291906128b8565b509050506001600086815260200190815260200160002081908060018154018082558091505060019003906000526020600020016000909190919091505560028190806001815401808255809150506001900390600052602060002001600090919091909150557fd93c084e37bf10c65c239ce1ece74b50538195ba956376f7308ba91179bd17af33346040516121fa929190613886565b60405180910390a15050505050565b612211612980565b600360008381526020019081526020016000206040518060a00160405290816000820160009054906101000a900473ffffffffffffffffffffffffffffffffffffffff1673ffffffffffffffffffffffffffffffffffffffff1673ffffffffffffffffffffffffffffffffffffffff16815260200160018201548152602001600282018054600181600116156101000203166002900480601f0160208091040260200160405190810160405280929190818152602001828054600181600116156101000203166002900480156123285780601f106122fd57610100808354040283529160200191612328565b820191906000526020600020905b81548152906001019060200180831161230b57829003601f168201915b50505050508152602001600382018054600181600116156101000203166002900480601f0160208091040260200160405190810160405280929190818152602001828054600181600116156101000203166002900480156123ca5780601f1061239f576101008083540402835291602001916123ca565b820191906000526020600020905b8154815290600101906020018083116123ad57829003601f168201915b50505050508152602001600482018054600181600116156101000203166002900480601f01602080910402602001604051908101604052809291908181526020018280546001816001161561010002031660029004801561246c5780601f106124415761010080835404028352916020019161246c565b820191906000526020600020905b81548152906001019060200180831161244f57829003601f168201915b5050505050815250509050919050565b6000600760008773ffffffffffffffffffffffffffffffffffffffff1673ffffffffffffffffffffffffffffffffffffffff168152602001908152602001600020549050600042878786886040516020016124db95949392919061382f565b6040516020818303038152906040528051906020012090506040518061014001604052808873ffffffffffffffffffffffffffffffffffffffff1681526020018281526020014281526020018481526020014281526020018781526020018581526020018681526020016000815260200160008152506008600083815260200190815260200160002060008201518160000160006101000a81548173ffffffffffffffffffffffffffffffffffffffff021916908373ffffffffffffffffffffffffffffffffffffffff1602179055506020820151816001015560408201518160020155606082015181600301556080820151816004015560a08201518160050190805190602001906125ef9291906128b8565b5060c082015181600601908051906020019061260c9291906128b8565b5060e0820151816007015561010082015181600801556101208201518160090155905050600a600083815260200190815260200160002081908060018154018082558091505060019003906000526020600020016000909190919091505560098190806001815401808255809150506001900390600052602060002001600090919091909150557f0e11c19254e459389b3807518c61779a0f27b49f561ef1b03caac6f648ff58bf876040516126c2919061395a565b60405180910390a150505050505050565b600042858585856040516020016126ee9594939291906137dc565b60405160208183030381529060405280519060200120905061270e612980565b6040518060a001604052808773ffffffffffffffffffffffffffffffffffffffff168152602001838152602001868152602001858152602001848152509050806003600084815260200190815260200160002060008201518160000160006101000a81548173ffffffffffffffffffffffffffffffffffffffff021916908373ffffffffffffffffffffffffffffffffffffffff1602179055506020820151816001015560408201518160020190805190602001906127ce9291906128b8565b5060608201518160030190805190602001906127eb9291906128b8565b5060808201518160040190805190602001906128089291906128b8565b5090505081600760008873ffffffffffffffffffffffffffffffffffffffff1673ffffffffffffffffffffffffffffffffffffffff1681526020019081526020016000208190555060048290806001815401808255809150506001900390600052602060002001600090919091909150557f0e11c19254e459389b3807518c61779a0f27b49f561ef1b03caac6f648ff58bf866040516128a89190613988565b60405180910390a1505050505050565b828054600181600116156101000203166002900490600052602060002090601f016020900481019282601f106128f957805160ff1916838001178555612927565b82800160010185558215612927579182015b8281111561292657825182559160200191906001019061290b565b5b5090506129349190612a34565b5090565b6040518060a001604052806000801916815260200160008152602001600073ffffffffffffffffffffffffffffffffffffffff16815260200160008152602001606081525090565b6040518060a00160405280600073ffffffffffffffffffffffffffffffffffffffff168152602001600080191681526020016060815260200160608152602001606081525090565b604051806101400160405280600073ffffffffffffffffffffffffffffffffffffffff1681526020016000801916815260200160008152602001600081526020016000815260200160608152602001606081526020016000815260200160008152602001600081525090565b5b80821115612a4d576000816000905550600101612a35565b5090565b600081359050612a6081613e7b565b92915050565b600082601f830112612a7757600080fd5b8135612a8a612a8582613c05565b613bd8565b91508082526020830160208301858383011115612aa657600080fd5b612ab1838284613ddb565b50505092915050565b600081359050612ac981613e92565b92915050565b600060208284031215612ae157600080fd5b6000612aef84828501612a51565b91505092915050565b60008060408385031215612b0b57600080fd5b6000612b1985828601612a51565b925050602083013567ffffffffffffffff811115612b3657600080fd5b612b4285828601612a66565b9150509250929050565b600080600080600060a08688031215612b6457600080fd5b6000612b7288828901612a51565b955050602086013567ffffffffffffffff811115612b8f57600080fd5b612b9b88828901612a66565b9450506040612bac88828901612aba565b935050606086013567ffffffffffffffff811115612bc957600080fd5b612bd588828901612a66565b9250506080612be688828901612aba565b9150509295509295909350565b600080600060608486031215612c0857600080fd5b600084013567ffffffffffffffff811115612c2257600080fd5b612c2e86828701612a66565b935050602084013567ffffffffffffffff811115612c4b57600080fd5b612c5786828701612a66565b925050604084013567ffffffffffffffff811115612c7457600080fd5b612c8086828701612a66565b9150509250925092565b60008060008060808587031215612ca057600080fd5b600085013567ffffffffffffffff811115612cba57600080fd5b612cc687828801612a66565b9450506020612cd787828801612aba565b935050604085013567ffffffffffffffff811115612cf457600080fd5b612d0087828801612a66565b9250506060612d1187828801612aba565b91505092959194509250565b6000612d298383612f89565b60208301905092915050565b6000612d41838361341d565b905092915050565b6000612d558383613493565b905092915050565b6000612d698383613655565b905092915050565b612d7a81613da5565b82525050565b612d91612d8c82613d5f565b613e2f565b82525050565b612da081613d4d565b82525050565b612daf81613d4d565b82525050565b612dc6612dc182613d4d565b613e1d565b82525050565b6000612dd782613c71565b612de18185613cdc565b9350612dec83613c31565b8060005b83811015612e1d578151612e048882612d1d565b9750612e0f83613ca8565b925050600181019050612df0565b5085935050505092915050565b6000612e3582613c7c565b612e3f8185613ced565b935083602082028501612e5185613c41565b8060005b85811015612e8d5784840389528151612e6e8582612d35565b9450612e7983613cb5565b925060208a01995050600181019050612e55565b50829750879550505050505092915050565b6000612eaa82613c87565b612eb48185613cfe565b935083602082028501612ec685613c51565b8060005b85811015612f025784840389528151612ee38582612d49565b9450612eee83613cc2565b925060208a01995050600181019050612eca565b50829750879550505050505092915050565b6000612f1f82613c92565b612f298185613d0f565b935083602082028501612f3b85613c61565b8060005b85811015612f775784840389528151612f588582612d5d565b9450612f6383613ccf565b925060208a01995050600181019050612f3f565b50829750879550505050505092915050565b612f9281613d71565b82525050565b612fa181613d71565b82525050565b6000612fb282613c9d565b612fbc8185613d20565b9350612fcc818560208601613dea565b612fd581613e5d565b840191505092915050565b6000612feb82613c9d565b612ff58185613d42565b9350613005818560208601613dea565b80840191505092915050565b600061301e601783613d31565b91507f636f6e747269627574696f6e207375636365737366756c0000000000000000006000830152602082019050919050565b600061305e600e83613d31565b91507f66756e64657220757064617465640000000000000000000000000000000000006000830152602082019050919050565b600061309e601583613d31565b91507f7769746864726177616c207375636365737366756c00000000000000000000006000830152602082019050919050565b60006130de601783613d31565b91507f6d757374206265206f776e657220746f207570646174650000000000000000006000830152602082019050919050565b600061311e601483613d31565b91507f667269656e6420616c72656164792061646465640000000000000000000000006000830152602082019050919050565b600061315e602c83613d31565b91507f6d7573742063726561746520686f6d652070616765206265666f72652063726560008301527f6174696e672066756e64657200000000000000000000000000000000000000006020830152604082019050919050565b60006131c4601b83613d31565b91507f64657620616c726561647920686173206120686f6d65207061676500000000006000830152602082019050919050565b6000613204600c83613d31565b91507f756e617574686f72697a656400000000000000000000000000000000000000006000830152602082019050919050565b6000613244600f83613d31565b91507f6163636f756e74207570646174656400000000000000000000000000000000006000830152602082019050919050565b6000613284600e83613d31565b91507f66756e64657220637265617465640000000000000000000000000000000000006000830152602082019050919050565b60006132c4600f83613d31565b91507f6163636f756e74206372656174656400000000000000000000000000000000006000830152602082019050919050565b6000613304601483613d31565b91507f6e6f2066756e647320746f2077697468647261770000000000000000000000006000830152602082019050919050565b6000613344602483613d31565b91507f796f752063616e6e6f742061646420796f757273656c6620617320612066726960008301527f656e6420000000000000000000000000000000000000000000000000000000006020830152604082019050919050565b60006133aa601b83613d31565b91507f75736572206163636f756e7420646f6573206e6f7420657869737400000000006000830152602082019050919050565b60006133ea601c83613d31565b91507f7573657220616c726561647920686173206120686f6d652070616765000000006000830152602082019050919050565b600060a0830160008301516134356000860182612f89565b506020830151613448602086018261375d565b50604083015161345b6040860182612d97565b50606083015161346e606086018261375d565b50608083015184820360808601526134868282612fa7565b9150508091505092915050565b6000610140830160008301516134ac6000860182612d97565b5060208301516134bf6020860182612f89565b5060408301516134d2604086018261375d565b5060608301516134e5606086018261375d565b5060808301516134f8608086018261375d565b5060a083015184820360a08601526135108282612fa7565b91505060c083015184820360c086015261352a8282612fa7565b91505060e083015161353f60e086018261375d565b5061010083015161355461010086018261375d565b5061012083015161356961012086018261375d565b508091505092915050565b60006101408301600083015161358d6000860182612d97565b5060208301516135a06020860182612f89565b5060408301516135b3604086018261375d565b5060608301516135c6606086018261375d565b5060808301516135d9608086018261375d565b5060a083015184820360a08601526135f18282612fa7565b91505060c083015184820360c086015261360b8282612fa7565b91505060e083015161362060e086018261375d565b5061010083015161363561010086018261375d565b5061012083015161364a61012086018261375d565b508091505092915050565b600060a08301600083015161366d6000860182612d97565b5060208301516136806020860182612f89565b50604083015184820360408601526136988282612fa7565b915050606083015184820360608601526136b28282612fa7565b915050608083015184820360808601526136cc8282612fa7565b9150508091505092915050565b600060a0830160008301516136f16000860182612d97565b5060208301516137046020860182612f89565b506040830151848203604086015261371c8282612fa7565b915050606083015184820360608601526137368282612fa7565b915050608083015184820360808601526137508282612fa7565b9150508091505092915050565b61376681613d9b565b82525050565b61377581613d9b565b82525050565b61378c61378782613d9b565b613e53565b82525050565b600061379e828761377b565b6020820191506137ae8286612d80565b6014820191506137be828561377b565b6020820191506137ce8284612fe0565b915081905095945050505050565b60006137e8828861377b565b6020820191506137f88287612db5565b6014820191506138088286612fe0565b91506138148285612fe0565b91506138208284612fe0565b91508190509695505050505050565b600061383b828861377b565b60208201915061384b8287612db5565b60148201915061385b8286612fe0565b91506138678285612fe0565b9150613873828461377b565b6020820191508190509695505050505050565b600060608201905061389b6000830185612d71565b81810360208301526138ac81613011565b90506138bb604083018461376c565b9392505050565b60006060820190506138d76000830185612d71565b81810360208301526138e881613091565b90506138f7604083018461376c565b9392505050565b60006040820190506139136000830184612d71565b818103602083015261392481613237565b905092915050565b60006040820190506139416000830184612da6565b818103602083015261395281613051565b905092915050565b600060408201905061396f6000830184612da6565b818103602083015261398081613277565b905092915050565b600060408201905061399d6000830184612da6565b81810360208301526139ae816132b7565b905092915050565b600060208201905081810360008301526139d08184612dcc565b905092915050565b600060208201905081810360008301526139f28184612e2a565b905092915050565b60006020820190508181036000830152613a148184612e9f565b905092915050565b60006020820190508181036000830152613a368184612f14565b905092915050565b6000602082019050613a536000830184612f98565b92915050565b60006020820190508181036000830152613a72816130d1565b9050919050565b60006020820190508181036000830152613a9281613111565b9050919050565b60006020820190508181036000830152613ab281613151565b9050919050565b60006020820190508181036000830152613ad2816131b7565b9050919050565b60006020820190508181036000830152613af2816131f7565b9050919050565b60006020820190508181036000830152613b12816132f7565b9050919050565b60006020820190508181036000830152613b3281613337565b9050919050565b60006020820190508181036000830152613b528161339d565b9050919050565b60006020820190508181036000830152613b72816133dd565b9050919050565b60006020820190508181036000830152613b938184613574565b905092915050565b60006020820190508181036000830152613bb581846136d9565b905092915050565b6000602082019050613bd2600083018461376c565b92915050565b6000604051905081810181811067ffffffffffffffff82111715613bfb57600080fd5b8060405250919050565b600067ffffffffffffffff821115613c1c57600080fd5b601f19601f8301169050602081019050919050565b6000819050602082019050919050565b6000819050602082019050919050565b6000819050602082019050919050565b6000819050602082019050919050565b600081519050919050565b600081519050919050565b600081519050919050565b600081519050919050565b600081519050919050565b6000602082019050919050565b6000602082019050919050565b6000602082019050919050565b6000602082019050919050565b600082825260208201905092915050565b600082825260208201905092915050565b600082825260208201905092915050565b600082825260208201905092915050565b600082825260208201905092915050565b600082825260208201905092915050565b600081905092915050565b6000613d5882613d7b565b9050919050565b6000613d6a82613d7b565b9050919050565b6000819050919050565b600073ffffffffffffffffffffffffffffffffffffffff82169050919050565b6000819050919050565b6000613db082613db7565b9050919050565b6000613dc282613dc9565b9050919050565b6000613dd482613d7b565b9050919050565b82818337600083830152505050565b60005b83811015613e08578082015181840152602081019050613ded565b83811115613e17576000848401525b50505050565b6000613e2882613e41565b9050919050565b6000613e3a82613e41565b9050919050565b6000613e4c82613e6e565b9050919050565b6000819050919050565b6000601f19601f8301169050919050565b60008160601b9050919050565b613e8481613d71565b8114613e8f57600080fd5b50565b613e9b81613d9b565b8114613ea657600080fd5b5056fea264697066735822122002ab628c69d04a2eb5185f80e089cff09ebf2c3652bec7f305114a74b8883d4f64736f6c63430007000033",
  "immutableReferences": {},
  "source": "pragma solidity >=0.7.0 <0.8.0;\npragma experimental ABIEncoderV2;\n\ncontract PleaseFundMe {\n    event InteractionSuccess(address sender, string message);\n    event TransferSuccess(address sender, string transaction, uint amount);\n    \n    struct Funder {\n        address owner;\n        bytes32 id;\n        uint startDate;\n        uint endDate;\n        uint updatedAt;\n        string title;\n        string description;\n        uint fundTarget;\n        uint fundBalance;\n        uint amountRaised;\n    }\n    \n    struct User {\n        address owner;\n        bytes32 id;\n        string username;\n        string aboutMe;\n        string backgroundGradient;\n    }\n    \n    struct Contribution {\n        bytes32 id;\n        uint timeCreated;\n        address contributer;\n        uint amount;\n        string message;\n    }\n    \n    mapping (bytes32 => Contribution) contributions;\n    mapping (bytes32 => bytes32[]) funderContributions;\n    bytes32[] private contributionIndex;\n    \n    mapping (bytes32 => User) users;\n    bytes32[] private userIndex;\n    mapping (bytes32 => bytes32[]) userFriends;\n    mapping (bytes32 => mapping (bytes32 => bool)) friendMap;\n    \n    mapping (address => bytes32) ownerToUserId;\n    \n    mapping (bytes32 => Funder) funders;\n    bytes32[] private funderIndex;\n    mapping (bytes32 => bytes32[]) ownerFunders;\n    \n    address payable _developerAddress;\n    \n    constructor() {\n        _createHomePage(msg.sender, 'dev', 'developer page', 'blue');\n        _developerAddress = msg.sender;\n    }\n    \n    function getAccounts() public view returns(User[] memory) {\n        uint userCount = userIndex.length;\n        User[] memory _users = new User[](userCount);\n        for(uint i = 0; i < userCount; i++) {\n            _users[i] = users[userIndex[i]];\n        }\n        return _users;\n    }\n\n    function addFriend(bytes32 _friend) public {\n        bytes32 _user = ownerToUserId[msg.sender];\n        require(ownerToUserId[msg.sender] != 0, 'user account does not exist'); // require user has an account\n        require(_user != _friend, 'you cannot add yourself as a friend ');\n        require(!friendMap[_user][_friend], 'friend already added'); // require not existing friend\n        userFriends[_user].push(_friend);\n        friendMap[_user][_friend] = true;\n    }\n    \n    function getUserFriends(bytes32 _user) public view returns (User[] memory) {\n        uint friendsCount = userFriends[_user].length;\n        User[] memory _userFriends = new User[](friendsCount);\n        for (uint i = 0; i < friendsCount; i++) {\n            _userFriends[i] = users[userFriends[_user][i]];\n        }\n        return _userFriends;\n    }\n    \n    function getAccountByid (bytes32 _id) public view returns(User memory) {\n        return users[_id];\n    }\n    \n    function getUserIndex() public view returns(bytes32[] memory) {\n        return userIndex;\n    }\n    \n    function getUserCount() public view returns(uint) {\n        return userIndex.length;\n    }\n    \n    function getUserId() public view returns(bytes32) {\n        return ownerToUserId[msg.sender];\n    }\n    \n    \n    function createHomePage(string memory _username, string memory _aboutMe, string memory _backgroundGradient) public {\n        bytes32 _id = ownerToUserId[msg.sender];\n        require(msg.sender != _developerAddress, 'dev already has a home page');\n        require(_id == 0, 'user already has a home page'); // enforce only one User per address\n        _createHomePage(msg.sender, _username, _aboutMe, _backgroundGradient);\n    }\n    \n    function _createHomePage(address _sender, string memory _username, string memory _aboutMe, string memory _backgroundGradient) internal {\n        bytes32 _id = keccak256(abi.encodePacked(block.timestamp, _sender, _username, _aboutMe, _backgroundGradient));\n        User memory newUser = User(_sender, _id, _username, _aboutMe, _backgroundGradient);\n        users[_id] = newUser; // add the new user\n        ownerToUserId[_sender] = _id;\n        userIndex.push(_id);\n        emit InteractionSuccess(_sender, 'account created');\n    }\n    \n    function updateHomePage(string memory _username, string memory _aboutMe, string memory _backgroundGradient) public {\n        bytes32 _id = ownerToUserId[msg.sender];\n        require(users[_id].owner == msg.sender);\n        users[_id].username = _username;\n        users[_id].aboutMe = _aboutMe;\n        users[_id].backgroundGradient = _backgroundGradient;\n        emit InteractionSuccess(msg.sender, 'account updated');\n    }\n    \n    function createFunder(string memory _title, uint _fundTarget, string memory _description, uint _endDate) public {\n        bytes32 _id = ownerToUserId[msg.sender];\n        if (_id == 0) {\n            require(msg.sender == _developerAddress, 'must create home page before creating funder');\n        }\n        _createFunder(msg.sender, _title, _fundTarget, _description, _endDate);\n    }\n    \n    \n    function _createFunder(address _sender, string memory _title, uint _fundTarget, string memory _description, uint _endDate) internal {\n        bytes32 _userId = ownerToUserId[_sender];\n        bytes32 _funderId = keccak256(abi.encodePacked(block.timestamp, _sender, _title, _description, _fundTarget));\n        funders[_funderId] = Funder(_sender, _funderId, block.timestamp, _endDate, block.timestamp, _title, _description, _fundTarget, 0, 0);\n        ownerFunders[_userId].push(_funderId);\n        funderIndex.push(_funderId);\n        emit InteractionSuccess(_sender, 'funder created');\n    }\n    \n    function updateFunder(bytes32 _funderId, string memory _title, uint _fundTarget, string memory _description, uint _endDate) public {\n        address _sender = msg.sender;\n        bytes32 _userId = ownerToUserId[_sender];\n        require(users[_userId].owner == _sender, 'must be owner to update');\n        funders[_funderId].title = _title;\n        funders[_funderId].description = _description;\n        funders[_funderId].fundTarget = _fundTarget;\n        funders[_funderId].endDate = _endDate;\n        funders[_funderId].updatedAt = block.timestamp;\n        emit InteractionSuccess(_sender, 'funder updated');\n    }\n    \n    function getUserFunders(bytes32 _userId) public view returns(Funder[] memory) {\n        uint _fundersCount = ownerFunders[_userId].length;\n        Funder[] memory _userFunders = new Funder[](_fundersCount);\n        for (uint i = 0; i < _fundersCount; i++) {\n            _userFunders[i] = funders[ownerFunders[_userId][i]];\n        }\n        return _userFunders;\n    }\n    \n    function getAllFunders() public view returns (Funder[] memory) {\n        uint _fundersCount = funderIndex.length;\n        Funder[] memory _funders = new Funder[](_fundersCount);\n        for (uint i = 0; i < _fundersCount; i++) {\n            _funders[i] = funders[funderIndex[i]];\n        }\n        return _funders;\n    }\n    \n    function getFunderById(bytes32 _funderId) public view returns(Funder memory) {\n        return funders[_funderId];\n    }\n    \n    function contribute(bytes32 _funderId, string memory _message) payable public {\n        uint contribution = msg.value;\n        Funder storage funder = funders[_funderId];\n        funder.fundBalance += contribution;\n        funder.amountRaised += contribution;\n        \n        bytes32 _contributionId = keccak256(abi.encodePacked(block.timestamp, msg.sender, msg.value, _message));\n        contributions[_contributionId] = Contribution(_contributionId, block.timestamp, msg.sender, msg.value, _message);\n        funderContributions[_funderId].push(_contributionId);\n        contributionIndex.push(_contributionId);\n        emit TransferSuccess(msg.sender, 'contribution successful', msg.value);\n    }\n    \n    function getFunderContributions(bytes32 _funderId) public view returns(Contribution[] memory) {\n        uint funderCount = funderContributions[_funderId].length;\n        Contribution[] memory _funderContributions = new Contribution[](funderCount);\n        for (uint i = 0; i < funderCount; i++) {\n            _funderContributions[i] = contributions[funderContributions[_funderId][i]];\n        }\n        return _funderContributions;\n    }\n    \n    function getAllContributions() public view returns(Contribution[] memory) {\n        uint funderCount = contributionIndex.length;\n        Contribution[] memory _contributions = new Contribution[](funderCount);\n        for (uint i = 0; i < funderCount; i++) {\n            _contributions[i] = contributions[contributionIndex[i]];\n        }\n        return _contributions;\n    }\n    \n    function withdraw(bytes32 _funderId) public payable{\n        Funder storage funder = funders[_funderId];\n        uint totalFunds = funder.fundBalance;\n        uint devFunds = totalFunds / 1000;\n        uint withdrawalFunds = totalFunds - devFunds;\n        require(totalFunds > 0, 'no funds to withdraw');\n        require(funder.owner == msg.sender, \"unauthorized\");\n        funder.fundBalance = 0;\n        _developerAddress.transfer(devFunds);\n        msg.sender.transfer(withdrawalFunds);\n        emit TransferSuccess(msg.sender, 'withdrawal successful', withdrawalFunds);\n    }\n}",
  "sourcePath": "/Users/tsuji/Dev/PleaseFundMe/contracts/PleaseFundMe.sol",
  "compiler": {
    "name": "solc",
    "version": "0.7.0+commit.9e61f92b.Emscripten.clang"
  },
  "schemaVersion": "3.2.5",
  "updatedAt": "2021-05-29T20:46:56.083Z",
  "networkType": "ethereum",
  "devdoc": {
    "kind": "dev",
    "methods": {},
    "version": 1
  },
  "userdoc": {
    "kind": "user",
    "methods": {},
    "version": 1
  }
}