{
  "contractName": "PleaseFundMe_v3",
  "abi": [
    {
      "inputs": [],
      "stateMutability": "nonpayable",
      "type": "constructor"
    },
    {
      "anonymous": false,
      "inputs": [
        {
          "indexed": false,
          "internalType": "address",
          "name": "sender",
          "type": "address"
        },
        {
          "indexed": false,
          "internalType": "string",
          "name": "message",
          "type": "string"
        }
      ],
      "name": "InteractionSuccess",
      "type": "event"
    },
    {
      "anonymous": false,
      "inputs": [
        {
          "indexed": false,
          "internalType": "address",
          "name": "sender",
          "type": "address"
        },
        {
          "indexed": false,
          "internalType": "string",
          "name": "transaction",
          "type": "string"
        },
        {
          "indexed": false,
          "internalType": "uint256",
          "name": "amount",
          "type": "uint256"
        }
      ],
      "name": "TransferSuccess",
      "type": "event"
    },
    {
      "inputs": [],
      "name": "getAccounts",
      "outputs": [
        {
          "components": [
            {
              "internalType": "address",
              "name": "owner",
              "type": "address"
            },
            {
              "internalType": "bytes32",
              "name": "id",
              "type": "bytes32"
            },
            {
              "internalType": "string",
              "name": "username",
              "type": "string"
            },
            {
              "internalType": "string",
              "name": "aboutMe",
              "type": "string"
            },
            {
              "internalType": "string",
              "name": "backgroundGradient",
              "type": "string"
            }
          ],
          "internalType": "struct PleaseFundMe_v3.User[]",
          "name": "",
          "type": "tuple[]"
        }
      ],
      "stateMutability": "view",
      "type": "function",
      "constant": true
    },
    {
      "inputs": [
        {
          "internalType": "bytes32",
          "name": "_id",
          "type": "bytes32"
        }
      ],
      "name": "getAccountByid",
      "outputs": [
        {
          "components": [
            {
              "internalType": "address",
              "name": "owner",
              "type": "address"
            },
            {
              "internalType": "bytes32",
              "name": "id",
              "type": "bytes32"
            },
            {
              "internalType": "string",
              "name": "username",
              "type": "string"
            },
            {
              "internalType": "string",
              "name": "aboutMe",
              "type": "string"
            },
            {
              "internalType": "string",
              "name": "backgroundGradient",
              "type": "string"
            }
          ],
          "internalType": "struct PleaseFundMe_v3.User",
          "name": "",
          "type": "tuple"
        }
      ],
      "stateMutability": "view",
      "type": "function",
      "constant": true
    },
    {
      "inputs": [],
      "name": "getUserIndex",
      "outputs": [
        {
          "internalType": "bytes32[]",
          "name": "",
          "type": "bytes32[]"
        }
      ],
      "stateMutability": "view",
      "type": "function",
      "constant": true
    },
    {
      "inputs": [],
      "name": "getUserCount",
      "outputs": [
        {
          "internalType": "uint256",
          "name": "",
          "type": "uint256"
        }
      ],
      "stateMutability": "view",
      "type": "function",
      "constant": true
    },
    {
      "inputs": [],
      "name": "getUserId",
      "outputs": [
        {
          "internalType": "bytes32",
          "name": "",
          "type": "bytes32"
        }
      ],
      "stateMutability": "view",
      "type": "function",
      "constant": true
    },
    {
      "inputs": [
        {
          "internalType": "string",
          "name": "_username",
          "type": "string"
        },
        {
          "internalType": "string",
          "name": "_aboutMe",
          "type": "string"
        },
        {
          "internalType": "string",
          "name": "_backgroundGradient",
          "type": "string"
        }
      ],
      "name": "createHomePage",
      "outputs": [],
      "stateMutability": "nonpayable",
      "type": "function"
    },
    {
      "inputs": [
        {
          "internalType": "string",
          "name": "_username",
          "type": "string"
        },
        {
          "internalType": "string",
          "name": "_aboutMe",
          "type": "string"
        },
        {
          "internalType": "string",
          "name": "_backgroundGradient",
          "type": "string"
        }
      ],
      "name": "updateHomePage",
      "outputs": [],
      "stateMutability": "nonpayable",
      "type": "function"
    },
    {
      "inputs": [
        {
          "internalType": "string",
          "name": "_title",
          "type": "string"
        },
        {
          "internalType": "uint256",
          "name": "_fundTarget",
          "type": "uint256"
        },
        {
          "internalType": "string",
          "name": "_description",
          "type": "string"
        },
        {
          "internalType": "uint256",
          "name": "_endDate",
          "type": "uint256"
        }
      ],
      "name": "createFunder",
      "outputs": [],
      "stateMutability": "nonpayable",
      "type": "function"
    },
    {
      "inputs": [
        {
          "internalType": "bytes32",
          "name": "_funderId",
          "type": "bytes32"
        },
        {
          "internalType": "string",
          "name": "_title",
          "type": "string"
        },
        {
          "internalType": "uint256",
          "name": "_fundTarget",
          "type": "uint256"
        },
        {
          "internalType": "string",
          "name": "_description",
          "type": "string"
        },
        {
          "internalType": "uint256",
          "name": "_endDate",
          "type": "uint256"
        }
      ],
      "name": "updateFunder",
      "outputs": [],
      "stateMutability": "nonpayable",
      "type": "function"
    },
    {
      "inputs": [
        {
          "internalType": "bytes32",
          "name": "_userId",
          "type": "bytes32"
        }
      ],
      "name": "getUserFunders",
      "outputs": [
        {
          "components": [
            {
              "internalType": "address",
              "name": "owner",
              "type": "address"
            },
            {
              "internalType": "bytes32",
              "name": "id",
              "type": "bytes32"
            },
            {
              "internalType": "uint256",
              "name": "startDate",
              "type": "uint256"
            },
            {
              "internalType": "uint256",
              "name": "endDate",
              "type": "uint256"
            },
            {
              "internalType": "uint256",
              "name": "updatedAt",
              "type": "uint256"
            },
            {
              "internalType": "string",
              "name": "title",
              "type": "string"
            },
            {
              "internalType": "string",
              "name": "description",
              "type": "string"
            },
            {
              "internalType": "uint256",
              "name": "fundTarget",
              "type": "uint256"
            },
            {
              "internalType": "uint256",
              "name": "fundBalance",
              "type": "uint256"
            },
            {
              "internalType": "uint256",
              "name": "amountRaised",
              "type": "uint256"
            }
          ],
          "internalType": "struct PleaseFundMe_v3.Funder[]",
          "name": "",
          "type": "tuple[]"
        }
      ],
      "stateMutability": "view",
      "type": "function",
      "constant": true
    },
    {
      "inputs": [],
      "name": "getAllFunders",
      "outputs": [
        {
          "components": [
            {
              "internalType": "address",
              "name": "owner",
              "type": "address"
            },
            {
              "internalType": "bytes32",
              "name": "id",
              "type": "bytes32"
            },
            {
              "internalType": "uint256",
              "name": "startDate",
              "type": "uint256"
            },
            {
              "internalType": "uint256",
              "name": "endDate",
              "type": "uint256"
            },
            {
              "internalType": "uint256",
              "name": "updatedAt",
              "type": "uint256"
            },
            {
              "internalType": "string",
              "name": "title",
              "type": "string"
            },
            {
              "internalType": "string",
              "name": "description",
              "type": "string"
            },
            {
              "internalType": "uint256",
              "name": "fundTarget",
              "type": "uint256"
            },
            {
              "internalType": "uint256",
              "name": "fundBalance",
              "type": "uint256"
            },
            {
              "internalType": "uint256",
              "name": "amountRaised",
              "type": "uint256"
            }
          ],
          "internalType": "struct PleaseFundMe_v3.Funder[]",
          "name": "",
          "type": "tuple[]"
        }
      ],
      "stateMutability": "view",
      "type": "function",
      "constant": true
    },
    {
      "inputs": [
        {
          "internalType": "bytes32",
          "name": "_funderId",
          "type": "bytes32"
        }
      ],
      "name": "getFunderById",
      "outputs": [
        {
          "components": [
            {
              "internalType": "address",
              "name": "owner",
              "type": "address"
            },
            {
              "internalType": "bytes32",
              "name": "id",
              "type": "bytes32"
            },
            {
              "internalType": "uint256",
              "name": "startDate",
              "type": "uint256"
            },
            {
              "internalType": "uint256",
              "name": "endDate",
              "type": "uint256"
            },
            {
              "internalType": "uint256",
              "name": "updatedAt",
              "type": "uint256"
            },
            {
              "internalType": "string",
              "name": "title",
              "type": "string"
            },
            {
              "internalType": "string",
              "name": "description",
              "type": "string"
            },
            {
              "internalType": "uint256",
              "name": "fundTarget",
              "type": "uint256"
            },
            {
              "internalType": "uint256",
              "name": "fundBalance",
              "type": "uint256"
            },
            {
              "internalType": "uint256",
              "name": "amountRaised",
              "type": "uint256"
            }
          ],
          "internalType": "struct PleaseFundMe_v3.Funder",
          "name": "",
          "type": "tuple"
        }
      ],
      "stateMutability": "view",
      "type": "function",
      "constant": true
    },
    {
      "inputs": [
        {
          "internalType": "bytes32",
          "name": "_funderId",
          "type": "bytes32"
        },
        {
          "internalType": "string",
          "name": "_message",
          "type": "string"
        }
      ],
      "name": "contribute",
      "outputs": [],
      "stateMutability": "payable",
      "type": "function",
      "payable": true
    },
    {
      "inputs": [
        {
          "internalType": "bytes32",
          "name": "_funderId",
          "type": "bytes32"
        }
      ],
      "name": "getFunderContributions",
      "outputs": [
        {
          "components": [
            {
              "internalType": "bytes32",
              "name": "id",
              "type": "bytes32"
            },
            {
              "internalType": "uint256",
              "name": "timeCreated",
              "type": "uint256"
            },
            {
              "internalType": "address",
              "name": "contributer",
              "type": "address"
            },
            {
              "internalType": "uint256",
              "name": "amount",
              "type": "uint256"
            },
            {
              "internalType": "string",
              "name": "message",
              "type": "string"
            }
          ],
          "internalType": "struct PleaseFundMe_v3.Contribution[]",
          "name": "",
          "type": "tuple[]"
        }
      ],
      "stateMutability": "view",
      "type": "function",
      "constant": true
    },
    {
      "inputs": [],
      "name": "getAllContributions",
      "outputs": [
        {
          "components": [
            {
              "internalType": "bytes32",
              "name": "id",
              "type": "bytes32"
            },
            {
              "internalType": "uint256",
              "name": "timeCreated",
              "type": "uint256"
            },
            {
              "internalType": "address",
              "name": "contributer",
              "type": "address"
            },
            {
              "internalType": "uint256",
              "name": "amount",
              "type": "uint256"
            },
            {
              "internalType": "string",
              "name": "message",
              "type": "string"
            }
          ],
          "internalType": "struct PleaseFundMe_v3.Contribution[]",
          "name": "",
          "type": "tuple[]"
        }
      ],
      "stateMutability": "view",
      "type": "function",
      "constant": true
    },
    {
      "inputs": [
        {
          "internalType": "bytes32",
          "name": "_funderId",
          "type": "bytes32"
        }
      ],
      "name": "withdraw",
      "outputs": [],
      "stateMutability": "payable",
      "type": "function",
      "payable": true
    }
  ],
  "bytecode": "0x60806040523480156200001157600080fd5b50620000c5336040518060400160405280600381526020017f64657600000000000000000000000000000000000000000000000000000000008152506040518060400160405280600e81526020017f646576656c6f70657220706167650000000000000000000000000000000000008152506040518060400160405280600481526020017f626c7565000000000000000000000000000000000000000000000000000000008152506200010c60201b60201c565b33600960006101000a81548173ffffffffffffffffffffffffffffffffffffffff021916908373ffffffffffffffffffffffffffffffffffffffff16021790555062000614565b6000428585858560405160200162000129959493929190620004ab565b6040516020818303038152906040528051906020012090506200014b620002fd565b6040518060a001604052808773ffffffffffffffffffffffffffffffffffffffff168152602001838152602001868152602001858152602001848152509050806003600084815260200190815260200160002060008201518160000160006101000a81548173ffffffffffffffffffffffffffffffffffffffff021916908373ffffffffffffffffffffffffffffffffffffffff1602179055506020820151816001015560408201518160020190805190602001906200020d92919062000345565b5060608201518160030190805190602001906200022c92919062000345565b5060808201518160040190805190602001906200024b92919062000345565b5090505081600560008873ffffffffffffffffffffffffffffffffffffffff1673ffffffffffffffffffffffffffffffffffffffff1681526020019081526020016000208190555060048290806001815401808255809150506001900390600052602060002001600090919091909150557f0e11c19254e459389b3807518c61779a0f27b49f561ef1b03caac6f648ff58bf86604051620002ed919062000508565b60405180910390a1505050505050565b6040518060a00160405280600073ffffffffffffffffffffffffffffffffffffffff168152602001600080191681526020016060815260200160608152602001606081525090565b828054600181600116156101000203166002900490600052602060002090601f016020900481019282601f106200038857805160ff1916838001178555620003b9565b82800160010185558215620003b9579182015b82811115620003b85782518255916020019190600101906200039b565b5b509050620003c89190620003cc565b5090565b5b80821115620003e7576000816000905550600101620003cd565b5090565b620003f68162000561565b82525050565b620004116200040b8262000561565b620005d5565b82525050565b600062000424826200053a565b62000430818562000556565b9350620004428185602086016200059f565b80840191505092915050565b60006200045d600f8362000545565b91507f6163636f756e74206372656174656400000000000000000000000000000000006000830152602082019050919050565b620004a56200049f8262000595565b620005fd565b82525050565b6000620004b9828862000490565b602082019150620004cb8287620003fc565b601482019150620004dd828662000417565b9150620004eb828562000417565b9150620004f9828462000417565b91508190509695505050505050565b60006040820190506200051f6000830184620003eb565b818103602083015262000532816200044e565b905092915050565b600081519050919050565b600082825260208201905092915050565b600081905092915050565b60006200056e8262000575565b9050919050565b600073ffffffffffffffffffffffffffffffffffffffff82169050919050565b6000819050919050565b60005b83811015620005bf578082015181840152602081019050620005a2565b83811115620005cf576000848401525b50505050565b6000620005e282620005e9565b9050919050565b6000620005f68262000607565b9050919050565b6000819050919050565b60008160601b9050919050565b6137eb80620006246000396000f3fe6080604052600436106100f35760003560e01c80638e19899e1161008a578063b732e43911610059578063b732e4391461030b578063e7ac8c4514610334578063eefa499d14610371578063f1b6a2e21461038d576100f3565b80638e19899e1461024a578063a7bac69f14610266578063b5cb15f7146102a3578063b6b762b4146102ce576100f3565b80634c36b99f116100c65780634c36b99f146101a05780636ec0c8aa146101c95780636fbbb55d146101f45780638a48ac031461021f576100f3565b806304712d91146100f85780630bbda5e5146101215780632ebcb6531461014a57806337f3061d14610175575b600080fd5b34801561010457600080fd5b5061011f600480360381019061011a91906126dc565b6103ca565b005b34801561012d57600080fd5b506101486004803603810190610143919061259e565b6104be565b005b34801561015657600080fd5b5061015f610692565b60405161016c91906133aa565b60405180910390f35b34801561018157600080fd5b5061018a6106d9565b6040516101979190613344565b60405180910390f35b3480156101ac57600080fd5b506101c760048036038101906101c29190612645565b6108bd565b005b3480156101d557600080fd5b506101de610a2d565b6040516101eb9190613322565b60405180910390f35b34801561020057600080fd5b50610209610a85565b6040516102169190613366565b60405180910390f35b34801561022b57600080fd5b50610234610d35565b6040516102419190613388565b60405180910390f35b610264600480360381019061025f9190612521565b61104a565b005b34801561027257600080fd5b5061028d60048036038101906102889190612521565b611250565b60405161029a9190613366565b60405180910390f35b3480156102af57600080fd5b506102b8611524565b6040516102c591906134c9565b60405180910390f35b3480156102da57600080fd5b506102f560048036038101906102f09190612521565b611531565b6040516103029190613485565b60405180910390f35b34801561031757600080fd5b50610332600480360381019061032d9190612645565b61173f565b005b34801561034057600080fd5b5061035b60048036038101906103569190612521565b61186b565b6040516103689190613344565b60405180910390f35b61038b6004803603810190610386919061254a565b611a73565b005b34801561039957600080fd5b506103b460048036038101906103af9190612521565b611c5b565b6040516103c191906134a7565b60405180910390f35b6000600560003373ffffffffffffffffffffffffffffffffffffffff1673ffffffffffffffffffffffffffffffffffffffff1681526020019081526020016000205490506000801b8114156104aa57600960009054906101000a900473ffffffffffffffffffffffffffffffffffffffff1673ffffffffffffffffffffffffffffffffffffffff163373ffffffffffffffffffffffffffffffffffffffff16146104a9576040517f08c379a00000000000000000000000000000000000000000000000000000000081526004016104a0906133e5565b60405180910390fd5b5b6104b73386868686611ece565b5050505050565b60003390506000600560008373ffffffffffffffffffffffffffffffffffffffff1673ffffffffffffffffffffffffffffffffffffffff1681526020019081526020016000205490508173ffffffffffffffffffffffffffffffffffffffff166003600083815260200190815260200160002060000160009054906101000a900473ffffffffffffffffffffffffffffffffffffffff1673ffffffffffffffffffffffffffffffffffffffff16146105ab576040517f08c379a00000000000000000000000000000000000000000000000000000000081526004016105a2906133c5565b60405180910390fd5b856006600089815260200190815260200160002060050190805190602001906105d592919061230a565b508360066000898152602001908152602001600020600601908051906020019061060092919061230a565b508460066000898152602001908152602001600020600701819055508260066000898152602001908152602001600020600301819055504260066000898152602001908152602001600020600401819055507f0e11c19254e459389b3807518c61779a0f27b49f561ef1b03caac6f648ff58bf826040516106819190613298565b60405180910390a150505050505050565b6000600560003373ffffffffffffffffffffffffffffffffffffffff1673ffffffffffffffffffffffffffffffffffffffff16815260200190815260200160002054905090565b60606000600280549050905060608167ffffffffffffffff811180156106fe57600080fd5b5060405190808252806020026020018201604052801561073857816020015b61072561238a565b81526020019060019003908161071d5790505b50905060005b828110156108b4576000806002838154811061075657fe5b906000526020600020015481526020019081526020016000206040518060a001604052908160008201548152602001600182015481526020016002820160009054906101000a900473ffffffffffffffffffffffffffffffffffffffff1673ffffffffffffffffffffffffffffffffffffffff1673ffffffffffffffffffffffffffffffffffffffff16815260200160038201548152602001600482018054600181600116156101000203166002900480601f0160208091040260200160405190810160405280929190818152602001828054600181600116156101000203166002900480156108875780601f1061085c57610100808354040283529160200191610887565b820191906000526020600020905b81548152906001019060200180831161086a57829003601f168201915b50505050508152505082828151811061089c57fe5b6020026020010181905250808060010191505061073e565b50809250505090565b6000600560003373ffffffffffffffffffffffffffffffffffffffff1673ffffffffffffffffffffffffffffffffffffffff1681526020019081526020016000205490503373ffffffffffffffffffffffffffffffffffffffff166003600083815260200190815260200160002060000160009054906101000a900473ffffffffffffffffffffffffffffffffffffffff1673ffffffffffffffffffffffffffffffffffffffff161461096f57600080fd5b8360036000838152602001908152602001600020600201908051906020019061099992919061230a565b50826003600083815260200190815260200160002060030190805190602001906109c492919061230a565b50816003600083815260200190815260200160002060040190805190602001906109ef92919061230a565b507f0e11c19254e459389b3807518c61779a0f27b49f561ef1b03caac6f648ff58bf33604051610a1f919061326a565b60405180910390a150505050565b60606004805480602002602001604051908101604052809291908181526020018280548015610a7b57602002820191906000526020600020905b815481526020019060010190808311610a67575b5050505050905090565b60606000600780549050905060608167ffffffffffffffff81118015610aaa57600080fd5b50604051908082528060200260200182016040528015610ae457816020015b610ad16123d2565b815260200190600190039081610ac95790505b50905060005b82811015610d2c576006600060078381548110610b0357fe5b90600052602060002001548152602001908152602001600020604051806101400160405290816000820160009054906101000a900473ffffffffffffffffffffffffffffffffffffffff1673ffffffffffffffffffffffffffffffffffffffff1673ffffffffffffffffffffffffffffffffffffffff16815260200160018201548152602001600282015481526020016003820154815260200160048201548152602001600582018054600181600116156101000203166002900480601f016020809104026020016040519081016040528092919081815260200182805460018160011615610100020316600290048015610c3f5780601f10610c1457610100808354040283529160200191610c3f565b820191906000526020600020905b815481529060010190602001808311610c2257829003601f168201915b50505050508152602001600682018054600181600116156101000203166002900480601f016020809104026020016040519081016040528092919081815260200182805460018160011615610100020316600290048015610ce15780601f10610cb657610100808354040283529160200191610ce1565b820191906000526020600020905b815481529060010190602001808311610cc457829003601f168201915b505050505081526020016007820154815260200160088201548152602001600982015481525050828281518110610d1457fe5b60200260200101819052508080600101915050610aea565b50809250505090565b60606000600480549050905060608167ffffffffffffffff81118015610d5a57600080fd5b50604051908082528060200260200182016040528015610d9457816020015b610d8161243e565b815260200190600190039081610d795790505b50905060005b82811015611041576003600060048381548110610db357fe5b906000526020600020015481526020019081526020016000206040518060a00160405290816000820160009054906101000a900473ffffffffffffffffffffffffffffffffffffffff1673ffffffffffffffffffffffffffffffffffffffff1673ffffffffffffffffffffffffffffffffffffffff16815260200160018201548152602001600282018054600181600116156101000203166002900480601f016020809104026020016040519081016040528092919081815260200182805460018160011615610100020316600290048015610ed05780601f10610ea557610100808354040283529160200191610ed0565b820191906000526020600020905b815481529060010190602001808311610eb357829003601f168201915b50505050508152602001600382018054600181600116156101000203166002900480601f016020809104026020016040519081016040528092919081815260200182805460018160011615610100020316600290048015610f725780601f10610f4757610100808354040283529160200191610f72565b820191906000526020600020905b815481529060010190602001808311610f5557829003601f168201915b50505050508152602001600482018054600181600116156101000203166002900480601f0160208091040260200160405190810160405280929190818152602001828054600181600116156101000203166002900480156110145780601f10610fe957610100808354040283529160200191611014565b820191906000526020600020905b815481529060010190602001808311610ff757829003601f168201915b50505050508152505082828151811061102957fe5b60200260200101819052508080600101915050610d9a565b50809250505090565b600060066000838152602001908152602001600020905060008160080154905060006103e8828161107757fe5b04905060008183039050600083116110c4576040517f08c379a00000000000000000000000000000000000000000000000000000000081526004016110bb90613445565b60405180910390fd5b3373ffffffffffffffffffffffffffffffffffffffff168460000160009054906101000a900473ffffffffffffffffffffffffffffffffffffffff1673ffffffffffffffffffffffffffffffffffffffff1614611156576040517f08c379a000000000000000000000000000000000000000000000000000000000815260040161114d90613425565b60405180910390fd5b60008460080181905550600960009054906101000a900473ffffffffffffffffffffffffffffffffffffffff1673ffffffffffffffffffffffffffffffffffffffff166108fc839081150290604051600060405180830381858888f193505050501580156111c8573d6000803e3d6000fd5b503373ffffffffffffffffffffffffffffffffffffffff166108fc829081150290604051600060405180830381858888f1935050505015801561120f573d6000803e3d6000fd5b507fd93c084e37bf10c65c239ce1ece74b50538195ba956376f7308ba91179bd17af338260405161124192919061322e565b60405180910390a15050505050565b606060006008600084815260200190815260200160002080549050905060608167ffffffffffffffff8111801561128657600080fd5b506040519080825280602002602001820160405280156112c057816020015b6112ad6123d2565b8152602001906001900390816112a55790505b50905060005b8281101561151957600660006008600088815260200190815260200160002083815481106112f057fe5b90600052602060002001548152602001908152602001600020604051806101400160405290816000820160009054906101000a900473ffffffffffffffffffffffffffffffffffffffff1673ffffffffffffffffffffffffffffffffffffffff1673ffffffffffffffffffffffffffffffffffffffff16815260200160018201548152602001600282015481526020016003820154815260200160048201548152602001600582018054600181600116156101000203166002900480601f01602080910402602001604051908101604052809291908181526020018280546001816001161561010002031660029004801561142c5780601f106114015761010080835404028352916020019161142c565b820191906000526020600020905b81548152906001019060200180831161140f57829003601f168201915b50505050508152602001600682018054600181600116156101000203166002900480601f0160208091040260200160405190810160405280929190818152602001828054600181600116156101000203166002900480156114ce5780601f106114a3576101008083540402835291602001916114ce565b820191906000526020600020905b8154815290600101906020018083116114b157829003601f168201915b50505050508152602001600782015481526020016008820154815260200160098201548152505082828151811061150157fe5b602002602001018190525080806001019150506112c6565b508092505050919050565b6000600480549050905090565b6115396123d2565b60066000838152602001908152602001600020604051806101400160405290816000820160009054906101000a900473ffffffffffffffffffffffffffffffffffffffff1673ffffffffffffffffffffffffffffffffffffffff1673ffffffffffffffffffffffffffffffffffffffff16815260200160018201548152602001600282015481526020016003820154815260200160048201548152602001600582018054600181600116156101000203166002900480601f01602080910402602001604051908101604052809291908181526020018280546001816001161561010002031660029004801561166f5780601f106116445761010080835404028352916020019161166f565b820191906000526020600020905b81548152906001019060200180831161165257829003601f168201915b50505050508152602001600682018054600181600116156101000203166002900480601f0160208091040260200160405190810160405280929190818152602001828054600181600116156101000203166002900480156117115780601f106116e657610100808354040283529160200191611711565b820191906000526020600020905b8154815290600101906020018083116116f457829003601f168201915b5050505050815260200160078201548152602001600882015481526020016009820154815250509050919050565b6000600560003373ffffffffffffffffffffffffffffffffffffffff1673ffffffffffffffffffffffffffffffffffffffff168152602001908152602001600020549050600960009054906101000a900473ffffffffffffffffffffffffffffffffffffffff1673ffffffffffffffffffffffffffffffffffffffff163373ffffffffffffffffffffffffffffffffffffffff161415611814576040517f08c379a000000000000000000000000000000000000000000000000000000000815260040161180b90613405565b60405180910390fd5b6000801b8114611859576040517f08c379a000000000000000000000000000000000000000000000000000000000815260040161185090613465565b60405180910390fd5b61186533858585612125565b50505050565b606060006001600084815260200190815260200160002080549050905060608167ffffffffffffffff811180156118a157600080fd5b506040519080825280602002602001820160405280156118db57816020015b6118c861238a565b8152602001906001900390816118c05790505b50905060005b82811015611a685760008060016000888152602001908152602001600020838154811061190a57fe5b906000526020600020015481526020019081526020016000206040518060a001604052908160008201548152602001600182015481526020016002820160009054906101000a900473ffffffffffffffffffffffffffffffffffffffff1673ffffffffffffffffffffffffffffffffffffffff1673ffffffffffffffffffffffffffffffffffffffff16815260200160038201548152602001600482018054600181600116156101000203166002900480601f016020809104026020016040519081016040528092919081815260200182805460018160011615610100020316600290048015611a3b5780601f10611a1057610100808354040283529160200191611a3b565b820191906000526020600020905b815481529060010190602001808311611a1e57829003601f168201915b505050505081525050828281518110611a5057fe5b602002602001018190525080806001019150506118e1565b508092505050919050565b60003490506000600660008581526020019081526020016000209050818160080160008282540192505081905550818160090160008282540192505081905550600042333486604051602001611acc94939291906130fe565b6040516020818303038152906040528051906020012090506040518060a001604052808281526020014281526020013373ffffffffffffffffffffffffffffffffffffffff16815260200134815260200185815250600080838152602001908152602001600020600082015181600001556020820151816001015560408201518160020160006101000a81548173ffffffffffffffffffffffffffffffffffffffff021916908373ffffffffffffffffffffffffffffffffffffffff160217905550606082015181600301556080820151816004019080519060200190611bb492919061230a565b509050506001600086815260200190815260200160002081908060018154018082558091505060019003906000526020600020016000909190919091505560028190806001815401808255809150506001900390600052602060002001600090919091909150557fd93c084e37bf10c65c239ce1ece74b50538195ba956376f7308ba91179bd17af3334604051611c4c9291906131f2565b60405180910390a15050505050565b611c6361243e565b600360008381526020019081526020016000206040518060a00160405290816000820160009054906101000a900473ffffffffffffffffffffffffffffffffffffffff1673ffffffffffffffffffffffffffffffffffffffff1673ffffffffffffffffffffffffffffffffffffffff16815260200160018201548152602001600282018054600181600116156101000203166002900480601f016020809104026020016040519081016040528092919081815260200182805460018160011615610100020316600290048015611d7a5780601f10611d4f57610100808354040283529160200191611d7a565b820191906000526020600020905b815481529060010190602001808311611d5d57829003601f168201915b50505050508152602001600382018054600181600116156101000203166002900480601f016020809104026020016040519081016040528092919081815260200182805460018160011615610100020316600290048015611e1c5780601f10611df157610100808354040283529160200191611e1c565b820191906000526020600020905b815481529060010190602001808311611dff57829003601f168201915b50505050508152602001600482018054600181600116156101000203166002900480601f016020809104026020016040519081016040528092919081815260200182805460018160011615610100020316600290048015611ebe5780601f10611e9357610100808354040283529160200191611ebe565b820191906000526020600020905b815481529060010190602001808311611ea157829003601f168201915b5050505050815250509050919050565b6000600560008773ffffffffffffffffffffffffffffffffffffffff1673ffffffffffffffffffffffffffffffffffffffff16815260200190815260200160002054905060004287878688604051602001611f2d95949392919061319b565b6040516020818303038152906040528051906020012090506040518061014001604052808873ffffffffffffffffffffffffffffffffffffffff1681526020018281526020014281526020018481526020014281526020018781526020018581526020018681526020016000815260200160008152506006600083815260200190815260200160002060008201518160000160006101000a81548173ffffffffffffffffffffffffffffffffffffffff021916908373ffffffffffffffffffffffffffffffffffffffff1602179055506020820151816001015560408201518160020155606082015181600301556080820151816004015560a082015181600501908051906020019061204192919061230a565b5060c082015181600601908051906020019061205e92919061230a565b5060e08201518160070155610100820151816008015561012082015181600901559050506008600083815260200190815260200160002081908060018154018082558091505060019003906000526020600020016000909190919091505560078190806001815401808255809150506001900390600052602060002001600090919091909150557f0e11c19254e459389b3807518c61779a0f27b49f561ef1b03caac6f648ff58bf8760405161211491906132c6565b60405180910390a150505050505050565b60004285858585604051602001612140959493929190613148565b60405160208183030381529060405280519060200120905061216061243e565b6040518060a001604052808773ffffffffffffffffffffffffffffffffffffffff168152602001838152602001868152602001858152602001848152509050806003600084815260200190815260200160002060008201518160000160006101000a81548173ffffffffffffffffffffffffffffffffffffffff021916908373ffffffffffffffffffffffffffffffffffffffff16021790555060208201518160010155604082015181600201908051906020019061222092919061230a565b50606082015181600301908051906020019061223d92919061230a565b50608082015181600401908051906020019061225a92919061230a565b5090505081600560008873ffffffffffffffffffffffffffffffffffffffff1673ffffffffffffffffffffffffffffffffffffffff1681526020019081526020016000208190555060048290806001815401808255809150506001900390600052602060002001600090919091909150557f0e11c19254e459389b3807518c61779a0f27b49f561ef1b03caac6f648ff58bf866040516122fa91906132f4565b60405180910390a1505050505050565b828054600181600116156101000203166002900490600052602060002090601f016020900481019282601f1061234b57805160ff1916838001178555612379565b82800160010185558215612379579182015b8281111561237857825182559160200191906001019061235d565b5b5090506123869190612486565b5090565b6040518060a001604052806000801916815260200160008152602001600073ffffffffffffffffffffffffffffffffffffffff16815260200160008152602001606081525090565b604051806101400160405280600073ffffffffffffffffffffffffffffffffffffffff1681526020016000801916815260200160008152602001600081526020016000815260200160608152602001606081526020016000815260200160008152602001600081525090565b6040518060a00160405280600073ffffffffffffffffffffffffffffffffffffffff168152602001600080191681526020016060815260200160608152602001606081525090565b5b8082111561249f576000816000905550600101612487565b5090565b6000813590506124b281613787565b92915050565b600082601f8301126124c957600080fd5b81356124dc6124d782613511565b6134e4565b915080825260208301602083018583830111156124f857600080fd5b6125038382846136e7565b50505092915050565b60008135905061251b8161379e565b92915050565b60006020828403121561253357600080fd5b6000612541848285016124a3565b91505092915050565b6000806040838503121561255d57600080fd5b600061256b858286016124a3565b925050602083013567ffffffffffffffff81111561258857600080fd5b612594858286016124b8565b9150509250929050565b600080600080600060a086880312156125b657600080fd5b60006125c4888289016124a3565b955050602086013567ffffffffffffffff8111156125e157600080fd5b6125ed888289016124b8565b94505060406125fe8882890161250c565b935050606086013567ffffffffffffffff81111561261b57600080fd5b612627888289016124b8565b92505060806126388882890161250c565b9150509295509295909350565b60008060006060848603121561265a57600080fd5b600084013567ffffffffffffffff81111561267457600080fd5b612680868287016124b8565b935050602084013567ffffffffffffffff81111561269d57600080fd5b6126a9868287016124b8565b925050604084013567ffffffffffffffff8111156126c657600080fd5b6126d2868287016124b8565b9150509250925092565b600080600080608085870312156126f257600080fd5b600085013567ffffffffffffffff81111561270c57600080fd5b612718878288016124b8565b94505060206127298782880161250c565b935050604085013567ffffffffffffffff81111561274657600080fd5b612752878288016124b8565b92505060606127638782880161250c565b91505092959194509250565b600061277b83836129db565b60208301905092915050565b60006127938383612d89565b905092915050565b60006127a78383612dff565b905092915050565b60006127bb8383612fc1565b905092915050565b6127cc816136b1565b82525050565b6127e36127de8261366b565b61373b565b82525050565b6127f281613659565b82525050565b61280181613659565b82525050565b61281861281382613659565b613729565b82525050565b60006128298261357d565b61283381856135e8565b935061283e8361353d565b8060005b8381101561286f578151612856888261276f565b9750612861836135b4565b925050600181019050612842565b5085935050505092915050565b600061288782613588565b61289181856135f9565b9350836020820285016128a38561354d565b8060005b858110156128df57848403895281516128c08582612787565b94506128cb836135c1565b925060208a019950506001810190506128a7565b50829750879550505050505092915050565b60006128fc82613593565b612906818561360a565b9350836020820285016129188561355d565b8060005b858110156129545784840389528151612935858261279b565b9450612940836135ce565b925060208a0199505060018101905061291c565b50829750879550505050505092915050565b60006129718261359e565b61297b818561361b565b93508360208202850161298d8561356d565b8060005b858110156129c957848403895281516129aa85826127af565b94506129b5836135db565b925060208a01995050600181019050612991565b50829750879550505050505092915050565b6129e48161367d565b82525050565b6129f38161367d565b82525050565b6000612a04826135a9565b612a0e818561362c565b9350612a1e8185602086016136f6565b612a2781613769565b840191505092915050565b6000612a3d826135a9565b612a47818561364e565b9350612a578185602086016136f6565b80840191505092915050565b6000612a7060178361363d565b91507f636f6e747269627574696f6e207375636365737366756c0000000000000000006000830152602082019050919050565b6000612ab0600e8361363d565b91507f66756e64657220757064617465640000000000000000000000000000000000006000830152602082019050919050565b6000612af060158361363d565b91507f7769746864726177616c207375636365737366756c00000000000000000000006000830152602082019050919050565b6000612b3060178361363d565b91507f6d757374206265206f776e657220746f207570646174650000000000000000006000830152602082019050919050565b6000612b70602c8361363d565b91507f6d7573742063726561746520686f6d652070616765206265666f72652063726560008301527f6174696e672066756e64657200000000000000000000000000000000000000006020830152604082019050919050565b6000612bd6601b8361363d565b91507f64657620616c726561647920686173206120686f6d65207061676500000000006000830152602082019050919050565b6000612c16600c8361363d565b91507f756e617574686f72697a656400000000000000000000000000000000000000006000830152602082019050919050565b6000612c56600f8361363d565b91507f6163636f756e74207570646174656400000000000000000000000000000000006000830152602082019050919050565b6000612c96600e8361363d565b91507f66756e64657220637265617465640000000000000000000000000000000000006000830152602082019050919050565b6000612cd6600f8361363d565b91507f6163636f756e74206372656174656400000000000000000000000000000000006000830152602082019050919050565b6000612d1660148361363d565b91507f6e6f2066756e647320746f2077697468647261770000000000000000000000006000830152602082019050919050565b6000612d56601c8361363d565b91507f7573657220616c726561647920686173206120686f6d652070616765000000006000830152602082019050919050565b600060a083016000830151612da160008601826129db565b506020830151612db460208601826130c9565b506040830151612dc760408601826127e9565b506060830151612dda60608601826130c9565b5060808301518482036080860152612df282826129f9565b9150508091505092915050565b600061014083016000830151612e1860008601826127e9565b506020830151612e2b60208601826129db565b506040830151612e3e60408601826130c9565b506060830151612e5160608601826130c9565b506080830151612e6460808601826130c9565b5060a083015184820360a0860152612e7c82826129f9565b91505060c083015184820360c0860152612e9682826129f9565b91505060e0830151612eab60e08601826130c9565b50610100830151612ec06101008601826130c9565b50610120830151612ed56101208601826130c9565b508091505092915050565b600061014083016000830151612ef960008601826127e9565b506020830151612f0c60208601826129db565b506040830151612f1f60408601826130c9565b506060830151612f3260608601826130c9565b506080830151612f4560808601826130c9565b5060a083015184820360a0860152612f5d82826129f9565b91505060c083015184820360c0860152612f7782826129f9565b91505060e0830151612f8c60e08601826130c9565b50610100830151612fa16101008601826130c9565b50610120830151612fb66101208601826130c9565b508091505092915050565b600060a083016000830151612fd960008601826127e9565b506020830151612fec60208601826129db565b506040830151848203604086015261300482826129f9565b9150506060830151848203606086015261301e82826129f9565b9150506080830151848203608086015261303882826129f9565b9150508091505092915050565b600060a08301600083015161305d60008601826127e9565b50602083015161307060208601826129db565b506040830151848203604086015261308882826129f9565b915050606083015184820360608601526130a282826129f9565b915050608083015184820360808601526130bc82826129f9565b9150508091505092915050565b6130d2816136a7565b82525050565b6130e1816136a7565b82525050565b6130f86130f3826136a7565b61375f565b82525050565b600061310a82876130e7565b60208201915061311a82866127d2565b60148201915061312a82856130e7565b60208201915061313a8284612a32565b915081905095945050505050565b600061315482886130e7565b6020820191506131648287612807565b6014820191506131748286612a32565b91506131808285612a32565b915061318c8284612a32565b91508190509695505050505050565b60006131a782886130e7565b6020820191506131b78287612807565b6014820191506131c78286612a32565b91506131d38285612a32565b91506131df82846130e7565b6020820191508190509695505050505050565b600060608201905061320760008301856127c3565b818103602083015261321881612a63565b905061322760408301846130d8565b9392505050565b600060608201905061324360008301856127c3565b818103602083015261325481612ae3565b905061326360408301846130d8565b9392505050565b600060408201905061327f60008301846127c3565b818103602083015261329081612c49565b905092915050565b60006040820190506132ad60008301846127f8565b81810360208301526132be81612aa3565b905092915050565b60006040820190506132db60008301846127f8565b81810360208301526132ec81612c89565b905092915050565b600060408201905061330960008301846127f8565b818103602083015261331a81612cc9565b905092915050565b6000602082019050818103600083015261333c818461281e565b905092915050565b6000602082019050818103600083015261335e818461287c565b905092915050565b6000602082019050818103600083015261338081846128f1565b905092915050565b600060208201905081810360008301526133a28184612966565b905092915050565b60006020820190506133bf60008301846129ea565b92915050565b600060208201905081810360008301526133de81612b23565b9050919050565b600060208201905081810360008301526133fe81612b63565b9050919050565b6000602082019050818103600083015261341e81612bc9565b9050919050565b6000602082019050818103600083015261343e81612c09565b9050919050565b6000602082019050818103600083015261345e81612d09565b9050919050565b6000602082019050818103600083015261347e81612d49565b9050919050565b6000602082019050818103600083015261349f8184612ee0565b905092915050565b600060208201905081810360008301526134c18184613045565b905092915050565b60006020820190506134de60008301846130d8565b92915050565b6000604051905081810181811067ffffffffffffffff8211171561350757600080fd5b8060405250919050565b600067ffffffffffffffff82111561352857600080fd5b601f19601f8301169050602081019050919050565b6000819050602082019050919050565b6000819050602082019050919050565b6000819050602082019050919050565b6000819050602082019050919050565b600081519050919050565b600081519050919050565b600081519050919050565b600081519050919050565b600081519050919050565b6000602082019050919050565b6000602082019050919050565b6000602082019050919050565b6000602082019050919050565b600082825260208201905092915050565b600082825260208201905092915050565b600082825260208201905092915050565b600082825260208201905092915050565b600082825260208201905092915050565b600082825260208201905092915050565b600081905092915050565b600061366482613687565b9050919050565b600061367682613687565b9050919050565b6000819050919050565b600073ffffffffffffffffffffffffffffffffffffffff82169050919050565b6000819050919050565b60006136bc826136c3565b9050919050565b60006136ce826136d5565b9050919050565b60006136e082613687565b9050919050565b82818337600083830152505050565b60005b838110156137145780820151818401526020810190506136f9565b83811115613723576000848401525b50505050565b60006137348261374d565b9050919050565b60006137468261374d565b9050919050565b60006137588261377a565b9050919050565b6000819050919050565b6000601f19601f8301169050919050565b60008160601b9050919050565b6137908161367d565b811461379b57600080fd5b50565b6137a7816136a7565b81146137b257600080fd5b5056fea26469706673582212205186184db622add38106179b3c71dc77ef8b582a57cf7efb96b4f5bbce8c58b964736f6c63430007000033",
  "immutableReferences": {},
  "source": "pragma solidity >=0.7.0 <0.8.0;\npragma experimental ABIEncoderV2;\n\ncontract PleaseFundMe_v3 {\n    event InteractionSuccess(address sender, string message);\n    event TransferSuccess(address sender, string transaction, uint amount);\n    \n    struct Funder {\n        address owner;\n        bytes32 id;\n        uint startDate;\n        uint endDate;\n        uint updatedAt;\n        string title;\n        string description;\n        uint fundTarget;\n        uint fundBalance;\n        uint amountRaised;\n    }\n    \n    struct User {\n        address owner;\n        bytes32 id;\n        string username;\n        string aboutMe;\n        string backgroundGradient;\n    }\n    \n    struct Contribution {\n        bytes32 id;\n        uint timeCreated;\n        address contributer;\n        uint amount;\n        string message;\n    }\n    \n    mapping (bytes32 => Contribution) contributions;\n    mapping (bytes32 => bytes32[]) funderContributions;\n    bytes32[] private contributionIndex;\n    \n    mapping (bytes32 => User) users;\n    bytes32[] private userIndex;\n    \n    mapping (address => bytes32) ownerToUserId;\n    \n    mapping (bytes32 => Funder) funders;\n    bytes32[] private funderIndex;\n    mapping (bytes32 => bytes32[]) ownerFunders;\n    \n    address payable _developerAddress;\n    \n    constructor() {\n        _createHomePage(msg.sender, 'dev', 'developer page', 'blue');\n        _developerAddress = msg.sender;\n    }\n    \n    function getAccounts() public view returns(User[] memory) {\n        uint userCount = userIndex.length;\n        User[] memory _users = new User[](userCount);\n        for(uint i = 0; i < userCount; i++) {\n            _users[i] = users[userIndex[i]];\n        }\n        return _users;\n    }\n    \n    function getAccountByid (bytes32 _id) public view returns(User memory) {\n        return users[_id];\n    }\n    \n    function getUserIndex() public view returns(bytes32[] memory) {\n        return userIndex;\n    }\n    \n    function getUserCount() public view returns(uint) {\n        return userIndex.length;\n    }\n    \n    function getUserId() public view returns(bytes32) {\n        return ownerToUserId[msg.sender];\n    }\n    \n    \n    function createHomePage(string memory _username, string memory _aboutMe, string memory _backgroundGradient) public {\n        bytes32 _id = ownerToUserId[msg.sender];\n        require(msg.sender != _developerAddress, 'dev already has a home page');\n        require(_id == 0, 'user already has a home page'); // enforce only one User per address\n        _createHomePage(msg.sender, _username, _aboutMe, _backgroundGradient);\n    }\n    \n    function _createHomePage(address _sender, string memory _username, string memory _aboutMe, string memory _backgroundGradient) internal {\n        bytes32 _id = keccak256(abi.encodePacked(block.timestamp, _sender, _username, _aboutMe, _backgroundGradient));\n        User memory newUser = User(_sender, _id, _username, _aboutMe, _backgroundGradient);\n        users[_id] = newUser; // add the new user\n        ownerToUserId[_sender] = _id;\n        userIndex.push(_id);\n        emit InteractionSuccess(_sender, 'account created');\n    }\n    \n    function updateHomePage(string memory _username, string memory _aboutMe, string memory _backgroundGradient) public {\n        bytes32 _id = ownerToUserId[msg.sender];\n        require(users[_id].owner == msg.sender);\n        users[_id].username = _username;\n        users[_id].aboutMe = _aboutMe;\n        users[_id].backgroundGradient = _backgroundGradient;\n        emit InteractionSuccess(msg.sender, 'account updated');\n    }\n    \n    function createFunder(string memory _title, uint _fundTarget, string memory _description, uint _endDate) public {\n        bytes32 _id = ownerToUserId[msg.sender];\n        if (_id == 0) {\n            require(msg.sender == _developerAddress, 'must create home page before creating funder');\n        }\n        _createFunder(msg.sender, _title, _fundTarget, _description, _endDate);\n    }\n    \n    \n    function _createFunder(address _sender, string memory _title, uint _fundTarget, string memory _description, uint _endDate) internal {\n        bytes32 _userId = ownerToUserId[_sender];\n        bytes32 _funderId = keccak256(abi.encodePacked(block.timestamp, _sender, _title, _description, _fundTarget));\n        funders[_funderId] = Funder(_sender, _funderId, block.timestamp, _endDate, block.timestamp, _title, _description, _fundTarget, 0, 0);\n        ownerFunders[_userId].push(_funderId);\n        funderIndex.push(_funderId);\n        emit InteractionSuccess(_sender, 'funder created');\n    }\n    \n    function updateFunder(bytes32 _funderId, string memory _title, uint _fundTarget, string memory _description, uint _endDate) public {\n        address _sender = msg.sender;\n        bytes32 _userId = ownerToUserId[_sender];\n        require(users[_userId].owner == _sender, 'must be owner to update');\n        funders[_funderId].title = _title;\n        funders[_funderId].description = _description;\n        funders[_funderId].fundTarget = _fundTarget;\n        funders[_funderId].endDate = _endDate;\n        funders[_funderId].updatedAt = block.timestamp;\n        emit InteractionSuccess(_sender, 'funder updated');\n    }\n    \n    function getUserFunders(bytes32 _userId) public view returns(Funder[] memory) {\n        uint _fundersCount = ownerFunders[_userId].length;\n        Funder[] memory _userFunders = new Funder[](_fundersCount);\n        for (uint i = 0; i < _fundersCount; i++) {\n            _userFunders[i] = funders[ownerFunders[_userId][i]];\n        }\n        return _userFunders;\n    }\n    \n    function getAllFunders() public view returns (Funder[] memory) {\n        uint _fundersCount = funderIndex.length;\n        Funder[] memory _funders = new Funder[](_fundersCount);\n        for (uint i = 0; i < _fundersCount; i++) {\n            _funders[i] = funders[funderIndex[i]];\n        }\n        return _funders;\n    }\n    \n    function getFunderById(bytes32 _funderId) public view returns(Funder memory) {\n        return funders[_funderId];\n    }\n    \n    function contribute(bytes32 _funderId, string memory _message) payable public {\n        uint contribution = msg.value;\n        Funder storage funder = funders[_funderId];\n        funder.fundBalance += contribution;\n        funder.amountRaised += contribution;\n        \n        bytes32 _contributionId = keccak256(abi.encodePacked(block.timestamp, msg.sender, msg.value, _message));\n        contributions[_contributionId] = Contribution(_contributionId, block.timestamp, msg.sender, msg.value, _message);\n        funderContributions[_funderId].push(_contributionId);\n        contributionIndex.push(_contributionId);\n        emit TransferSuccess(msg.sender, 'contribution successful', msg.value);\n    }\n    \n    function getFunderContributions(bytes32 _funderId) public view returns(Contribution[] memory) {\n        uint funderCount = funderContributions[_funderId].length;\n        Contribution[] memory _funderContributions = new Contribution[](funderCount);\n        for (uint i = 0; i < funderCount; i++) {\n            _funderContributions[i] = contributions[funderContributions[_funderId][i]];\n        }\n        return _funderContributions;\n    }\n    \n    function getAllContributions() public view returns(Contribution[] memory) {\n        uint funderCount = contributionIndex.length;\n        Contribution[] memory _contributions = new Contribution[](funderCount);\n        for (uint i = 0; i < funderCount; i++) {\n            _contributions[i] = contributions[contributionIndex[i]];\n        }\n        return _contributions;\n    }\n    \n    function withdraw(bytes32 _funderId) public payable{\n        Funder storage funder = funders[_funderId];\n        uint totalFunds = funder.fundBalance;\n        uint devFunds = totalFunds / 1000;\n        uint withdrawalFunds = totalFunds - devFunds;\n        require(totalFunds > 0, 'no funds to withdraw');\n        require(funder.owner == msg.sender, \"unauthorized\");\n        funder.fundBalance = 0;\n        _developerAddress.transfer(devFunds);\n        msg.sender.transfer(withdrawalFunds);\n        emit TransferSuccess(msg.sender, 'withdrawal successful', withdrawalFunds);\n    }\n}",
  "sourcePath": "/home/asooge/block-chain/please-fund-me/PleaseFundMe/contracts/PleaseFundMe_v3.sol",
  "compiler": {
    "name": "solc",
    "version": "0.7.0+commit.9e61f92b.Emscripten.clang"
  },
  "schemaVersion": "3.3.4",
  "updatedAt": "2021-03-28T19:45:07.492Z",
  "networkType": "ethereum",
  "devdoc": {
    "kind": "dev",
    "methods": {},
    "version": 1
  },
  "userdoc": {
    "kind": "user",
    "methods": {},
    "version": 1
  }
}